{
    "contractName": "GameManagerMock",
    "abi": [
        {
            "constant": true,
            "inputs": [],
            "name": "b",
            "outputs": [
                {
                    "name": "",
                    "type": "uint8"
                }
            ],
            "payable": false,
            "stateMutability": "view",
            "type": "function"
        },
        {
            "constant": true,
            "inputs": [],
            "name": "winningPlayer",
            "outputs": [
                {
                    "name": "",
                    "type": "address"
                }
            ],
            "payable": false,
            "stateMutability": "view",
            "type": "function"
        },
        {
            "constant": true,
            "inputs": [],
            "name": "r",
            "outputs": [
                {
                    "name": "",
                    "type": "uint8"
                }
            ],
            "payable": false,
            "stateMutability": "view",
            "type": "function"
        },
        {
            "constant": true,
            "inputs": [],
            "name": "gameAddress",
            "outputs": [
                {
                    "name": "",
                    "type": "address"
                }
            ],
            "payable": false,
            "stateMutability": "view",
            "type": "function"
        },
        {
            "constant": true,
            "inputs": [],
            "name": "g",
            "outputs": [
                {
                    "name": "",
                    "type": "uint8"
                }
            ],
            "payable": false,
            "stateMutability": "view",
            "type": "function"
        },
        {
            "inputs": [
                {
                    "name": "_r",
                    "type": "uint8"
                },
                {
                    "name": "_g",
                    "type": "uint8"
                },
                {
                    "name": "_b",
                    "type": "uint8"
                },
                {
                    "name": "_winningPlayer",
                    "type": "address"
                }
            ],
            "payable": false,
            "stateMutability": "nonpayable",
            "type": "constructor"
        },
        {
            "anonymous": false,
            "inputs": [
                {
                    "indexed": false,
                    "name": "newGameAddress",
                    "type": "address"
                }
            ],
            "name": "NewGame",
            "type": "event"
        },
        {
            "constant": false,
            "inputs": [],
            "name": "claimVictory",
            "outputs": [
                {
                    "name": "",
                    "type": "bool"
                }
            ],
            "payable": false,
            "stateMutability": "nonpayable",
            "type": "function"
        }
    ],
    "bytecode": "0x608060405234801561001057600080fd5b50604051608080614a3a8339810180604052810190808051906020019092919080519060200190929190805190602001909291908051906020019092919050505083600060146101000a81548160ff021916908360ff16021790555082600060156101000a81548160ff021916908360ff16021790555081600060166101000a81548160ff021916908360ff16021790555080600160006101000a81548173ffffffffffffffffffffffffffffffffffffffff021916908373ffffffffffffffffffffffffffffffffffffffff1602179055506100fa610177640100000000026401000000009004565b151561016e576040517f08c379a000000000000000000000000000000000000000000000000000000000815260040180806020018281038252601f8152602001807f4e6f742061626c6520746f2067656e65726174652061206e65772067616d650081525060200191505060405180910390fd5b50505050610361565b600080600060149054906101000a900460ff16600060159054906101000a900460ff16600060169054906101000a900460ff1630600160009054906101000a900473ffffffffffffffffffffffffffffffffffffffff166101d6610351565b808660ff1660ff1681526020018560ff1660ff1681526020018460ff1660ff1681526020018373ffffffffffffffffffffffffffffffffffffffff1673ffffffffffffffffffffffffffffffffffffffff1681526020018273ffffffffffffffffffffffffffffffffffffffff1673ffffffffffffffffffffffffffffffffffffffff16815260200195505050505050604051809103906000f080158015610282573d6000803e3d6000fd5b509050806000806101000a81548173ffffffffffffffffffffffffffffffffffffffff021916908373ffffffffffffffffffffffffffffffffffffffff1602179055507f70afdeea5872e39fcc84edc30bfbbdc4892e22020c423596b2e5c89f4fc205096000809054906101000a900473ffffffffffffffffffffffffffffffffffffffff16604051808273ffffffffffffffffffffffffffffffffffffffff1673ffffffffffffffffffffffffffffffffffffffff16815260200191505060405180910390a1600191505090565b604051611f8280612ab883390190565b612748806103706000396000f300608060405260043610610078576000357c0100000000000000000000000000000000000000000000000000000000900463ffffffff1680631abddf331461007d5780634df7e3d0146100ac5780635ad39846146100dd5780636c8ae38c14610134578063a168d87314610165578063e2179b8e146101bc575b600080fd5b34801561008957600080fd5b506100926101ed565b604051808215151515815260200191505060405180910390f35b3480156100b857600080fd5b506100c161052c565b604051808260ff1660ff16815260200191505060405180910390f35b3480156100e957600080fd5b506100f261053f565b604051808273ffffffffffffffffffffffffffffffffffffffff1673ffffffffffffffffffffffffffffffffffffffff16815260200191505060405180910390f35b34801561014057600080fd5b50610149610565565b604051808260ff1660ff16815260200191505060405180910390f35b34801561017157600080fd5b5061017a610578565b604051808273ffffffffffffffffffffffffffffffffffffffff1673ffffffffffffffffffffffffffffffffffffffff16815260200191505060405180910390f35b3480156101c857600080fd5b506101d161059d565b604051808260ff1660ff16815260200191505060405180910390f35b6000806000809054906101000a900473ffffffffffffffffffffffffffffffffffffffff1690508073ffffffffffffffffffffffffffffffffffffffff166309c95e10336040518263ffffffff167c0100000000000000000000000000000000000000000000000000000000028152600401808273ffffffffffffffffffffffffffffffffffffffff1673ffffffffffffffffffffffffffffffffffffffff168152602001915050602060405180830381600087803b1580156102af57600080fd5b505af11580156102c3573d6000803e3d6000fd5b505050506040513d60208110156102d957600080fd5b8101908080519060200190929190505050151561035e576040517f08c379a000000000000000000000000000000000000000000000000000000000815260040180806020018281038252601b8152602001807f5468652073656e646572206973206e6f74206120706c617965722e000000000081525060200191505060405180910390fd5b8073ffffffffffffffffffffffffffffffffffffffff166351e58d50336040518263ffffffff167c0100000000000000000000000000000000000000000000000000000000028152600401808273ffffffffffffffffffffffffffffffffffffffff1673ffffffffffffffffffffffffffffffffffffffff168152602001915050602060405180830381600087803b1580156103f957600080fd5b505af115801561040d573d6000803e3d6000fd5b505050506040513d602081101561042357600080fd5b810190808051906020019092919050505015156104a8576040517f08c379a00000000000000000000000000000000000000000000000000000000081526004018080602001828103825260188152602001807f556e61626c6520746f20636c61696d20766963746f72792e000000000000000081525060200191505060405180910390fd5b6104b06105b0565b1515610524576040517f08c379a000000000000000000000000000000000000000000000000000000000815260040180806020018281038252601b8152602001807f556e61626c6520746f206372656174652061206e65772067616d65000000000081525060200191505060405180910390fd5b600191505090565b600060169054906101000a900460ff1681565b600160009054906101000a900473ffffffffffffffffffffffffffffffffffffffff1681565b600060149054906101000a900460ff1681565b6000809054906101000a900473ffffffffffffffffffffffffffffffffffffffff1681565b600060159054906101000a900460ff1681565b600080600060149054906101000a900460ff16600060159054906101000a900460ff16600060169054906101000a900460ff1630600160009054906101000a900473ffffffffffffffffffffffffffffffffffffffff1661060f61078a565b808660ff1660ff1681526020018560ff1660ff1681526020018460ff1660ff1681526020018373ffffffffffffffffffffffffffffffffffffffff1673ffffffffffffffffffffffffffffffffffffffff1681526020018273ffffffffffffffffffffffffffffffffffffffff1673ffffffffffffffffffffffffffffffffffffffff16815260200195505050505050604051809103906000f0801580156106bb573d6000803e3d6000fd5b509050806000806101000a81548173ffffffffffffffffffffffffffffffffffffffff021916908373ffffffffffffffffffffffffffffffffffffffff1602179055507f70afdeea5872e39fcc84edc30bfbbdc4892e22020c423596b2e5c89f4fc205096000809054906101000a900473ffffffffffffffffffffffffffffffffffffffff16604051808273ffffffffffffffffffffffffffffffffffffffff1673ffffffffffffffffffffffffffffffffffffffff16815260200191505060405180910390a1600191505090565b604051611f828061079b83390190560060806040526000600460006101000a81548160ff02191690831515021790555060405160a080611f82833981018060405281019080805190602001909291908051906020019092919080519060200190929190805190602001909291908051906020019092919050505084848484600073ffffffffffffffffffffffffffffffffffffffff168173ffffffffffffffffffffffffffffffffffffffff1614151515610112576040517f08c379a000000000000000000000000000000000000000000000000000000000815260040180806020018281038252600d8152602001807f456d70747920616464726573730000000000000000000000000000000000000081525060200191505060405180910390fd5b6060604051908101604052808560ff1681526020018460ff1681526020018360ff168152506001600082015181600001556020820151816001015560408201518160020155905050806000806101000a81548173ffffffffffffffffffffffffffffffffffffffff021916908373ffffffffffffffffffffffffffffffffffffffff1602179055505050505060068190806001815401808255809150509060018203906000526020600020016000909192909190916101000a81548173ffffffffffffffffffffffffffffffffffffffff021916908373ffffffffffffffffffffffffffffffffffffffff160217905550506060604051908101604052806001606060405190810160405290816000820154815260200160018201548152602001600282015481525050815260200160016060604051908101604052908160008201548152602001600182015481526020016002820154815250508152602001662386f26fc10000815250600560008373ffffffffffffffffffffffffffffffffffffffff1673ffffffffffffffffffffffffffffffffffffffff16815260200190815260200160002060008201518160000160008201518160000155602082015181600101556040820151816002015550506020820151816003016000820151816000015560208201518160010155604082015181600201555050604082015181600601559050505050505050611c538061032f6000396000f3006080604052600436106100e6576000357c0100000000000000000000000000000000000000000000000000000000900463ffffffff16806309c95e10146100eb5780630e04a7d814610146578063493358c51461017557806351e58d50146101b657806359770438146102115780635e7bfd6414610290578063723c4962146102f95780637a9ff7e2146103245780638b5b9ccc1461039a5780638d0722151461040657806393e84cd914610431578063b78f0e6414610453578063bdb337d114610498578063c6b05266146104c7578063cc7dc39e1461051e578063de109b6114610557575b600080fd5b3480156100f757600080fd5b5061012c600480360381019080803573ffffffffffffffffffffffffffffffffffffffff169060200190929190505050610579565b604051808215151515815260200191505060405180910390f35b34801561015257600080fd5b5061015b6105c7565b604051808215151515815260200191505060405180910390f35b34801561018157600080fd5b506101a0600480360381019080803590602001909291905050506105de565b6040518082815260200191505060405180910390f35b3480156101c257600080fd5b506101f7600480360381019080803573ffffffffffffffffffffffffffffffffffffffff1690602001909291905050506105fc565b604051808215151515815260200191505060405180910390f35b34801561021d57600080fd5b50610252600480360381019080803573ffffffffffffffffffffffffffffffffffffffff16906020019092919050505061099f565b6040518082600760200280838360005b8381101561027d578082015181840152602081019050610262565b5050505090500191505060405180910390f35b34801561029c57600080fd5b506102bb60048036038101908080359060200190929190505050610adc565b6040518082600360200280838360005b838110156102e65780820151818401526020810190506102cb565b5050505090500191505060405180910390f35b34801561030557600080fd5b5061030e610b44565b6040518082815260200191505060405180910390f35b610380600480360381019080803573ffffffffffffffffffffffffffffffffffffffff16906020019092919080359060200190929190803590602001909291908035906020019092919080359060200190929190505050610b4f565b604051808215151515815260200191505060405180910390f35b3480156103a657600080fd5b506103af6110bd565b6040518080602001828103825283818151815260200191508051906020019060200280838360005b838110156103f25780820151818401526020810190506103d7565b505050509050019250505060405180910390f35b34801561041257600080fd5b5061041b61114b565b6040518082815260200191505060405180910390f35b610439611156565b604051808215151515815260200191505060405180910390f35b34801561045f57600080fd5b5061047e60048036038101908080359060200190929190505050611611565b604051808215151515815260200191505060405180910390f35b3480156104a457600080fd5b506104ad611849565b604051808215151515815260200191505060405180910390f35b3480156104d357600080fd5b506104dc61185c565b604051808273ffffffffffffffffffffffffffffffffffffffff1673ffffffffffffffffffffffffffffffffffffffff16815260200191505060405180910390f35b34801561052a57600080fd5b50610533611881565b60405180848152602001838152602001828152602001935050505060405180910390f35b61055f611899565b604051808215151515815260200191505060405180910390f35b600080600560008473ffffffffffffffffffffffffffffffffffffffff1673ffffffffffffffffffffffffffffffffffffffff16815260200190815260200160002060060154119050919050565b6000600460009054906101000a900460ff16905090565b6000607f8210156105f257600090506105f7565b60ff90505b919050565b6000610606611b6f565b61060e6105c7565b151515610683576040517f08c379a000000000000000000000000000000000000000000000000000000000815260040180806020018281038252600c8152602001807f47616d65206973206f766572000000000000000000000000000000000000000081525060200191505060405180910390fd5b6000809054906101000a900473ffffffffffffffffffffffffffffffffffffffff1673ffffffffffffffffffffffffffffffffffffffff163373ffffffffffffffffffffffffffffffffffffffff16141515610747576040517f08c379a000000000000000000000000000000000000000000000000000000000815260040180806020018281038252601e8152602001807f53656e646572206973206e6f74207468652067616d65206d616e61676572000081525060200191505060405180910390fd5b61075083610579565b15156107c4576040517f08c379a000000000000000000000000000000000000000000000000000000000815260040180806020018281038252600c8152602001807f4e6f74206120706c61796572000000000000000000000000000000000000000081525060200191505060405180910390fd5b600560008473ffffffffffffffffffffffffffffffffffffffff1673ffffffffffffffffffffffffffffffffffffffff16815260200190815260200160002060000160606040519081016040529081600082015481526020016001820154815260200160028201548152505090506001600001548160000151148015610851575060018001548160200151145b801561086557506001600201548160400151145b15156108d9576040517f08c379a000000000000000000000000000000000000000000000000000000000815260040180806020018281038252600a8152602001807f4e6f742077696e6e65720000000000000000000000000000000000000000000081525060200191505060405180910390fd5b8273ffffffffffffffffffffffffffffffffffffffff166108fc3073ffffffffffffffffffffffffffffffffffffffff16319081150290604051600060405180830381858888f19350505050158015610936573d6000803e3d6000fd5b506001600460006101000a81548160ff0219169083151502179055508273ffffffffffffffffffffffffffffffffffffffff167f970f935ee01502df35da11db45c29bdd97d8f41d5a0640c1dc3bd96c67f9798760405160405180910390a26001915050919050565b6109a7611b91565b6109af611bb4565b600560008473ffffffffffffffffffffffffffffffffffffffff1673ffffffffffffffffffffffffffffffffffffffff16815260200190815260200160002060606040519081016040529081600082016060604051908101604052908160008201548152602001600182015481526020016002820154815250508152602001600382016060604051908101604052908160008201548152602001600182015481526020016002820154815250508152602001600682015481525050905060e0604051908101604052808260000151600001518152602001826000015160200151815260200182600001516040015181526020018260200151600001518152602001826020015160200151815260200182602001516040015181526020018260400151815250915050919050565b610ae4611be2565b606060405190810160405280610b0b61ffff62ff00008616811515610b0557fe5b046105de565b8152602001610b2960ff61ff008616811515610b2357fe5b046105de565b8152602001610b3a60ff85166105de565b8152509050919050565b662386f26fc1000081565b6000610b59611bb4565b6000610b636105c7565b151515610bd8576040517f08c379a000000000000000000000000000000000000000000000000000000000815260040180806020018281038252600c8152602001807f47616d65206973206f766572000000000000000000000000000000000000000081525060200191505060405180910390fd5b610be133610579565b1515610c55576040517f08c379a00000000000000000000000000000000000000000000000000000000081526004018080602001828103825260148152602001807f596f7520617265206e6f74206120706c6179657200000000000000000000000081525060200191505060405180910390fd5b610c5e88610579565b1515610cd2576040517f08c379a000000000000000000000000000000000000000000000000000000000815260040180806020018281038252601c8152602001807f596f75206d75737420626c656e642077697468206120706c617965720000000081525060200191505060405180910390fd5b600560008973ffffffffffffffffffffffffffffffffffffffff1673ffffffffffffffffffffffffffffffffffffffff16815260200190815260200160002060606040519081016040529081600082016060604051908101604052908160008201548152602001600182015481526020016002820154815250508152602001600382016060604051908101604052908160008201548152602001600182015481526020016002820154815250508152602001600682015481525050915081604001518710151515610e0b576040517f08c379a000000000000000000000000000000000000000000000000000000000815260040180806020018281038252601c8152602001807f426c656e64696e672070726963652068617320696e637265617365640000000081525060200191505060405180910390fd5b81604001513410151515610e87576040517f08c379a000000000000000000000000000000000000000000000000000000000815260040180806020018281038252601c8152602001807f4e6f7420656e6f75676874207472616e7366657265642045746865720000000081525060200191505060405180910390fd5b81600001516000015186148015610ea5575081600001516020015185145b8015610eb8575081600001516040015184145b1515610f2c576040517f08c379a000000000000000000000000000000000000000000000000000000000815260040180806020018281038252601a8152602001807f426c656e64696e6720636f6c6f7220686173206368616e67656400000000000081525060200191505060405180910390fd5b600560003373ffffffffffffffffffffffffffffffffffffffff1673ffffffffffffffffffffffffffffffffffffffff16815260200190815260200160002090506002826000015160000151826000016000015401811515610f8a57fe5b0481600001600001819055506002826000015160200151826000016001015401811515610fb357fe5b0481600001600101819055506002826000015160400151826000016002015401811515610fdc57fe5b0481600001600201819055508773ffffffffffffffffffffffffffffffffffffffff166108fc60023481151561100e57fe5b049081150290604051600060405180830381858888f1935050505015801561103a573d6000803e3d6000fd5b503373ffffffffffffffffffffffffffffffffffffffff167f5078c587a9932358239e31ea88ae2d84b8cf7c9e44af81d1fd3a4f4c8c5f51f182600001600001548360000160010154846000016002015460405180848152602001838152602001828152602001935050505060405180910390a260019250505095945050505050565b6060600680548060200260200160405190810160405280929190818152602001828054801561114157602002820191906000526020600020905b8160009054906101000a900473ffffffffffffffffffffffffffffffffffffffff1673ffffffffffffffffffffffffffffffffffffffff16815260200190600101908083116110f7575b5050505050905090565b66038d7ea4c6800081565b600080611161611be2565b611169611b6f565b6111716105c7565b1515156111e6576040517f08c379a000000000000000000000000000000000000000000000000000000000815260040180806020018281038252600c8152602001807f47616d65206973206f766572000000000000000000000000000000000000000081525060200191505060405180910390fd5b6111ef33610579565b151515611264576040517f08c379a00000000000000000000000000000000000000000000000000000000081526004018080602001828103825260108152602001807f416c7265616479206120706c617965720000000000000000000000000000000081525060200191505060405180910390fd5b66038d7ea4c6800034101515156112e3576040517f08c379a000000000000000000000000000000000000000000000000000000000815260040180806020018281038252601d8152602001807f506c6179696e672066656520686173206e6f74206265656e207061696400000081525060200191505060405180910390fd5b3360014303404142604051602001808573ffffffffffffffffffffffffffffffffffffffff1673ffffffffffffffffffffffffffffffffffffffff166c0100000000000000000000000002815260140184600019166000191681526020018373ffffffffffffffffffffffffffffffffffffffff1673ffffffffffffffffffffffffffffffffffffffff166c010000000000000000000000000281526014018281526020019450505050506040516020818303038152906040526040518082805190602001908083835b6020831015156113d257805182526020820191506020810190506020830392506113ad565b6001836020036101000a0380198251168184511680821785525050505050509050019150506040518091039020925061140e8360019004610adc565b915060606040519081016040528083600060038110151561142b57fe5b6020020151815260200183600160038110151561144457fe5b6020020151815260200183600260038110151561145d57fe5b6020020151815250905060063390806001815401808255809150509060018203906000526020600020016000909192909190916101000a81548173ffffffffffffffffffffffffffffffffffffffff021916908373ffffffffffffffffffffffffffffffffffffffff16021790555050606060405190810160405280828152602001828152602001662386f26fc10000815250600560003373ffffffffffffffffffffffffffffffffffffffff1673ffffffffffffffffffffffffffffffffffffffff16815260200190815260200160002060008201518160000160008201518160000155602082015181600101556040820151816002015550506020820151816003016000820151816000015560208201518160010155604082015181600201555050604082015181600601559050503373ffffffffffffffffffffffffffffffffffffffff167ff46b9eed909bd7ac945f2e57c1d575062de16a3fed0328036b499cff1eb87042826000015183602001518460400151662386f26fc100006040518085815260200184815260200183815260200182815260200194505050505060405180910390a26001935050505090565b600061161b6105c7565b151515611690576040517f08c379a000000000000000000000000000000000000000000000000000000000815260040180806020018281038252600c8152602001807f47616d65206973206f766572000000000000000000000000000000000000000081525060200191505060405180910390fd5b61169933610579565b151561170d576040517f08c379a00000000000000000000000000000000000000000000000000000000081526004018080602001828103825260148152602001807f596f7520617265206e6f74206120706c6179657200000000000000000000000081525060200191505060405180910390fd5b6000821115156117ab576040517f08c379a00000000000000000000000000000000000000000000000000000000081526004018080602001828103825260218152602001807f426c656e64696e672070726963652073686f756c6420626520706f736974697681526020017f650000000000000000000000000000000000000000000000000000000000000081525060400191505060405180910390fd5b81600560003373ffffffffffffffffffffffffffffffffffffffff1673ffffffffffffffffffffffffffffffffffffffff168152602001908152602001600020600601819055503373ffffffffffffffffffffffffffffffffffffffff167ffecfb8aff64c04d15e06b14626385afa23fbd69bb0ad5744e9de7f8efca84ce0836040518082815260200191505060405180910390a260019050919050565b600460009054906101000a900460ff1681565b6000809054906101000a900473ffffffffffffffffffffffffffffffffffffffff1681565b60018060000154908060010154908060020154905083565b6000806118a46105c7565b151515611919576040517f08c379a000000000000000000000000000000000000000000000000000000000815260040180806020018281038252600c8152602001807f47616d65206973206f766572000000000000000000000000000000000000000081525060200191505060405180910390fd5b61192233610579565b1515611996576040517f08c379a00000000000000000000000000000000000000000000000000000000081526004018080602001828103825260148152602001807f596f7520617265206e6f74206120706c6179657200000000000000000000000081525060200191505060405180910390fd5b662386f26fc100003410151515611a3b576040517f08c379a00000000000000000000000000000000000000000000000000000000081526004018080602001828103825260268152602001807f44656661756c7420626c656e64696e672066656520686173206e6f742062656581526020017f6e2070616964000000000000000000000000000000000000000000000000000081525060400191505060405180910390fd5b600560003373ffffffffffffffffffffffffffffffffffffffff1673ffffffffffffffffffffffffffffffffffffffff168152602001908152602001600020905060028160030160000154826000016000015401811515611a9857fe5b04816000016000018190555060028160030160010154826000016001015401811515611ac057fe5b04816000016001018190555060028160030160020154826000016002015401811515611ae857fe5b0481600001600201819055503373ffffffffffffffffffffffffffffffffffffffff167f5078c587a9932358239e31ea88ae2d84b8cf7c9e44af81d1fd3a4f4c8c5f51f182600001600001548360000160010154846000016002015460405180848152602001838152602001828152602001935050505060405180910390a2600191505090565b6060604051908101604052806000815260200160008152602001600081525090565b60e060405190810160405280600790602082028038833980820191505090505090565b60e060405190810160405280611bc8611c05565b8152602001611bd5611c05565b8152602001600081525090565b606060405190810160405280600390602082028038833980820191505090505090565b60606040519081016040528060008152602001600081526020016000815250905600a165627a7a723058200477a71464983a5aca13fefa895918f69babc7d1cce588f542fc1879e23ba54d0029a165627a7a72305820c8d7a46e861356428c4b0ae7037d5fe755399025d7b8bf366025aa851b0e33db002960806040526000600460006101000a81548160ff02191690831515021790555060405160a080611f82833981018060405281019080805190602001909291908051906020019092919080519060200190929190805190602001909291908051906020019092919050505084848484600073ffffffffffffffffffffffffffffffffffffffff168173ffffffffffffffffffffffffffffffffffffffff1614151515610112576040517f08c379a000000000000000000000000000000000000000000000000000000000815260040180806020018281038252600d8152602001807f456d70747920616464726573730000000000000000000000000000000000000081525060200191505060405180910390fd5b6060604051908101604052808560ff1681526020018460ff1681526020018360ff168152506001600082015181600001556020820151816001015560408201518160020155905050806000806101000a81548173ffffffffffffffffffffffffffffffffffffffff021916908373ffffffffffffffffffffffffffffffffffffffff1602179055505050505060068190806001815401808255809150509060018203906000526020600020016000909192909190916101000a81548173ffffffffffffffffffffffffffffffffffffffff021916908373ffffffffffffffffffffffffffffffffffffffff160217905550506060604051908101604052806001606060405190810160405290816000820154815260200160018201548152602001600282015481525050815260200160016060604051908101604052908160008201548152602001600182015481526020016002820154815250508152602001662386f26fc10000815250600560008373ffffffffffffffffffffffffffffffffffffffff1673ffffffffffffffffffffffffffffffffffffffff16815260200190815260200160002060008201518160000160008201518160000155602082015181600101556040820151816002015550506020820151816003016000820151816000015560208201518160010155604082015181600201555050604082015181600601559050505050505050611c538061032f6000396000f3006080604052600436106100e6576000357c0100000000000000000000000000000000000000000000000000000000900463ffffffff16806309c95e10146100eb5780630e04a7d814610146578063493358c51461017557806351e58d50146101b657806359770438146102115780635e7bfd6414610290578063723c4962146102f95780637a9ff7e2146103245780638b5b9ccc1461039a5780638d0722151461040657806393e84cd914610431578063b78f0e6414610453578063bdb337d114610498578063c6b05266146104c7578063cc7dc39e1461051e578063de109b6114610557575b600080fd5b3480156100f757600080fd5b5061012c600480360381019080803573ffffffffffffffffffffffffffffffffffffffff169060200190929190505050610579565b604051808215151515815260200191505060405180910390f35b34801561015257600080fd5b5061015b6105c7565b604051808215151515815260200191505060405180910390f35b34801561018157600080fd5b506101a0600480360381019080803590602001909291905050506105de565b6040518082815260200191505060405180910390f35b3480156101c257600080fd5b506101f7600480360381019080803573ffffffffffffffffffffffffffffffffffffffff1690602001909291905050506105fc565b604051808215151515815260200191505060405180910390f35b34801561021d57600080fd5b50610252600480360381019080803573ffffffffffffffffffffffffffffffffffffffff16906020019092919050505061099f565b6040518082600760200280838360005b8381101561027d578082015181840152602081019050610262565b5050505090500191505060405180910390f35b34801561029c57600080fd5b506102bb60048036038101908080359060200190929190505050610adc565b6040518082600360200280838360005b838110156102e65780820151818401526020810190506102cb565b5050505090500191505060405180910390f35b34801561030557600080fd5b5061030e610b44565b6040518082815260200191505060405180910390f35b610380600480360381019080803573ffffffffffffffffffffffffffffffffffffffff16906020019092919080359060200190929190803590602001909291908035906020019092919080359060200190929190505050610b4f565b604051808215151515815260200191505060405180910390f35b3480156103a657600080fd5b506103af6110bd565b6040518080602001828103825283818151815260200191508051906020019060200280838360005b838110156103f25780820151818401526020810190506103d7565b505050509050019250505060405180910390f35b34801561041257600080fd5b5061041b61114b565b6040518082815260200191505060405180910390f35b610439611156565b604051808215151515815260200191505060405180910390f35b34801561045f57600080fd5b5061047e60048036038101908080359060200190929190505050611611565b604051808215151515815260200191505060405180910390f35b3480156104a457600080fd5b506104ad611849565b604051808215151515815260200191505060405180910390f35b3480156104d357600080fd5b506104dc61185c565b604051808273ffffffffffffffffffffffffffffffffffffffff1673ffffffffffffffffffffffffffffffffffffffff16815260200191505060405180910390f35b34801561052a57600080fd5b50610533611881565b60405180848152602001838152602001828152602001935050505060405180910390f35b61055f611899565b604051808215151515815260200191505060405180910390f35b600080600560008473ffffffffffffffffffffffffffffffffffffffff1673ffffffffffffffffffffffffffffffffffffffff16815260200190815260200160002060060154119050919050565b6000600460009054906101000a900460ff16905090565b6000607f8210156105f257600090506105f7565b60ff90505b919050565b6000610606611b6f565b61060e6105c7565b151515610683576040517f08c379a000000000000000000000000000000000000000000000000000000000815260040180806020018281038252600c8152602001807f47616d65206973206f766572000000000000000000000000000000000000000081525060200191505060405180910390fd5b6000809054906101000a900473ffffffffffffffffffffffffffffffffffffffff1673ffffffffffffffffffffffffffffffffffffffff163373ffffffffffffffffffffffffffffffffffffffff16141515610747576040517f08c379a000000000000000000000000000000000000000000000000000000000815260040180806020018281038252601e8152602001807f53656e646572206973206e6f74207468652067616d65206d616e61676572000081525060200191505060405180910390fd5b61075083610579565b15156107c4576040517f08c379a000000000000000000000000000000000000000000000000000000000815260040180806020018281038252600c8152602001807f4e6f74206120706c61796572000000000000000000000000000000000000000081525060200191505060405180910390fd5b600560008473ffffffffffffffffffffffffffffffffffffffff1673ffffffffffffffffffffffffffffffffffffffff16815260200190815260200160002060000160606040519081016040529081600082015481526020016001820154815260200160028201548152505090506001600001548160000151148015610851575060018001548160200151145b801561086557506001600201548160400151145b15156108d9576040517f08c379a000000000000000000000000000000000000000000000000000000000815260040180806020018281038252600a8152602001807f4e6f742077696e6e65720000000000000000000000000000000000000000000081525060200191505060405180910390fd5b8273ffffffffffffffffffffffffffffffffffffffff166108fc3073ffffffffffffffffffffffffffffffffffffffff16319081150290604051600060405180830381858888f19350505050158015610936573d6000803e3d6000fd5b506001600460006101000a81548160ff0219169083151502179055508273ffffffffffffffffffffffffffffffffffffffff167f970f935ee01502df35da11db45c29bdd97d8f41d5a0640c1dc3bd96c67f9798760405160405180910390a26001915050919050565b6109a7611b91565b6109af611bb4565b600560008473ffffffffffffffffffffffffffffffffffffffff1673ffffffffffffffffffffffffffffffffffffffff16815260200190815260200160002060606040519081016040529081600082016060604051908101604052908160008201548152602001600182015481526020016002820154815250508152602001600382016060604051908101604052908160008201548152602001600182015481526020016002820154815250508152602001600682015481525050905060e0604051908101604052808260000151600001518152602001826000015160200151815260200182600001516040015181526020018260200151600001518152602001826020015160200151815260200182602001516040015181526020018260400151815250915050919050565b610ae4611be2565b606060405190810160405280610b0b61ffff62ff00008616811515610b0557fe5b046105de565b8152602001610b2960ff61ff008616811515610b2357fe5b046105de565b8152602001610b3a60ff85166105de565b8152509050919050565b662386f26fc1000081565b6000610b59611bb4565b6000610b636105c7565b151515610bd8576040517f08c379a000000000000000000000000000000000000000000000000000000000815260040180806020018281038252600c8152602001807f47616d65206973206f766572000000000000000000000000000000000000000081525060200191505060405180910390fd5b610be133610579565b1515610c55576040517f08c379a00000000000000000000000000000000000000000000000000000000081526004018080602001828103825260148152602001807f596f7520617265206e6f74206120706c6179657200000000000000000000000081525060200191505060405180910390fd5b610c5e88610579565b1515610cd2576040517f08c379a000000000000000000000000000000000000000000000000000000000815260040180806020018281038252601c8152602001807f596f75206d75737420626c656e642077697468206120706c617965720000000081525060200191505060405180910390fd5b600560008973ffffffffffffffffffffffffffffffffffffffff1673ffffffffffffffffffffffffffffffffffffffff16815260200190815260200160002060606040519081016040529081600082016060604051908101604052908160008201548152602001600182015481526020016002820154815250508152602001600382016060604051908101604052908160008201548152602001600182015481526020016002820154815250508152602001600682015481525050915081604001518710151515610e0b576040517f08c379a000000000000000000000000000000000000000000000000000000000815260040180806020018281038252601c8152602001807f426c656e64696e672070726963652068617320696e637265617365640000000081525060200191505060405180910390fd5b81604001513410151515610e87576040517f08c379a000000000000000000000000000000000000000000000000000000000815260040180806020018281038252601c8152602001807f4e6f7420656e6f75676874207472616e7366657265642045746865720000000081525060200191505060405180910390fd5b81600001516000015186148015610ea5575081600001516020015185145b8015610eb8575081600001516040015184145b1515610f2c576040517f08c379a000000000000000000000000000000000000000000000000000000000815260040180806020018281038252601a8152602001807f426c656e64696e6720636f6c6f7220686173206368616e67656400000000000081525060200191505060405180910390fd5b600560003373ffffffffffffffffffffffffffffffffffffffff1673ffffffffffffffffffffffffffffffffffffffff16815260200190815260200160002090506002826000015160000151826000016000015401811515610f8a57fe5b0481600001600001819055506002826000015160200151826000016001015401811515610fb357fe5b0481600001600101819055506002826000015160400151826000016002015401811515610fdc57fe5b0481600001600201819055508773ffffffffffffffffffffffffffffffffffffffff166108fc60023481151561100e57fe5b049081150290604051600060405180830381858888f1935050505015801561103a573d6000803e3d6000fd5b503373ffffffffffffffffffffffffffffffffffffffff167f5078c587a9932358239e31ea88ae2d84b8cf7c9e44af81d1fd3a4f4c8c5f51f182600001600001548360000160010154846000016002015460405180848152602001838152602001828152602001935050505060405180910390a260019250505095945050505050565b6060600680548060200260200160405190810160405280929190818152602001828054801561114157602002820191906000526020600020905b8160009054906101000a900473ffffffffffffffffffffffffffffffffffffffff1673ffffffffffffffffffffffffffffffffffffffff16815260200190600101908083116110f7575b5050505050905090565b66038d7ea4c6800081565b600080611161611be2565b611169611b6f565b6111716105c7565b1515156111e6576040517f08c379a000000000000000000000000000000000000000000000000000000000815260040180806020018281038252600c8152602001807f47616d65206973206f766572000000000000000000000000000000000000000081525060200191505060405180910390fd5b6111ef33610579565b151515611264576040517f08c379a00000000000000000000000000000000000000000000000000000000081526004018080602001828103825260108152602001807f416c7265616479206120706c617965720000000000000000000000000000000081525060200191505060405180910390fd5b66038d7ea4c6800034101515156112e3576040517f08c379a000000000000000000000000000000000000000000000000000000000815260040180806020018281038252601d8152602001807f506c6179696e672066656520686173206e6f74206265656e207061696400000081525060200191505060405180910390fd5b3360014303404142604051602001808573ffffffffffffffffffffffffffffffffffffffff1673ffffffffffffffffffffffffffffffffffffffff166c0100000000000000000000000002815260140184600019166000191681526020018373ffffffffffffffffffffffffffffffffffffffff1673ffffffffffffffffffffffffffffffffffffffff166c010000000000000000000000000281526014018281526020019450505050506040516020818303038152906040526040518082805190602001908083835b6020831015156113d257805182526020820191506020810190506020830392506113ad565b6001836020036101000a0380198251168184511680821785525050505050509050019150506040518091039020925061140e8360019004610adc565b915060606040519081016040528083600060038110151561142b57fe5b6020020151815260200183600160038110151561144457fe5b6020020151815260200183600260038110151561145d57fe5b6020020151815250905060063390806001815401808255809150509060018203906000526020600020016000909192909190916101000a81548173ffffffffffffffffffffffffffffffffffffffff021916908373ffffffffffffffffffffffffffffffffffffffff16021790555050606060405190810160405280828152602001828152602001662386f26fc10000815250600560003373ffffffffffffffffffffffffffffffffffffffff1673ffffffffffffffffffffffffffffffffffffffff16815260200190815260200160002060008201518160000160008201518160000155602082015181600101556040820151816002015550506020820151816003016000820151816000015560208201518160010155604082015181600201555050604082015181600601559050503373ffffffffffffffffffffffffffffffffffffffff167ff46b9eed909bd7ac945f2e57c1d575062de16a3fed0328036b499cff1eb87042826000015183602001518460400151662386f26fc100006040518085815260200184815260200183815260200182815260200194505050505060405180910390a26001935050505090565b600061161b6105c7565b151515611690576040517f08c379a000000000000000000000000000000000000000000000000000000000815260040180806020018281038252600c8152602001807f47616d65206973206f766572000000000000000000000000000000000000000081525060200191505060405180910390fd5b61169933610579565b151561170d576040517f08c379a00000000000000000000000000000000000000000000000000000000081526004018080602001828103825260148152602001807f596f7520617265206e6f74206120706c6179657200000000000000000000000081525060200191505060405180910390fd5b6000821115156117ab576040517f08c379a00000000000000000000000000000000000000000000000000000000081526004018080602001828103825260218152602001807f426c656e64696e672070726963652073686f756c6420626520706f736974697681526020017f650000000000000000000000000000000000000000000000000000000000000081525060400191505060405180910390fd5b81600560003373ffffffffffffffffffffffffffffffffffffffff1673ffffffffffffffffffffffffffffffffffffffff168152602001908152602001600020600601819055503373ffffffffffffffffffffffffffffffffffffffff167ffecfb8aff64c04d15e06b14626385afa23fbd69bb0ad5744e9de7f8efca84ce0836040518082815260200191505060405180910390a260019050919050565b600460009054906101000a900460ff1681565b6000809054906101000a900473ffffffffffffffffffffffffffffffffffffffff1681565b60018060000154908060010154908060020154905083565b6000806118a46105c7565b151515611919576040517f08c379a000000000000000000000000000000000000000000000000000000000815260040180806020018281038252600c8152602001807f47616d65206973206f766572000000000000000000000000000000000000000081525060200191505060405180910390fd5b61192233610579565b1515611996576040517f08c379a00000000000000000000000000000000000000000000000000000000081526004018080602001828103825260148152602001807f596f7520617265206e6f74206120706c6179657200000000000000000000000081525060200191505060405180910390fd5b662386f26fc100003410151515611a3b576040517f08c379a00000000000000000000000000000000000000000000000000000000081526004018080602001828103825260268152602001807f44656661756c7420626c656e64696e672066656520686173206e6f742062656581526020017f6e2070616964000000000000000000000000000000000000000000000000000081525060400191505060405180910390fd5b600560003373ffffffffffffffffffffffffffffffffffffffff1673ffffffffffffffffffffffffffffffffffffffff168152602001908152602001600020905060028160030160000154826000016000015401811515611a9857fe5b04816000016000018190555060028160030160010154826000016001015401811515611ac057fe5b04816000016001018190555060028160030160020154826000016002015401811515611ae857fe5b0481600001600201819055503373ffffffffffffffffffffffffffffffffffffffff167f5078c587a9932358239e31ea88ae2d84b8cf7c9e44af81d1fd3a4f4c8c5f51f182600001600001548360000160010154846000016002015460405180848152602001838152602001828152602001935050505060405180910390a2600191505090565b6060604051908101604052806000815260200160008152602001600081525090565b60e060405190810160405280600790602082028038833980820191505090505090565b60e060405190810160405280611bc8611c05565b8152602001611bd5611c05565b8152602001600081525090565b606060405190810160405280600390602082028038833980820191505090505090565b60606040519081016040528060008152602001600081526020016000815250905600a165627a7a723058200477a71464983a5aca13fefa895918f69babc7d1cce588f542fc1879e23ba54d0029",
    "source": "pragma solidity ^0.4.24;\n\nimport './RainbowTokenMock.sol';\n\n/**\n  * @title GameManager\n  *\n  * @dev GameManager contract\n  *\n  * The game manager keeps track of the current game and creates a new one if\n  * the previous one ends\n  */\ncontract GameManagerMock {\n\n  /* Current address of the game */\n  address public gameAddress;\n\n  /* Target color */\n  uint8 public r;\n  uint8 public g;\n  uint8 public b;\n\n  /* Winning player address */\n  address public winningPlayer;\n\n  /* Emitted every time a new game is deployed */\n  event NewGame(address newGameAddress);\n\n  /**\n    * @dev Creates a new manager with a new game\n    * @param _r Uint of the target r\n    * @param _g Uint of the target g\n    * @param _b Uint of the target b\n    * @param _winningPlayer Address of the winning player\n    */\n  constructor(\n    uint8 _r,\n    uint8 _g,\n    uint8 _b,\n    address _winningPlayer\n  )\n    public\n  {\n    // Set the state variables\n    r = _r;\n    g = _g;\n    b = _b;\n    winningPlayer = _winningPlayer;\n\n    // Create a new game\n    require(newRainbowToken(), 'Not able to generate a new game');\n  }\n\n  /**\n   * @dev Claim victory of the current game and create a new game\n   */\n  function claimVictory()\n    public\n    returns (bool)\n  {\n    // Save the game\n    RainbowToken game = RainbowToken(gameAddress);\n\n    // The sender must be a player\n    require(game.isPlayer(msg.sender), 'The sender is not a player.');\n\n    // Call the claimVictory of the game\n    require(game.claimVictory(msg.sender), 'Unable to claim victory.');\n\n    // Create a new game\n    require(newRainbowToken(), 'Unable to create a new game');\n\n    return true;\n  }\n\n  /**\n   * @dev Creates a new game\n   */\n  function newRainbowToken()\n    private\n    returns (bool)\n  {\n    // Create the new game\n    RainbowToken newGame = new RainbowTokenMock(\n      r,\n      g,\n      b,\n      address(this),\n      winningPlayer\n    );\n\n    // Register the new address\n    gameAddress = address(newGame);\n\n    // Emit the event\n    emit NewGame(gameAddress);\n\n    return true;\n  }\n}\n",
    "sourcePath": "/Users/vincent/Documents/Consensys/rainbow-token/contracts/mocks/GameManagerMock.sol",
    "compiler": {
        "name": "solc",
        "version": "0.4.24+commit.e67f0147.Emscripten.clang"
    },
    "schemaVersion": "2.0.1",
    "updatedAt": "2018-12-12T17:39:24.222Z"
}