{
  "contractName": "RainbowTokenMock",
  "abi": [
    {
      "constant": true,
      "inputs": [
        {
          "name": "_player",
          "type": "address"
        }
      ],
      "name": "isPlayer",
      "outputs": [
        {
          "name": "",
          "type": "bool"
        }
      ],
      "payable": false,
      "stateMutability": "view",
      "type": "function"
    },
    {
      "constant": true,
      "inputs": [],
      "name": "isGameOver",
      "outputs": [
        {
          "name": "",
          "type": "bool"
        }
      ],
      "payable": false,
      "stateMutability": "view",
      "type": "function"
    },
    {
      "constant": false,
      "inputs": [],
      "name": "claimVictory",
      "outputs": [
        {
          "name": "",
          "type": "bool"
        }
      ],
      "payable": false,
      "stateMutability": "nonpayable",
      "type": "function"
    },
    {
      "constant": true,
      "inputs": [
        {
          "name": "_player",
          "type": "address"
        }
      ],
      "name": "getToken",
      "outputs": [
        {
          "name": "",
          "type": "uint256[7]"
        }
      ],
      "payable": false,
      "stateMutability": "view",
      "type": "function"
    },
    {
      "constant": true,
      "inputs": [],
      "name": "DEFAULT_BLENDING_PRICE",
      "outputs": [
        {
          "name": "",
          "type": "uint256"
        }
      ],
      "payable": false,
      "stateMutability": "view",
      "type": "function"
    },
    {
      "constant": false,
      "inputs": [
        {
          "name": "_blendingPlayer",
          "type": "address"
        },
        {
          "name": "_blendingPrice",
          "type": "uint256"
        },
        {
          "name": "_blendingR",
          "type": "uint256"
        },
        {
          "name": "_blendingG",
          "type": "uint256"
        },
        {
          "name": "_blendingB",
          "type": "uint256"
        }
      ],
      "name": "blend",
      "outputs": [
        {
          "name": "",
          "type": "bool"
        }
      ],
      "payable": true,
      "stateMutability": "payable",
      "type": "function"
    },
    {
      "constant": true,
      "inputs": [],
      "name": "getPlayers",
      "outputs": [
        {
          "name": "",
          "type": "address[]"
        }
      ],
      "payable": false,
      "stateMutability": "view",
      "type": "function"
    },
    {
      "constant": true,
      "inputs": [],
      "name": "PLAYING_FEE",
      "outputs": [
        {
          "name": "",
          "type": "uint256"
        }
      ],
      "payable": false,
      "stateMutability": "view",
      "type": "function"
    },
    {
      "constant": false,
      "inputs": [],
      "name": "play",
      "outputs": [
        {
          "name": "",
          "type": "bool"
        }
      ],
      "payable": true,
      "stateMutability": "payable",
      "type": "function"
    },
    {
      "constant": false,
      "inputs": [
        {
          "name": "_price",
          "type": "uint256"
        }
      ],
      "name": "setBlendingPrice",
      "outputs": [
        {
          "name": "",
          "type": "bool"
        }
      ],
      "payable": false,
      "stateMutability": "nonpayable",
      "type": "function"
    },
    {
      "constant": true,
      "inputs": [],
      "name": "gameOver",
      "outputs": [
        {
          "name": "",
          "type": "bool"
        }
      ],
      "payable": false,
      "stateMutability": "view",
      "type": "function"
    },
    {
      "constant": true,
      "inputs": [],
      "name": "targetColor",
      "outputs": [
        {
          "name": "r",
          "type": "uint256"
        },
        {
          "name": "g",
          "type": "uint256"
        },
        {
          "name": "b",
          "type": "uint256"
        }
      ],
      "payable": false,
      "stateMutability": "view",
      "type": "function"
    },
    {
      "constant": false,
      "inputs": [],
      "name": "defaultBlend",
      "outputs": [
        {
          "name": "",
          "type": "bool"
        }
      ],
      "payable": true,
      "stateMutability": "payable",
      "type": "function"
    },
    {
      "inputs": [
        {
          "name": "_r",
          "type": "int256"
        },
        {
          "name": "_g",
          "type": "int256"
        },
        {
          "name": "_b",
          "type": "int256"
        }
      ],
      "payable": true,
      "stateMutability": "payable",
      "type": "constructor"
    },
    {
      "anonymous": false,
      "inputs": [
        {
          "indexed": true,
          "name": "player",
          "type": "address"
        },
        {
          "indexed": false,
          "name": "r",
          "type": "uint256"
        },
        {
          "indexed": false,
          "name": "g",
          "type": "uint256"
        },
        {
          "indexed": false,
          "name": "b",
          "type": "uint256"
        },
        {
          "indexed": false,
          "name": "blendingPrice",
          "type": "uint256"
        }
      ],
      "name": "PlayerCreated",
      "type": "event"
    },
    {
      "anonymous": false,
      "inputs": [
        {
          "indexed": true,
          "name": "player",
          "type": "address"
        },
        {
          "indexed": false,
          "name": "r",
          "type": "uint256"
        },
        {
          "indexed": false,
          "name": "g",
          "type": "uint256"
        },
        {
          "indexed": false,
          "name": "b",
          "type": "uint256"
        }
      ],
      "name": "TokenBlended",
      "type": "event"
    },
    {
      "anonymous": false,
      "inputs": [
        {
          "indexed": true,
          "name": "player",
          "type": "address"
        },
        {
          "indexed": false,
          "name": "price",
          "type": "uint256"
        }
      ],
      "name": "BlendingPriceSet",
      "type": "event"
    },
    {
      "anonymous": false,
      "inputs": [
        {
          "indexed": true,
          "name": "player",
          "type": "address"
        }
      ],
      "name": "PlayerWon",
      "type": "event"
    }
  ],
  "bytecode": "0x60806040526000600360006101000a81548160ff021916908315150217905550604051606080611b31833981018060405281019080805190602001909291908051906020019092919080519060200190929190505050828282606060405190810160405280848152602001838152602001828152506000808201518160000155602082015181600101556040820151816002015590505050505060053390806001815401808255809150509060018203906000526020600020016000909192909190916101000a81548173ffffffffffffffffffffffffffffffffffffffff021916908373ffffffffffffffffffffffffffffffffffffffff160217905550506060604051908101604052806000606060405190810160405290816000820154815260200160018201548152602001600282015481525050815260200160006060604051908101604052908160008201548152602001600182015481526020016002820154815250508152602001662386f26fc10000815250600460003373ffffffffffffffffffffffffffffffffffffffff1673ffffffffffffffffffffffffffffffffffffffff1681526020019081526020016000206000820151816000016000820151816000015560208201518160010155604082015181600201555050602082015181600301600082015181600001556020820151816001015560408201518160020155505060408201518160060155905050505050611909806102286000396000f3006080604052600436106100c5576000357c0100000000000000000000000000000000000000000000000000000000900463ffffffff16806309c95e10146100ca5780630e04a7d8146101255780631abddf33146101545780635977043814610183578063723c4962146102025780637a9ff7e21461022d5780638b5b9ccc146102a35780638d0722151461030f57806393e84cd91461033a578063b78f0e641461035c578063bdb337d1146103a1578063cc7dc39e146103d0578063de109b6114610409575b600080fd5b3480156100d657600080fd5b5061010b600480360381019080803573ffffffffffffffffffffffffffffffffffffffff16906020019092919050505061042b565b604051808215151515815260200191505060405180910390f35b34801561013157600080fd5b5061013a610479565b604051808215151515815260200191505060405180910390f35b34801561016057600080fd5b50610169610490565b604051808215151515815260200191505060405180910390f35b34801561018f57600080fd5b506101c4600480360381019080803573ffffffffffffffffffffffffffffffffffffffff16906020019092919050505061076d565b6040518082600760200280838360005b838110156101ef5780820151818401526020810190506101d4565b5050505090500191505060405180910390f35b34801561020e57600080fd5b506102176108aa565b6040518082815260200191505060405180910390f35b610289600480360381019080803573ffffffffffffffffffffffffffffffffffffffff169060200190929190803590602001909291908035906020019092919080359060200190929190803590602001909291905050506108b5565b604051808215151515815260200191505060405180910390f35b3480156102af57600080fd5b506102b8610e23565b6040518080602001828103825283818151815260200191508051906020019060200280838360005b838110156102fb5780820151818401526020810190506102e0565b505050509050019250505060405180910390f35b34801561031b57600080fd5b50610324610eb1565b6040518082815260200191505060405180910390f35b610342610ebc565b604051808215151515815260200191505060405180910390f35b34801561036857600080fd5b506103876004803603810190808035906020019092919050505061130f565b604051808215151515815260200191505060405180910390f35b3480156103ad57600080fd5b506103b6611547565b604051808215151515815260200191505060405180910390f35b3480156103dc57600080fd5b506103e561155a565b60405180848152602001838152602001828152602001935050505060405180910390f35b610411611572565b604051808215151515815260200191505060405180910390f35b600080600460008473ffffffffffffffffffffffffffffffffffffffff1673ffffffffffffffffffffffffffffffffffffffff16815260200190815260200160002060060154119050919050565b6000600360009054906101000a900460ff16905090565b600061049a611848565b6104a33361042b565b1515610517576040517f08c379a00000000000000000000000000000000000000000000000000000000081526004018080602001828103825260148152602001807f596f7520617265206e6f74206120706c6179657200000000000000000000000081525060200191505060405180910390fd5b61051f610479565b151515610594576040517f08c379a000000000000000000000000000000000000000000000000000000000815260040180806020018281038252600c8152602001807f47616d65206973206f766572000000000000000000000000000000000000000081525060200191505060405180910390fd5b600460003373ffffffffffffffffffffffffffffffffffffffff1673ffffffffffffffffffffffffffffffffffffffff16815260200190815260200160002060000160606040519081016040529081600082015481526020016001820154815260200160028201548152505090506000800154816000015114801561062157506000600101548160200151145b801561063557506000600201548160400151145b15156106a9576040517f08c379a000000000000000000000000000000000000000000000000000000000815260040180806020018281038252600a8152602001807f4e6f742077696e6e65720000000000000000000000000000000000000000000081525060200191505060405180910390fd5b3373ffffffffffffffffffffffffffffffffffffffff166108fc3073ffffffffffffffffffffffffffffffffffffffff16319081150290604051600060405180830381858888f19350505050158015610706573d6000803e3d6000fd5b506001600360006101000a81548160ff0219169083151502179055503373ffffffffffffffffffffffffffffffffffffffff167f970f935ee01502df35da11db45c29bdd97d8f41d5a0640c1dc3bd96c67f9798760405160405180910390a2600191505090565b61077561186a565b61077d61188d565b600460008473ffffffffffffffffffffffffffffffffffffffff1673ffffffffffffffffffffffffffffffffffffffff16815260200190815260200160002060606040519081016040529081600082016060604051908101604052908160008201548152602001600182015481526020016002820154815250508152602001600382016060604051908101604052908160008201548152602001600182015481526020016002820154815250508152602001600682015481525050905060e0604051908101604052808260000151600001518152602001826000015160200151815260200182600001516040015181526020018260200151600001518152602001826020015160200151815260200182602001516040015181526020018260400151815250915050919050565b662386f26fc1000081565b60006108bf61188d565b60006108c9610479565b15151561093e576040517f08c379a000000000000000000000000000000000000000000000000000000000815260040180806020018281038252600c8152602001807f47616d65206973206f766572000000000000000000000000000000000000000081525060200191505060405180910390fd5b6109473361042b565b15156109bb576040517f08c379a00000000000000000000000000000000000000000000000000000000081526004018080602001828103825260148152602001807f596f7520617265206e6f74206120706c6179657200000000000000000000000081525060200191505060405180910390fd5b6109c48861042b565b1515610a38576040517f08c379a000000000000000000000000000000000000000000000000000000000815260040180806020018281038252601c8152602001807f596f75206d75737420626c656e642077697468206120706c617965720000000081525060200191505060405180910390fd5b600460008973ffffffffffffffffffffffffffffffffffffffff1673ffffffffffffffffffffffffffffffffffffffff16815260200190815260200160002060606040519081016040529081600082016060604051908101604052908160008201548152602001600182015481526020016002820154815250508152602001600382016060604051908101604052908160008201548152602001600182015481526020016002820154815250508152602001600682015481525050915081604001518710151515610b71576040517f08c379a000000000000000000000000000000000000000000000000000000000815260040180806020018281038252601c8152602001807f426c656e64696e672070726963652068617320696e637265617365640000000081525060200191505060405180910390fd5b81604001513410151515610bed576040517f08c379a000000000000000000000000000000000000000000000000000000000815260040180806020018281038252601c8152602001807f4e6f7420656e6f75676874207472616e7366657265642045746865720000000081525060200191505060405180910390fd5b81600001516000015186148015610c0b575081600001516020015185145b8015610c1e575081600001516040015184145b1515610c92576040517f08c379a000000000000000000000000000000000000000000000000000000000815260040180806020018281038252601a8152602001807f426c656e64696e6720636f6c6f7220686173206368616e67656400000000000081525060200191505060405180910390fd5b600460003373ffffffffffffffffffffffffffffffffffffffff1673ffffffffffffffffffffffffffffffffffffffff16815260200190815260200160002090506002826000015160000151826000016000015401811515610cf057fe5b0481600001600001819055506002826000015160200151826000016001015401811515610d1957fe5b0481600001600101819055506002826000015160400151826000016002015401811515610d4257fe5b0481600001600201819055508773ffffffffffffffffffffffffffffffffffffffff166108fc600234811515610d7457fe5b049081150290604051600060405180830381858888f19350505050158015610da0573d6000803e3d6000fd5b503373ffffffffffffffffffffffffffffffffffffffff167f5078c587a9932358239e31ea88ae2d84b8cf7c9e44af81d1fd3a4f4c8c5f51f182600001600001548360000160010154846000016002015460405180848152602001838152602001828152602001935050505060405180910390a260019250505095945050505050565b60606005805480602002602001604051908101604052809291908181526020018280548015610ea757602002820191906000526020600020905b8160009054906101000a900473ffffffffffffffffffffffffffffffffffffffff1673ffffffffffffffffffffffffffffffffffffffff1681526020019060010190808311610e5d575b5050505050905090565b66038d7ea4c6800081565b600080610ec7611848565b610ecf610479565b151515610f44576040517f08c379a000000000000000000000000000000000000000000000000000000000815260040180806020018281038252600c8152602001807f47616d65206973206f766572000000000000000000000000000000000000000081525060200191505060405180910390fd5b610f4d3361042b565b151515610fc2576040517f08c379a00000000000000000000000000000000000000000000000000000000081526004018080602001828103825260108152602001807f416c7265616479206120706c617965720000000000000000000000000000000081525060200191505060405180910390fd5b66038d7ea4c680003410151515611041576040517f08c379a000000000000000000000000000000000000000000000000000000000815260040180806020018281038252601d8152602001807f506c6179696e672066656520686173206e6f74206265656e207061696400000081525060200191505060405180910390fd5b3343604051602001808373ffffffffffffffffffffffffffffffffffffffff1673ffffffffffffffffffffffffffffffffffffffff166c01000000000000000000000000028152601401828152602001925050506040516020818303038152906040526040518082805190602001908083835b6020831015156110d957805182526020820191506020810190506020830392506110b4565b6001836020036101000a03801982511681845116808217855250505050505090500191505060405180910390206001900491506060604051908101604052806000600185161161112a57600061112d565b60ff5b815260200160006002851611611144576000611147565b60ff5b81526020016000600485161161115e576000611161565b60ff5b815250905060053390806001815401808255809150509060018203906000526020600020016000909192909190916101000a81548173ffffffffffffffffffffffffffffffffffffffff021916908373ffffffffffffffffffffffffffffffffffffffff16021790555050606060405190810160405280828152602001828152602001662386f26fc10000815250600460003373ffffffffffffffffffffffffffffffffffffffff1673ffffffffffffffffffffffffffffffffffffffff16815260200190815260200160002060008201518160000160008201518160000155602082015181600101556040820151816002015550506020820151816003016000820151816000015560208201518160010155604082015181600201555050604082015181600601559050503373ffffffffffffffffffffffffffffffffffffffff167ff46b9eed909bd7ac945f2e57c1d575062de16a3fed0328036b499cff1eb87042826000015183602001518460400151662386f26fc100006040518085815260200184815260200183815260200182815260200194505050505060405180910390a260019250505090565b6000611319610479565b15151561138e576040517f08c379a000000000000000000000000000000000000000000000000000000000815260040180806020018281038252600c8152602001807f47616d65206973206f766572000000000000000000000000000000000000000081525060200191505060405180910390fd5b6113973361042b565b151561140b576040517f08c379a00000000000000000000000000000000000000000000000000000000081526004018080602001828103825260148152602001807f596f7520617265206e6f74206120706c6179657200000000000000000000000081525060200191505060405180910390fd5b6000821115156114a9576040517f08c379a00000000000000000000000000000000000000000000000000000000081526004018080602001828103825260218152602001807f426c656e64696e672070726963652073686f756c6420626520706f736974697681526020017f650000000000000000000000000000000000000000000000000000000000000081525060400191505060405180910390fd5b81600460003373ffffffffffffffffffffffffffffffffffffffff1673ffffffffffffffffffffffffffffffffffffffff168152602001908152602001600020600601819055503373ffffffffffffffffffffffffffffffffffffffff167ffecfb8aff64c04d15e06b14626385afa23fbd69bb0ad5744e9de7f8efca84ce0836040518082815260200191505060405180910390a260019050919050565b600360009054906101000a900460ff1681565b60008060000154908060010154908060020154905083565b60008061157d610479565b1515156115f2576040517f08c379a000000000000000000000000000000000000000000000000000000000815260040180806020018281038252600c8152602001807f47616d65206973206f766572000000000000000000000000000000000000000081525060200191505060405180910390fd5b6115fb3361042b565b151561166f576040517f08c379a00000000000000000000000000000000000000000000000000000000081526004018080602001828103825260148152602001807f596f7520617265206e6f74206120706c6179657200000000000000000000000081525060200191505060405180910390fd5b662386f26fc100003410151515611714576040517f08c379a00000000000000000000000000000000000000000000000000000000081526004018080602001828103825260268152602001807f44656661756c7420626c656e64696e672066656520686173206e6f742062656581526020017f6e2070616964000000000000000000000000000000000000000000000000000081525060400191505060405180910390fd5b600460003373ffffffffffffffffffffffffffffffffffffffff1673ffffffffffffffffffffffffffffffffffffffff16815260200190815260200160002090506002816003016000015482600001600001540181151561177157fe5b0481600001600001819055506002816003016001015482600001600101540181151561179957fe5b048160000160010181905550600281600301600201548260000160020154018115156117c157fe5b0481600001600201819055503373ffffffffffffffffffffffffffffffffffffffff167f5078c587a9932358239e31ea88ae2d84b8cf7c9e44af81d1fd3a4f4c8c5f51f182600001600001548360000160010154846000016002015460405180848152602001838152602001828152602001935050505060405180910390a2600191505090565b6060604051908101604052806000815260200160008152602001600081525090565b60e060405190810160405280600790602082028038833980820191505090505090565b60e0604051908101604052806118a16118bb565b81526020016118ae6118bb565b8152602001600081525090565b60606040519081016040528060008152602001600081526020016000815250905600a165627a7a72305820ab5948f7ec0f7bf30aeb4638678a51b57154847fe1668d6f7930baba1806864c0029",
  "source": "pragma solidity ^0.4.24;\n\nimport { RainbowToken } from \"../RainbowToken.sol\";\n\n\ncontract RainbowTokenMock is RainbowToken {\n  constructor(\n    int _r,\n    int _g,\n    int _b\n  )\n    public\n    payable\n    RainbowToken(_r, _g, _b)\n  { \n    // Register sender with winning token\n    players.push(msg.sender);\n    tokens[msg.sender] = Token(targetColor, targetColor, DEFAULT_BLENDING_PRICE);\n  }\n}",
  "sourcePath": "/Users/vincent/Documents/Consensys/rainbow-token/contracts/mocks/RainbowTokenMock.sol",
  "compiler": {
    "name": "solc",
    "version": "0.4.24+commit.e67f0147.Emscripten.clang"
  },
  "schemaVersion": "2.0.1",
  "updatedAt": "2018-09-10T16:45:29.403Z"
}