{
    "contractName": "RainbowTokenMock",
    "abi": [
        {
            "constant": true,
            "inputs": [
                {
                    "name": "_player",
                    "type": "address"
                }
            ],
            "name": "isPlayer",
            "outputs": [
                {
                    "name": "",
                    "type": "bool"
                }
            ],
            "payable": false,
            "stateMutability": "view",
            "type": "function"
        },
        {
            "constant": true,
            "inputs": [],
            "name": "isGameOver",
            "outputs": [
                {
                    "name": "",
                    "type": "bool"
                }
            ],
            "payable": false,
            "stateMutability": "view",
            "type": "function"
        },
        {
            "constant": true,
            "inputs": [
                {
                    "name": "colorComponent",
                    "type": "uint256"
                }
            ],
            "name": "toPrimary",
            "outputs": [
                {
                    "name": "",
                    "type": "uint256"
                }
            ],
            "payable": false,
            "stateMutability": "pure",
            "type": "function"
        },
        {
            "constant": false,
            "inputs": [
                {
                    "name": "player",
                    "type": "address"
                }
            ],
            "name": "claimVictory",
            "outputs": [
                {
                    "name": "",
                    "type": "bool"
                }
            ],
            "payable": false,
            "stateMutability": "nonpayable",
            "type": "function"
        },
        {
            "constant": true,
            "inputs": [
                {
                    "name": "_player",
                    "type": "address"
                }
            ],
            "name": "getToken",
            "outputs": [
                {
                    "name": "",
                    "type": "uint256[7]"
                }
            ],
            "payable": false,
            "stateMutability": "view",
            "type": "function"
        },
        {
            "constant": true,
            "inputs": [
                {
                    "name": "_seed",
                    "type": "uint256"
                }
            ],
            "name": "getRgb",
            "outputs": [
                {
                    "name": "",
                    "type": "uint256[3]"
                }
            ],
            "payable": false,
            "stateMutability": "pure",
            "type": "function"
        },
        {
            "constant": true,
            "inputs": [],
            "name": "DEFAULT_BLENDING_PRICE",
            "outputs": [
                {
                    "name": "",
                    "type": "uint256"
                }
            ],
            "payable": false,
            "stateMutability": "view",
            "type": "function"
        },
        {
            "constant": false,
            "inputs": [
                {
                    "name": "_blendingPlayer",
                    "type": "address"
                },
                {
                    "name": "_blendingPrice",
                    "type": "uint256"
                },
                {
                    "name": "_blendingR",
                    "type": "uint256"
                },
                {
                    "name": "_blendingG",
                    "type": "uint256"
                },
                {
                    "name": "_blendingB",
                    "type": "uint256"
                }
            ],
            "name": "blend",
            "outputs": [
                {
                    "name": "",
                    "type": "bool"
                }
            ],
            "payable": true,
            "stateMutability": "payable",
            "type": "function"
        },
        {
            "constant": true,
            "inputs": [],
            "name": "getPlayers",
            "outputs": [
                {
                    "name": "",
                    "type": "address[]"
                }
            ],
            "payable": false,
            "stateMutability": "view",
            "type": "function"
        },
        {
            "constant": true,
            "inputs": [],
            "name": "PLAYING_FEE",
            "outputs": [
                {
                    "name": "",
                    "type": "uint256"
                }
            ],
            "payable": false,
            "stateMutability": "view",
            "type": "function"
        },
        {
            "constant": false,
            "inputs": [],
            "name": "play",
            "outputs": [
                {
                    "name": "",
                    "type": "bool"
                }
            ],
            "payable": true,
            "stateMutability": "payable",
            "type": "function"
        },
        {
            "constant": false,
            "inputs": [
                {
                    "name": "_price",
                    "type": "uint256"
                }
            ],
            "name": "setBlendingPrice",
            "outputs": [
                {
                    "name": "",
                    "type": "bool"
                }
            ],
            "payable": false,
            "stateMutability": "nonpayable",
            "type": "function"
        },
        {
            "constant": true,
            "inputs": [],
            "name": "gameOver",
            "outputs": [
                {
                    "name": "",
                    "type": "bool"
                }
            ],
            "payable": false,
            "stateMutability": "view",
            "type": "function"
        },
        {
            "constant": true,
            "inputs": [],
            "name": "gameManager",
            "outputs": [
                {
                    "name": "",
                    "type": "address"
                }
            ],
            "payable": false,
            "stateMutability": "view",
            "type": "function"
        },
        {
            "constant": true,
            "inputs": [],
            "name": "targetColor",
            "outputs": [
                {
                    "name": "r",
                    "type": "uint256"
                },
                {
                    "name": "g",
                    "type": "uint256"
                },
                {
                    "name": "b",
                    "type": "uint256"
                }
            ],
            "payable": false,
            "stateMutability": "view",
            "type": "function"
        },
        {
            "constant": false,
            "inputs": [],
            "name": "defaultBlend",
            "outputs": [
                {
                    "name": "",
                    "type": "bool"
                }
            ],
            "payable": true,
            "stateMutability": "payable",
            "type": "function"
        },
        {
            "inputs": [
                {
                    "name": "_r",
                    "type": "uint8"
                },
                {
                    "name": "_g",
                    "type": "uint8"
                },
                {
                    "name": "_b",
                    "type": "uint8"
                },
                {
                    "name": "_gameManager",
                    "type": "address"
                }
            ],
            "payable": true,
            "stateMutability": "payable",
            "type": "constructor"
        },
        {
            "anonymous": false,
            "inputs": [
                {
                    "indexed": true,
                    "name": "player",
                    "type": "address"
                },
                {
                    "indexed": false,
                    "name": "r",
                    "type": "uint256"
                },
                {
                    "indexed": false,
                    "name": "g",
                    "type": "uint256"
                },
                {
                    "indexed": false,
                    "name": "b",
                    "type": "uint256"
                },
                {
                    "indexed": false,
                    "name": "blendingPrice",
                    "type": "uint256"
                }
            ],
            "name": "PlayerCreated",
            "type": "event"
        },
        {
            "anonymous": false,
            "inputs": [
                {
                    "indexed": true,
                    "name": "player",
                    "type": "address"
                },
                {
                    "indexed": false,
                    "name": "r",
                    "type": "uint256"
                },
                {
                    "indexed": false,
                    "name": "g",
                    "type": "uint256"
                },
                {
                    "indexed": false,
                    "name": "b",
                    "type": "uint256"
                }
            ],
            "name": "TokenBlended",
            "type": "event"
        },
        {
            "anonymous": false,
            "inputs": [
                {
                    "indexed": true,
                    "name": "player",
                    "type": "address"
                },
                {
                    "indexed": false,
                    "name": "price",
                    "type": "uint256"
                }
            ],
            "name": "BlendingPriceSet",
            "type": "event"
        },
        {
            "anonymous": false,
            "inputs": [
                {
                    "indexed": true,
                    "name": "player",
                    "type": "address"
                }
            ],
            "name": "PlayerWon",
            "type": "event"
        }
    ],
    "bytecode": "0x60806040526000600460006101000a81548160ff021916908315150217905550604051608080611efa8339810180604052810190808051906020019092919080519060200190929190805190602001909291908051906020019092919050505083838383600073ffffffffffffffffffffffffffffffffffffffff168173ffffffffffffffffffffffffffffffffffffffff1614151515610108576040517f08c379a000000000000000000000000000000000000000000000000000000000815260040180806020018281038252600d8152602001807f456d70747920616464726573730000000000000000000000000000000000000081525060200191505060405180910390fd5b6060604051908101604052808560ff1681526020018460ff1681526020018360ff168152506001600082015181600001556020820151816001015560408201518160020155905050806000806101000a81548173ffffffffffffffffffffffffffffffffffffffff021916908373ffffffffffffffffffffffffffffffffffffffff1602179055505050505060063390806001815401808255809150509060018203906000526020600020016000909192909190916101000a81548173ffffffffffffffffffffffffffffffffffffffff021916908373ffffffffffffffffffffffffffffffffffffffff160217905550506060604051908101604052806001606060405190810160405290816000820154815260200160018201548152602001600282015481525050815260200160016060604051908101604052908160008201548152602001600182015481526020016002820154815250508152602001662386f26fc10000815250600560003373ffffffffffffffffffffffffffffffffffffffff1673ffffffffffffffffffffffffffffffffffffffff168152602001908152602001600020600082015181600001600082015181600001556020820151816001015560408201518160020155505060208201518160030160008201518160000155602082015181600101556040820151816002015550506040820151816006015590505050505050611bd6806103246000396000f3006080604052600436106100e6576000357c0100000000000000000000000000000000000000000000000000000000900463ffffffff16806309c95e10146100eb5780630e04a7d814610146578063493358c51461017557806351e58d50146101b657806359770438146102115780635e7bfd6414610290578063723c4962146102f95780637a9ff7e2146103245780638b5b9ccc1461039a5780638d0722151461040657806393e84cd914610431578063b78f0e6414610453578063bdb337d114610498578063c6b05266146104c7578063cc7dc39e1461051e578063de109b6114610557575b600080fd5b3480156100f757600080fd5b5061012c600480360381019080803573ffffffffffffffffffffffffffffffffffffffff169060200190929190505050610579565b604051808215151515815260200191505060405180910390f35b34801561015257600080fd5b5061015b6105c7565b604051808215151515815260200191505060405180910390f35b34801561018157600080fd5b506101a0600480360381019080803590602001909291905050506105de565b6040518082815260200191505060405180910390f35b3480156101c257600080fd5b506101f7600480360381019080803573ffffffffffffffffffffffffffffffffffffffff1690602001909291905050506105fc565b604051808215151515815260200191505060405180910390f35b34801561021d57600080fd5b50610252600480360381019080803573ffffffffffffffffffffffffffffffffffffffff169060200190929190505050610922565b6040518082600760200280838360005b8381101561027d578082015181840152602081019050610262565b5050505090500191505060405180910390f35b34801561029c57600080fd5b506102bb60048036038101908080359060200190929190505050610a5f565b6040518082600360200280838360005b838110156102e65780820151818401526020810190506102cb565b5050505090500191505060405180910390f35b34801561030557600080fd5b5061030e610ac7565b6040518082815260200191505060405180910390f35b610380600480360381019080803573ffffffffffffffffffffffffffffffffffffffff16906020019092919080359060200190929190803590602001909291908035906020019092919080359060200190929190505050610ad2565b604051808215151515815260200191505060405180910390f35b3480156103a657600080fd5b506103af611040565b6040518080602001828103825283818151815260200191508051906020019060200280838360005b838110156103f25780820151818401526020810190506103d7565b505050509050019250505060405180910390f35b34801561041257600080fd5b5061041b6110ce565b6040518082815260200191505060405180910390f35b6104396110d9565b604051808215151515815260200191505060405180910390f35b34801561045f57600080fd5b5061047e60048036038101908080359060200190929190505050611594565b604051808215151515815260200191505060405180910390f35b3480156104a457600080fd5b506104ad6117cc565b604051808215151515815260200191505060405180910390f35b3480156104d357600080fd5b506104dc6117df565b604051808273ffffffffffffffffffffffffffffffffffffffff1673ffffffffffffffffffffffffffffffffffffffff16815260200191505060405180910390f35b34801561052a57600080fd5b50610533611804565b60405180848152602001838152602001828152602001935050505060405180910390f35b61055f61181c565b604051808215151515815260200191505060405180910390f35b600080600560008473ffffffffffffffffffffffffffffffffffffffff1673ffffffffffffffffffffffffffffffffffffffff16815260200190815260200160002060060154119050919050565b6000600460009054906101000a900460ff16905090565b6000607f8210156105f257600090506105f7565b60ff90505b919050565b6000610606611af2565b61060e6105c7565b151515610683576040517f08c379a000000000000000000000000000000000000000000000000000000000815260040180806020018281038252600c8152602001807f47616d65206973206f766572000000000000000000000000000000000000000081525060200191505060405180910390fd5b6000809054906101000a900473ffffffffffffffffffffffffffffffffffffffff1673ffffffffffffffffffffffffffffffffffffffff163373ffffffffffffffffffffffffffffffffffffffff16141515610747576040517f08c379a000000000000000000000000000000000000000000000000000000000815260040180806020018281038252601e8152602001807f53656e646572206973206e6f74207468652067616d65206d616e61676572000081525060200191505060405180910390fd5b600560008473ffffffffffffffffffffffffffffffffffffffff1673ffffffffffffffffffffffffffffffffffffffff168152602001908152602001600020600001606060405190810160405290816000820154815260200160018201548152602001600282015481525050905060016000015481600001511480156107d4575060018001548160200151145b80156107e857506001600201548160400151145b151561085c576040517f08c379a000000000000000000000000000000000000000000000000000000000815260040180806020018281038252600a8152602001807f4e6f742077696e6e65720000000000000000000000000000000000000000000081525060200191505060405180910390fd5b8273ffffffffffffffffffffffffffffffffffffffff166108fc3073ffffffffffffffffffffffffffffffffffffffff16319081150290604051600060405180830381858888f193505050501580156108b9573d6000803e3d6000fd5b506001600460006101000a81548160ff0219169083151502179055508273ffffffffffffffffffffffffffffffffffffffff167f970f935ee01502df35da11db45c29bdd97d8f41d5a0640c1dc3bd96c67f9798760405160405180910390a26001915050919050565b61092a611b14565b610932611b37565b600560008473ffffffffffffffffffffffffffffffffffffffff1673ffffffffffffffffffffffffffffffffffffffff16815260200190815260200160002060606040519081016040529081600082016060604051908101604052908160008201548152602001600182015481526020016002820154815250508152602001600382016060604051908101604052908160008201548152602001600182015481526020016002820154815250508152602001600682015481525050905060e0604051908101604052808260000151600001518152602001826000015160200151815260200182600001516040015181526020018260200151600001518152602001826020015160200151815260200182602001516040015181526020018260400151815250915050919050565b610a67611b65565b606060405190810160405280610a8e61ffff62ff00008616811515610a8857fe5b046105de565b8152602001610aac60ff61ff008616811515610aa657fe5b046105de565b8152602001610abd60ff85166105de565b8152509050919050565b662386f26fc1000081565b6000610adc611b37565b6000610ae66105c7565b151515610b5b576040517f08c379a000000000000000000000000000000000000000000000000000000000815260040180806020018281038252600c8152602001807f47616d65206973206f766572000000000000000000000000000000000000000081525060200191505060405180910390fd5b610b6433610579565b1515610bd8576040517f08c379a00000000000000000000000000000000000000000000000000000000081526004018080602001828103825260148152602001807f596f7520617265206e6f74206120706c6179657200000000000000000000000081525060200191505060405180910390fd5b610be188610579565b1515610c55576040517f08c379a000000000000000000000000000000000000000000000000000000000815260040180806020018281038252601c8152602001807f596f75206d75737420626c656e642077697468206120706c617965720000000081525060200191505060405180910390fd5b600560008973ffffffffffffffffffffffffffffffffffffffff1673ffffffffffffffffffffffffffffffffffffffff16815260200190815260200160002060606040519081016040529081600082016060604051908101604052908160008201548152602001600182015481526020016002820154815250508152602001600382016060604051908101604052908160008201548152602001600182015481526020016002820154815250508152602001600682015481525050915081604001518710151515610d8e576040517f08c379a000000000000000000000000000000000000000000000000000000000815260040180806020018281038252601c8152602001807f426c656e64696e672070726963652068617320696e637265617365640000000081525060200191505060405180910390fd5b81604001513410151515610e0a576040517f08c379a000000000000000000000000000000000000000000000000000000000815260040180806020018281038252601c8152602001807f4e6f7420656e6f75676874207472616e7366657265642045746865720000000081525060200191505060405180910390fd5b81600001516000015186148015610e28575081600001516020015185145b8015610e3b575081600001516040015184145b1515610eaf576040517f08c379a000000000000000000000000000000000000000000000000000000000815260040180806020018281038252601a8152602001807f426c656e64696e6720636f6c6f7220686173206368616e67656400000000000081525060200191505060405180910390fd5b600560003373ffffffffffffffffffffffffffffffffffffffff1673ffffffffffffffffffffffffffffffffffffffff16815260200190815260200160002090506002826000015160000151826000016000015401811515610f0d57fe5b0481600001600001819055506002826000015160200151826000016001015401811515610f3657fe5b0481600001600101819055506002826000015160400151826000016002015401811515610f5f57fe5b0481600001600201819055508773ffffffffffffffffffffffffffffffffffffffff166108fc600234811515610f9157fe5b049081150290604051600060405180830381858888f19350505050158015610fbd573d6000803e3d6000fd5b503373ffffffffffffffffffffffffffffffffffffffff167f5078c587a9932358239e31ea88ae2d84b8cf7c9e44af81d1fd3a4f4c8c5f51f182600001600001548360000160010154846000016002015460405180848152602001838152602001828152602001935050505060405180910390a260019250505095945050505050565b606060068054806020026020016040519081016040528092919081815260200182805480156110c457602002820191906000526020600020905b8160009054906101000a900473ffffffffffffffffffffffffffffffffffffffff1673ffffffffffffffffffffffffffffffffffffffff168152602001906001019080831161107a575b5050505050905090565b66038d7ea4c6800081565b6000806110e4611b65565b6110ec611af2565b6110f46105c7565b151515611169576040517f08c379a000000000000000000000000000000000000000000000000000000000815260040180806020018281038252600c8152602001807f47616d65206973206f766572000000000000000000000000000000000000000081525060200191505060405180910390fd5b61117233610579565b1515156111e7576040517f08c379a00000000000000000000000000000000000000000000000000000000081526004018080602001828103825260108152602001807f416c7265616479206120706c617965720000000000000000000000000000000081525060200191505060405180910390fd5b66038d7ea4c680003410151515611266576040517f08c379a000000000000000000000000000000000000000000000000000000000815260040180806020018281038252601d8152602001807f506c6179696e672066656520686173206e6f74206265656e207061696400000081525060200191505060405180910390fd5b3360014303404142604051602001808573ffffffffffffffffffffffffffffffffffffffff1673ffffffffffffffffffffffffffffffffffffffff166c0100000000000000000000000002815260140184600019166000191681526020018373ffffffffffffffffffffffffffffffffffffffff1673ffffffffffffffffffffffffffffffffffffffff166c010000000000000000000000000281526014018281526020019450505050506040516020818303038152906040526040518082805190602001908083835b6020831015156113555780518252602082019150602081019050602083039250611330565b6001836020036101000a038019825116818451168082178552505050505050905001915050604051809103902092506113918360019004610a5f565b91506060604051908101604052808360006003811015156113ae57fe5b602002015181526020018360016003811015156113c757fe5b602002015181526020018360026003811015156113e057fe5b6020020151815250905060063390806001815401808255809150509060018203906000526020600020016000909192909190916101000a81548173ffffffffffffffffffffffffffffffffffffffff021916908373ffffffffffffffffffffffffffffffffffffffff16021790555050606060405190810160405280828152602001828152602001662386f26fc10000815250600560003373ffffffffffffffffffffffffffffffffffffffff1673ffffffffffffffffffffffffffffffffffffffff16815260200190815260200160002060008201518160000160008201518160000155602082015181600101556040820151816002015550506020820151816003016000820151816000015560208201518160010155604082015181600201555050604082015181600601559050503373ffffffffffffffffffffffffffffffffffffffff167ff46b9eed909bd7ac945f2e57c1d575062de16a3fed0328036b499cff1eb87042826000015183602001518460400151662386f26fc100006040518085815260200184815260200183815260200182815260200194505050505060405180910390a26001935050505090565b600061159e6105c7565b151515611613576040517f08c379a000000000000000000000000000000000000000000000000000000000815260040180806020018281038252600c8152602001807f47616d65206973206f766572000000000000000000000000000000000000000081525060200191505060405180910390fd5b61161c33610579565b1515611690576040517f08c379a00000000000000000000000000000000000000000000000000000000081526004018080602001828103825260148152602001807f596f7520617265206e6f74206120706c6179657200000000000000000000000081525060200191505060405180910390fd5b60008211151561172e576040517f08c379a00000000000000000000000000000000000000000000000000000000081526004018080602001828103825260218152602001807f426c656e64696e672070726963652073686f756c6420626520706f736974697681526020017f650000000000000000000000000000000000000000000000000000000000000081525060400191505060405180910390fd5b81600560003373ffffffffffffffffffffffffffffffffffffffff1673ffffffffffffffffffffffffffffffffffffffff168152602001908152602001600020600601819055503373ffffffffffffffffffffffffffffffffffffffff167ffecfb8aff64c04d15e06b14626385afa23fbd69bb0ad5744e9de7f8efca84ce0836040518082815260200191505060405180910390a260019050919050565b600460009054906101000a900460ff1681565b6000809054906101000a900473ffffffffffffffffffffffffffffffffffffffff1681565b60018060000154908060010154908060020154905083565b6000806118276105c7565b15151561189c576040517f08c379a000000000000000000000000000000000000000000000000000000000815260040180806020018281038252600c8152602001807f47616d65206973206f766572000000000000000000000000000000000000000081525060200191505060405180910390fd5b6118a533610579565b1515611919576040517f08c379a00000000000000000000000000000000000000000000000000000000081526004018080602001828103825260148152602001807f596f7520617265206e6f74206120706c6179657200000000000000000000000081525060200191505060405180910390fd5b662386f26fc1000034101515156119be576040517f08c379a00000000000000000000000000000000000000000000000000000000081526004018080602001828103825260268152602001807f44656661756c7420626c656e64696e672066656520686173206e6f742062656581526020017f6e2070616964000000000000000000000000000000000000000000000000000081525060400191505060405180910390fd5b600560003373ffffffffffffffffffffffffffffffffffffffff1673ffffffffffffffffffffffffffffffffffffffff168152602001908152602001600020905060028160030160000154826000016000015401811515611a1b57fe5b04816000016000018190555060028160030160010154826000016001015401811515611a4357fe5b04816000016001018190555060028160030160020154826000016002015401811515611a6b57fe5b0481600001600201819055503373ffffffffffffffffffffffffffffffffffffffff167f5078c587a9932358239e31ea88ae2d84b8cf7c9e44af81d1fd3a4f4c8c5f51f182600001600001548360000160010154846000016002015460405180848152602001838152602001828152602001935050505060405180910390a2600191505090565b6060604051908101604052806000815260200160008152602001600081525090565b60e060405190810160405280600790602082028038833980820191505090505090565b60e060405190810160405280611b4b611b88565b8152602001611b58611b88565b8152602001600081525090565b606060405190810160405280600390602082028038833980820191505090505090565b60606040519081016040528060008152602001600081526020016000815250905600a165627a7a72305820b84da7c61908a195ae1c9a456f7208024a60a266f05955a50f49e79adde75c550029",
    "source": "pragma solidity ^0.4.24;\n\nimport { RainbowToken } from \"../RainbowToken.sol\";\n\n\ncontract RainbowTokenMock is RainbowToken {\n  constructor(\n    uint8 _r,\n    uint8 _g,\n    uint8 _b,\n    address _gameManager\n  )\n    public\n    payable\n    RainbowToken(_r, _g, _b, _gameManager)\n  {\n    // Register sender with winning token\n    players.push(msg.sender);\n    tokens[msg.sender] = Token(targetColor, targetColor, DEFAULT_BLENDING_PRICE);\n  }\n}\n",
    "sourcePath": "/Users/vincent/Documents/Consensys/rainbow-token/contracts/mocks/RainbowTokenMock.sol",
    "compiler": {
        "name": "solc",
        "version": "0.4.24+commit.e67f0147.Emscripten.clang"
    },
    "schemaVersion": "2.0.1",
    "updatedAt": "2018-12-03T18:31:54.748Z"
}