{
  "contractName": "RainbowToken",
  "abi": [
    {
      "constant": true,
      "inputs": [],
      "name": "DEFAULT_BLENDING_FEE",
      "outputs": [
        {
          "name": "",
          "type": "uint256"
        }
      ],
      "payable": false,
      "stateMutability": "view",
      "type": "function"
    },
    {
      "constant": true,
      "inputs": [],
      "name": "PLAYING_FEE",
      "outputs": [
        {
          "name": "",
          "type": "uint256"
        }
      ],
      "payable": false,
      "stateMutability": "view",
      "type": "function"
    },
    {
      "constant": true,
      "inputs": [],
      "name": "gameOver",
      "outputs": [
        {
          "name": "",
          "type": "bool"
        }
      ],
      "payable": false,
      "stateMutability": "view",
      "type": "function"
    },
    {
      "constant": true,
      "inputs": [],
      "name": "targetColor",
      "outputs": [
        {
          "name": "r",
          "type": "uint256"
        },
        {
          "name": "g",
          "type": "uint256"
        },
        {
          "name": "b",
          "type": "uint256"
        }
      ],
      "payable": false,
      "stateMutability": "view",
      "type": "function"
    },
    {
      "inputs": [
        {
          "name": "_r",
          "type": "int256"
        },
        {
          "name": "_g",
          "type": "int256"
        },
        {
          "name": "_b",
          "type": "int256"
        }
      ],
      "payable": false,
      "stateMutability": "nonpayable",
      "type": "constructor"
    },
    {
      "anonymous": false,
      "inputs": [
        {
          "indexed": true,
          "name": "player",
          "type": "address"
        },
        {
          "indexed": false,
          "name": "r",
          "type": "uint256"
        },
        {
          "indexed": false,
          "name": "g",
          "type": "uint256"
        },
        {
          "indexed": false,
          "name": "b",
          "type": "uint256"
        }
      ],
      "name": "PlayerCreated",
      "type": "event"
    },
    {
      "anonymous": false,
      "inputs": [
        {
          "indexed": true,
          "name": "player",
          "type": "address"
        },
        {
          "indexed": false,
          "name": "r",
          "type": "uint256"
        },
        {
          "indexed": false,
          "name": "g",
          "type": "uint256"
        },
        {
          "indexed": false,
          "name": "b",
          "type": "uint256"
        }
      ],
      "name": "TokenBlended",
      "type": "event"
    },
    {
      "anonymous": false,
      "inputs": [
        {
          "indexed": true,
          "name": "player",
          "type": "address"
        },
        {
          "indexed": false,
          "name": "price",
          "type": "uint256"
        }
      ],
      "name": "BlendingPriceSet",
      "type": "event"
    },
    {
      "anonymous": false,
      "inputs": [
        {
          "indexed": true,
          "name": "player",
          "type": "address"
        }
      ],
      "name": "PlayerWon",
      "type": "event"
    },
    {
      "constant": true,
      "inputs": [],
      "name": "getPlayers",
      "outputs": [
        {
          "name": "",
          "type": "address[]"
        }
      ],
      "payable": false,
      "stateMutability": "view",
      "type": "function"
    },
    {
      "constant": true,
      "inputs": [
        {
          "name": "_player",
          "type": "address"
        }
      ],
      "name": "getToken",
      "outputs": [
        {
          "name": "",
          "type": "uint256[7]"
        }
      ],
      "payable": false,
      "stateMutability": "view",
      "type": "function"
    },
    {
      "constant": true,
      "inputs": [
        {
          "name": "_player",
          "type": "address"
        }
      ],
      "name": "isPlayer",
      "outputs": [
        {
          "name": "",
          "type": "bool"
        }
      ],
      "payable": false,
      "stateMutability": "view",
      "type": "function"
    },
    {
      "constant": true,
      "inputs": [],
      "name": "isGameOver",
      "outputs": [
        {
          "name": "",
          "type": "bool"
        }
      ],
      "payable": false,
      "stateMutability": "view",
      "type": "function"
    },
    {
      "constant": false,
      "inputs": [],
      "name": "play",
      "outputs": [
        {
          "name": "",
          "type": "bool"
        }
      ],
      "payable": true,
      "stateMutability": "payable",
      "type": "function"
    },
    {
      "constant": false,
      "inputs": [
        {
          "name": "_price",
          "type": "uint256"
        }
      ],
      "name": "setBlendingPrice",
      "outputs": [
        {
          "name": "",
          "type": "bool"
        }
      ],
      "payable": false,
      "stateMutability": "nonpayable",
      "type": "function"
    },
    {
      "constant": false,
      "inputs": [
        {
          "name": "_blendingPlayer",
          "type": "address"
        },
        {
          "name": "_blendingPrice",
          "type": "uint256"
        },
        {
          "name": "_blendingR",
          "type": "uint256"
        },
        {
          "name": "_blendingG",
          "type": "uint256"
        },
        {
          "name": "_blendingB",
          "type": "uint256"
        }
      ],
      "name": "blend",
      "outputs": [
        {
          "name": "",
          "type": "bool"
        }
      ],
      "payable": true,
      "stateMutability": "payable",
      "type": "function"
    },
    {
      "constant": false,
      "inputs": [],
      "name": "blend",
      "outputs": [
        {
          "name": "",
          "type": "bool"
        }
      ],
      "payable": true,
      "stateMutability": "payable",
      "type": "function"
    },
    {
      "constant": false,
      "inputs": [],
      "name": "claimVictory",
      "outputs": [
        {
          "name": "",
          "type": "bool"
        }
      ],
      "payable": false,
      "stateMutability": "nonpayable",
      "type": "function"
    }
  ],
  "bytecode": "0x60806040526000600360006101000a81548160ff02191690831515021790555034801561002b57600080fd5b506040516060806118b28339810180604052810190808051906020019092919080519060200190929190805190602001909291905050506060604051908101604052808481526020018381526020018281525060008082015181600001556020820151816001015560408201518160020155905050505050611800806100b26000396000f3006080604052600436106100c5576000357c0100000000000000000000000000000000000000000000000000000000900463ffffffff16806309c95e10146100ca5780630e04a7d8146101255780631abddf3314610154578063413fc5dc1461018357806359770438146101ae5780637a9ff7e21461022d5780638b5b9ccc146102a35780638d0722151461030f57806393e84cd91461033a578063b78f0e641461035c578063bdb337d1146103a1578063ca5e4afe146103d0578063cc7dc39e146103f2575b600080fd5b3480156100d657600080fd5b5061010b600480360381019080803573ffffffffffffffffffffffffffffffffffffffff16906020019092919050505061042b565b604051808215151515815260200191505060405180910390f35b34801561013157600080fd5b5061013a610479565b604051808215151515815260200191505060405180910390f35b34801561016057600080fd5b50610169610490565b604051808215151515815260200191505060405180910390f35b34801561018f57600080fd5b506101986106f0565b6040518082815260200191505060405180910390f35b3480156101ba57600080fd5b506101ef600480360381019080803573ffffffffffffffffffffffffffffffffffffffff1690602001909291905050506106fb565b6040518082600760200280838360005b8381101561021a5780820151818401526020810190506101ff565b5050505090500191505060405180910390f35b610289600480360381019080803573ffffffffffffffffffffffffffffffffffffffff16906020019092919080359060200190929190803590602001909291908035906020019092919080359060200190929190505050610838565b604051808215151515815260200191505060405180910390f35b3480156102af57600080fd5b506102b8610da6565b6040518080602001828103825283818151815260200191508051906020019060200280838360005b838110156102fb5780820151818401526020810190506102e0565b505050509050019250505060405180910390f35b34801561031b57600080fd5b50610324610e34565b6040518082815260200191505060405180910390f35b610342610e3f565b604051808215151515815260200191505060405180910390f35b34801561036857600080fd5b5061038760048036038101908080359060200190929190505050611283565b604051808215151515815260200191505060405180910390f35b3480156103ad57600080fd5b506103b66114bb565b604051808215151515815260200191505060405180910390f35b6103d86114ce565b604051808215151515815260200191505060405180910390f35b3480156103fe57600080fd5b50610407611727565b60405180848152602001838152602001828152602001935050505060405180910390f35b600080600460008473ffffffffffffffffffffffffffffffffffffffff1673ffffffffffffffffffffffffffffffffffffffff16815260200190815260200160002060060154119050919050565b6000600360009054906101000a900460ff16905090565b600061049a61173f565b6104a33361042b565b1515610517576040517f08c379a00000000000000000000000000000000000000000000000000000000081526004018080602001828103825260148152602001807f596f7520617265206e6f74206120706c6179657200000000000000000000000081525060200191505060405180910390fd5b600460003373ffffffffffffffffffffffffffffffffffffffff1673ffffffffffffffffffffffffffffffffffffffff1681526020019081526020016000206000016060604051908101604052908160008201548152602001600182015481526020016002820154815250509050600080015481600001511480156105a457506000600101548160200151145b80156105b857506000600201548160400151145b151561062c576040517f08c379a000000000000000000000000000000000000000000000000000000000815260040180806020018281038252600a8152602001807f4e6f742077696e6e65720000000000000000000000000000000000000000000081525060200191505060405180910390fd5b3373ffffffffffffffffffffffffffffffffffffffff166108fc3073ffffffffffffffffffffffffffffffffffffffff16319081150290604051600060405180830381858888f19350505050158015610689573d6000803e3d6000fd5b506001600360006101000a81548160ff0219169083151502179055503373ffffffffffffffffffffffffffffffffffffffff167f970f935ee01502df35da11db45c29bdd97d8f41d5a0640c1dc3bd96c67f9798760405160405180910390a2600191505090565b662386f26fc1000081565b610703611761565b61070b611784565b600460008473ffffffffffffffffffffffffffffffffffffffff1673ffffffffffffffffffffffffffffffffffffffff16815260200190815260200160002060606040519081016040529081600082016060604051908101604052908160008201548152602001600182015481526020016002820154815250508152602001600382016060604051908101604052908160008201548152602001600182015481526020016002820154815250508152602001600682015481525050905060e0604051908101604052808260000151600001518152602001826000015160200151815260200182600001516040015181526020018260200151600001518152602001826020015160200151815260200182602001516040015181526020018260400151815250915050919050565b6000610842611784565b600061084c610479565b1515156108c1576040517f08c379a000000000000000000000000000000000000000000000000000000000815260040180806020018281038252600c8152602001807f47616d65206973206f766572000000000000000000000000000000000000000081525060200191505060405180910390fd5b6108ca3361042b565b151561093e576040517f08c379a00000000000000000000000000000000000000000000000000000000081526004018080602001828103825260148152602001807f596f7520617265206e6f74206120706c6179657200000000000000000000000081525060200191505060405180910390fd5b6109478861042b565b15156109bb576040517f08c379a000000000000000000000000000000000000000000000000000000000815260040180806020018281038252601c8152602001807f596f75206d75737420626c656e642077697468206120706c617965720000000081525060200191505060405180910390fd5b600460008973ffffffffffffffffffffffffffffffffffffffff1673ffffffffffffffffffffffffffffffffffffffff16815260200190815260200160002060606040519081016040529081600082016060604051908101604052908160008201548152602001600182015481526020016002820154815250508152602001600382016060604051908101604052908160008201548152602001600182015481526020016002820154815250508152602001600682015481525050915081604001518710151515610af4576040517f08c379a000000000000000000000000000000000000000000000000000000000815260040180806020018281038252601c8152602001807f426c656e64696e672070726963652068617320696e637265617365640000000081525060200191505060405180910390fd5b81604001513410151515610b70576040517f08c379a000000000000000000000000000000000000000000000000000000000815260040180806020018281038252601c8152602001807f4e6f7420656e6f75676874207472616e7366657265642045746865720000000081525060200191505060405180910390fd5b81600001516000015186148015610b8e575081600001516020015185145b8015610ba1575081600001516040015184145b1515610c15576040517f08c379a000000000000000000000000000000000000000000000000000000000815260040180806020018281038252601a8152602001807f426c656e64696e6720636f6c6f7220686173206368616e67656400000000000081525060200191505060405180910390fd5b600460003373ffffffffffffffffffffffffffffffffffffffff1673ffffffffffffffffffffffffffffffffffffffff16815260200190815260200160002090506002826000015160000151826000016000015401811515610c7357fe5b0481600001600001819055506002826000015160200151826000016001015401811515610c9c57fe5b0481600001600101819055506002826000015160400151826000016002015401811515610cc557fe5b0481600001600201819055508773ffffffffffffffffffffffffffffffffffffffff166108fc600234811515610cf757fe5b049081150290604051600060405180830381858888f19350505050158015610d23573d6000803e3d6000fd5b503373ffffffffffffffffffffffffffffffffffffffff167f5078c587a9932358239e31ea88ae2d84b8cf7c9e44af81d1fd3a4f4c8c5f51f182600001600001548360000160010154846000016002015460405180848152602001838152602001828152602001935050505060405180910390a260019250505095945050505050565b60606005805480602002602001604051908101604052809291908181526020018280548015610e2a57602002820191906000526020600020905b8160009054906101000a900473ffffffffffffffffffffffffffffffffffffffff1673ffffffffffffffffffffffffffffffffffffffff1681526020019060010190808311610de0575b5050505050905090565b66038d7ea4c6800081565b600080610e4a61173f565b610e52610479565b151515610ec7576040517f08c379a000000000000000000000000000000000000000000000000000000000815260040180806020018281038252600c8152602001807f47616d65206973206f766572000000000000000000000000000000000000000081525060200191505060405180910390fd5b610ed03361042b565b151515610f45576040517f08c379a00000000000000000000000000000000000000000000000000000000081526004018080602001828103825260108152602001807f416c7265616479206120706c617965720000000000000000000000000000000081525060200191505060405180910390fd5b66038d7ea4c680003410151515610fc4576040517f08c379a000000000000000000000000000000000000000000000000000000000815260040180806020018281038252601e8152602001807f506c6179696e67206665652020686173206e6f74206265656e2070616964000081525060200191505060405180910390fd5b3343604051602001808373ffffffffffffffffffffffffffffffffffffffff1673ffffffffffffffffffffffffffffffffffffffff166c01000000000000000000000000028152601401828152602001925050506040516020818303038152906040526040518082805190602001908083835b60208310151561105c5780518252602082019150602081019050602083039250611037565b6001836020036101000a0380198251168184511680821785525050505050509050019150506040518091039020600190049150606060405190810160405280600060018516116110ad5760006110b0565b60ff5b8152602001600060028516116110c75760006110ca565b60ff5b8152602001600060048516116110e15760006110e4565b60ff5b815250905060053390806001815401808255809150509060018203906000526020600020016000909192909190916101000a81548173ffffffffffffffffffffffffffffffffffffffff021916908373ffffffffffffffffffffffffffffffffffffffff16021790555050606060405190810160405280828152602001828152602001662386f26fc10000815250600460003373ffffffffffffffffffffffffffffffffffffffff1673ffffffffffffffffffffffffffffffffffffffff16815260200190815260200160002060008201518160000160008201518160000155602082015181600101556040820151816002015550506020820151816003016000820151816000015560208201518160010155604082015181600201555050604082015181600601559050503373ffffffffffffffffffffffffffffffffffffffff167fdbd350b0fedfda470deaaf32f91e1578f2e0a1eca99a0f2c8435b6595dcfd29482600001518360200151846040015160405180848152602001838152602001828152602001935050505060405180910390a260019250505090565b600061128e3361042b565b1515611302576040517f08c379a00000000000000000000000000000000000000000000000000000000081526004018080602001828103825260148152602001807f596f7520617265206e6f74206120706c6179657200000000000000000000000081525060200191505060405180910390fd5b61130a610479565b15151561137f576040517f08c379a000000000000000000000000000000000000000000000000000000000815260040180806020018281038252600c8152602001807f47616d65206973206f766572000000000000000000000000000000000000000081525060200191505060405180910390fd5b60008211151561141d576040517f08c379a00000000000000000000000000000000000000000000000000000000081526004018080602001828103825260218152602001807f426c656e64696e672070726963652073686f756c6420626520706f736974697681526020017f650000000000000000000000000000000000000000000000000000000000000081525060400191505060405180910390fd5b81600460003373ffffffffffffffffffffffffffffffffffffffff1673ffffffffffffffffffffffffffffffffffffffff168152602001908152602001600020600601819055503373ffffffffffffffffffffffffffffffffffffffff167ffecfb8aff64c04d15e06b14626385afa23fbd69bb0ad5744e9de7f8efca84ce0836040518082815260200191505060405180910390a260019050919050565b600360009054906101000a900460ff1681565b6000806114da3361042b565b151561154e576040517f08c379a00000000000000000000000000000000000000000000000000000000081526004018080602001828103825260148152602001807f596f7520617265206e6f74206120706c6179657200000000000000000000000081525060200191505060405180910390fd5b662386f26fc1000034101515156115f3576040517f08c379a00000000000000000000000000000000000000000000000000000000081526004018080602001828103825260268152602001807f44656661756c7420626c656e64696e672066656520686173206e6f742062656581526020017f6e2070616964000000000000000000000000000000000000000000000000000081525060400191505060405180910390fd5b600460003373ffffffffffffffffffffffffffffffffffffffff1673ffffffffffffffffffffffffffffffffffffffff16815260200190815260200160002090506002816003016000015482600001600001540181151561165057fe5b0481600001600001819055506002816003016001015482600001600101540181151561167857fe5b048160000160010181905550600281600301600201548260000160020154018115156116a057fe5b0481600001600201819055503373ffffffffffffffffffffffffffffffffffffffff167f5078c587a9932358239e31ea88ae2d84b8cf7c9e44af81d1fd3a4f4c8c5f51f182600001600001548360000160010154846000016002015460405180848152602001838152602001828152602001935050505060405180910390a2600191505090565b60008060000154908060010154908060020154905083565b6060604051908101604052806000815260200160008152602001600081525090565b60e060405190810160405280600790602082028038833980820191505090505090565b60e0604051908101604052806117986117b2565b81526020016117a56117b2565b8152602001600081525090565b60606040519081016040528060008152602001600081526020016000815250905600a165627a7a72305820ce2b57c6aaad956aa947d706575faf393f4e286344e9183212ad70919c80c4ec0029",
  "source": "pragma solidity ^0.4.24;\n\n/**\n * @title RainbowToken\n *\n * @dev Rainbow Token contract\n * Rainbow Token is a game in which players own a colored token. \n * Players can change their token color by blending it with another player tokens.\n * Players are required to pay some fee to perform action in the game \n * Players should try to give their token a target color that is set when deploying game contract\n *\n * Rules:\n * 1. Playing:To start playing a player needs to pay 0.1 ETH fee to the RainbowToken contract\n * 2. Blending: When blending only the color of the player requesting the blend is modified\n *    To blend their token with another player token players must pay a blending price that is set by the player\n *    Half of the amount paid is given to the blending player the other half is given to the Rainbow Token contract\n * 3. Auto Blending: Players can change their token color by blending with their own default color that can be derived from player's address\n *    To auto blend a user should pay 0.01 ETH to Rainbow Token contract\n * 4. Game winner is\n *    - first player to get a token of a target color\n *    - In case the game is over, game winner is the one with minimal score (calculated has the distance of its token color to target color)\n *    If a player successfully claims win, she/he get sall ETH that have been transfered to the Rainbow Token contract during the game\n */\ncontract RainbowToken {\n\n  struct Color {\n    uint r;\n    uint g;\n    uint b;\n  }\n\n  struct Token {\n    Color color;\n    Color defaultColor;\n    uint blendingPrice;\n  }\n\n  /* Fee */\n  uint constant public PLAYING_FEE = 1000000000000000;\n  uint constant public DEFAULT_BLENDING_FEE = 10000000000000000;\n\n  /* Target color to win game */\n  Color public targetColor;\n\n  /* Boolean indicating if a player won the game */\n  bool public gameOver = false;\n\n  /* Mapping containing rainbow tokens */\n  mapping(address => Token) tokens;\n\n  /* Array listing players */\n  address[] players;\n\n  /* Throw if the sender is not a player */\n  modifier onlyPlayer() {\n    require(isPlayer(msg.sender), 'You are not a player');\n    _;\n  }\n\n  /* Throw if game is over */\n  modifier gameInProgress() {\n    require(!isGameOver(), 'Game is over');\n    _;\n  }\n\n  /* Emitted each time a player join the game */\n  event PlayerCreated(\n    address indexed player,\n    uint r,\n    uint g,\n    uint b\n  );\n\n  /* Emitted each time a blending is realized */\n  event TokenBlended(\n    address indexed player,\n    uint r,\n    uint g,\n    uint b\n  );\n\n  /* Emitted each time a player modifies its blending price */\n  event BlendingPriceSet(\n    address indexed player,\n    uint price\n  );\n\n  /* Emitted when a player has won */\n  event PlayerWon(\n    address indexed player\n  );\n\n  /**\n   * @dev Start a new Rainbow Token game\n   * @param _r Target color Red value\n   * @param _g Target color Green value\n   * @param _b Target color Blue value\n   */\n  constructor(\n    int _r,\n    int _g,\n    int _b\n  )\n    public\n  { \n    // Set target color\n    targetColor = Color(uint(_r), uint(_g), uint(_b));\n  }\n\n  /**\n   * @dev Get players\n   */\n  function getPlayers()\n    public\n    view\n    returns (address[])\n  {\n    return players;\n  }\n\n  /**\n   * @dev Get token information\n   * @param _player Player address\n   */\n  function getToken(\n    address _player\n  )\n    public\n    view\n    returns (uint[7])\n  {\n    Token memory token = tokens[_player];\n    return [\n      token.color.r, \n      token.color.g, \n      token.color.b, \n      token.defaultColor.r, \n      token.defaultColor.g, \n      token.defaultColor.b, \n      token.blendingPrice\n    ];\n  }\n\n  /**\n   * @dev Check if a player exist\n   * @param _player Player address\n   */\n  function isPlayer(\n    address _player\n  )\n    public\n    view\n    returns (bool)\n  {\n    // Blending price can not be set to 0\n    return tokens[_player].blendingPrice > 0;\n  }\n\n  /**\n   * @dev Check if game is over\n   */\n  function isGameOver()\n    public\n    view\n    returns (bool)\n  {\n    return gameOver;\n  }\n\n  /**\n   * @dev Register transaction sender has a new player\n   */\n  function play()\n    public\n    payable\n    gameInProgress\n    returns (bool)\n  {\n    // The sender must not be already a player\n    require(!isPlayer(msg.sender), 'Already a player');\n\n    // Sender must have paid gaming to start playing\n    require(msg.value >= PLAYING_FEE, 'Playing fee  has not been paid');\n\n    // Compute player default color (try to make it tough for a player to anticipate default color)\n    uint defaultColorSeed = uint(keccak256(abi.encodePacked(msg.sender, block.number)));\n    Color memory defaultColor = Color(\n        ((defaultColorSeed & 1) > 0) ? uint(255): 0, \n        ((defaultColorSeed & 2) > 0) ? uint(255): 0, \n        ((defaultColorSeed & 4) > 0) ? uint(255): 0\n    );\n\n    // Register player\n    players.push(msg.sender);\n    tokens[msg.sender] = Token(defaultColor, defaultColor, DEFAULT_BLENDING_FEE);\n\n    // Emit event\n    emit PlayerCreated(\n      msg.sender,\n      defaultColor.r, \n      defaultColor.g, \n      defaultColor.b\n    );\n\n    return true;\n  }\n\n  /**\n   * @dev Set blending price\n   * @param _price New price (must be strictly positive)\n   */\n  function setBlendingPrice(\n    uint _price\n  )\n     public\n     onlyPlayer\n     gameInProgress\n     returns (bool)\n  {\n    // Blending price must be positive\n    require(_price > 0, 'Blending price should be positive');\n\n    // Set price\n    tokens[msg.sender].blendingPrice = _price;\n\n    // Emit event\n    emit BlendingPriceSet(\n      msg.sender, \n      _price\n    );\n\n    return true;\n  }\n\n  /**\n   * @dev Blend player token with another player token\n   * @param _blendingPlayer Player to blend with\n   * @param _blendingPrice Blending token price\n   * @param _blendingR Blending token Red value\n   * @param _blendingG Blending token Green value\n   * @param _blendingB Blending token Blue value\n   */\n  function blend(\n    address _blendingPlayer,\n    uint _blendingPrice,\n    uint _blendingR,\n    uint _blendingG,\n    uint _blendingB\n  )\n    public\n    payable\n    gameInProgress\n    onlyPlayer\n    returns (bool)\n  { \n    // Must blend with a player\n    require(isPlayer(_blendingPlayer), 'You must blend with a player');\n\n    // Get token of player to blend with\n    Token memory blendingToken = tokens[_blendingPlayer];\n\n    // Ensure blending token price has not increased while transaction was pending\n    require(_blendingPrice >= blendingToken.blendingPrice, 'Blending price has increased');\n\n    // The sender must have transfer enough value to blend\n    require(msg.value >= blendingToken.blendingPrice, 'Not enought transfered Ether');\n\n    // Ensure blending token color has not been modified while transaction was pending\n    require(_blendingR == blendingToken.color.r && _blendingG == blendingToken.color.g && _blendingB == blendingToken.color.b, 'Blending color has changed');\n\n    // Blend current player token\n    Token storage token = tokens[msg.sender];\n    token.color.r = (token.color.r + blendingToken.color.r) / 2;\n    token.color.g = (token.color.g + blendingToken.color.g) / 2;\n    token.color.b = (token.color.b + blendingToken.color.b) / 2;\n\n    // Pay blending player\n    _blendingPlayer.transfer(msg.value / 2);\n\n    // Emit event\n    emit TokenBlended(\n      msg.sender,\n      token.color.r,\n      token.color.g,\n      token.color.b\n    );\n\n    return true;\n  }\n\n  /**\n   * @dev Blend with default token color\n   */\n  function blend()\n    public\n    payable\n    onlyPlayer\n    returns (bool)\n  {\n    // Player needs to transfer minimum blending price\n    require(msg.value >= DEFAULT_BLENDING_FEE, 'Default blending fee has not been paid');\n\n    // Get current player token\n    Token storage token = tokens[msg.sender];\n\n    // Blend player token with default color\n    token.color.r = (token.color.r + token.defaultColor.r) / 2;\n    token.color.g = (token.color.g + token.defaultColor.g) / 2;\n    token.color.b = (token.color.b + token.defaultColor.b) / 2;\n\n    // Emit event\n    emit TokenBlended(\n      msg.sender,\n      token.color.r,\n      token.color.g,\n      token.color.b\n    );\n\n    return true;\n  }\n\n  /**\n   * @dev Current player claim victory\n   */\n  function claimVictory()\n    public\n    onlyPlayer\n    returns (bool)\n  {\n    // Test player token has a winning color\n    Color memory color = tokens[msg.sender].color;\n    require(color.r == targetColor.r && color.g == targetColor.g && color.b == targetColor.b, 'Not winner');\n\n    // Transfer winning prize\n    msg.sender.transfer(address(this).balance);\n\n    // End game\n    gameOver = true;\n\n    // Emit event\n    emit PlayerWon(\n      msg.sender\n    );\n\n    return true;\n  } \n}\n",
  "sourcePath": "/home/nvalera/workspace/misc/rainbow-token/contracts/RainbowToken.sol",
  "compiler": {
    "name": "solc",
    "version": "0.4.24+commit.e67f0147.Emscripten.clang"
  },
  "schemaVersion": "2.0.1",
  "updatedAt": "2018-09-08T13:05:32.636Z"
}