{
  "contractName": "RainbowToken",
  "abi": [
    {
      "constant": true,
      "inputs": [],
      "name": "endTime",
      "outputs": [
        {
          "name": "",
          "type": "uint256"
        }
      ],
      "payable": false,
      "stateMutability": "view",
      "type": "function"
    },
    {
      "constant": true,
      "inputs": [],
      "name": "DEFAULT_BLENDING_PRICE",
      "outputs": [
        {
          "name": "",
          "type": "uint256"
        }
      ],
      "payable": false,
      "stateMutability": "view",
      "type": "function"
    },
    {
      "constant": true,
      "inputs": [],
      "name": "targetColor",
      "outputs": [
        {
          "name": "r",
          "type": "uint256"
        },
        {
          "name": "g",
          "type": "uint256"
        },
        {
          "name": "b",
          "type": "uint256"
        }
      ],
      "payable": false,
      "stateMutability": "view",
      "type": "function"
    },
    {
      "constant": true,
      "inputs": [
        {
          "name": "",
          "type": "uint256"
        }
      ],
      "name": "players",
      "outputs": [
        {
          "name": "",
          "type": "address"
        }
      ],
      "payable": false,
      "stateMutability": "view",
      "type": "function"
    },
    {
      "inputs": [
        {
          "name": "_r",
          "type": "uint256"
        },
        {
          "name": "_g",
          "type": "uint256"
        },
        {
          "name": "_b",
          "type": "uint256"
        },
        {
          "name": "_time",
          "type": "uint256"
        }
      ],
      "payable": false,
      "stateMutability": "nonpayable",
      "type": "constructor"
    },
    {
      "anonymous": false,
      "inputs": [
        {
          "indexed": true,
          "name": "player",
          "type": "address"
        }
      ],
      "name": "PlayerCreated",
      "type": "event"
    },
    {
      "anonymous": false,
      "inputs": [
        {
          "indexed": true,
          "name": "player",
          "type": "address"
        },
        {
          "indexed": false,
          "name": "r",
          "type": "uint256"
        },
        {
          "indexed": false,
          "name": "g",
          "type": "uint256"
        },
        {
          "indexed": false,
          "name": "b",
          "type": "uint256"
        }
      ],
      "name": "TokenBlended",
      "type": "event"
    },
    {
      "anonymous": false,
      "inputs": [
        {
          "indexed": true,
          "name": "player",
          "type": "address"
        },
        {
          "indexed": false,
          "name": "price",
          "type": "uint256"
        }
      ],
      "name": "BlendingPriceSet",
      "type": "event"
    },
    {
      "anonymous": false,
      "inputs": [
        {
          "indexed": true,
          "name": "player",
          "type": "address"
        }
      ],
      "name": "PlayerWon",
      "type": "event"
    },
    {
      "constant": true,
      "inputs": [],
      "name": "getPlayers",
      "outputs": [
        {
          "name": "",
          "type": "address[]"
        }
      ],
      "payable": false,
      "stateMutability": "view",
      "type": "function"
    },
    {
      "constant": true,
      "inputs": [
        {
          "name": "_player",
          "type": "address"
        }
      ],
      "name": "getToken",
      "outputs": [
        {
          "name": "",
          "type": "uint256"
        },
        {
          "name": "",
          "type": "uint256"
        },
        {
          "name": "",
          "type": "uint256"
        },
        {
          "name": "",
          "type": "uint256"
        },
        {
          "name": "",
          "type": "uint256"
        },
        {
          "name": "",
          "type": "uint256"
        },
        {
          "name": "",
          "type": "uint256"
        }
      ],
      "payable": false,
      "stateMutability": "view",
      "type": "function"
    },
    {
      "constant": true,
      "inputs": [],
      "name": "isGameOver",
      "outputs": [
        {
          "name": "",
          "type": "bool"
        }
      ],
      "payable": false,
      "stateMutability": "view",
      "type": "function"
    },
    {
      "constant": true,
      "inputs": [
        {
          "name": "_player",
          "type": "address"
        }
      ],
      "name": "isPlayer",
      "outputs": [
        {
          "name": "",
          "type": "bool"
        }
      ],
      "payable": false,
      "stateMutability": "view",
      "type": "function"
    },
    {
      "constant": false,
      "inputs": [],
      "name": "play",
      "outputs": [
        {
          "name": "",
          "type": "bool"
        }
      ],
      "payable": true,
      "stateMutability": "payable",
      "type": "function"
    },
    {
      "constant": false,
      "inputs": [
        {
          "name": "_price",
          "type": "uint256"
        }
      ],
      "name": "setBlendingPrice",
      "outputs": [
        {
          "name": "",
          "type": "bool"
        }
      ],
      "payable": false,
      "stateMutability": "nonpayable",
      "type": "function"
    },
    {
      "constant": false,
      "inputs": [],
      "name": "blend",
      "outputs": [
        {
          "name": "",
          "type": "bool"
        }
      ],
      "payable": true,
      "stateMutability": "payable",
      "type": "function"
    },
    {
      "constant": false,
      "inputs": [
        {
          "name": "_blendingPlayer",
          "type": "address"
        },
        {
          "name": "_blendingPrice",
          "type": "uint256"
        },
        {
          "name": "_blendingR",
          "type": "uint256"
        },
        {
          "name": "_blendingG",
          "type": "uint256"
        },
        {
          "name": "_blendingB",
          "type": "uint256"
        }
      ],
      "name": "blend",
      "outputs": [
        {
          "name": "",
          "type": "bool"
        }
      ],
      "payable": true,
      "stateMutability": "payable",
      "type": "function"
    },
    {
      "constant": false,
      "inputs": [],
      "name": "claimVictory",
      "outputs": [
        {
          "name": "",
          "type": "bool"
        }
      ],
      "payable": false,
      "stateMutability": "nonpayable",
      "type": "function"
    },
    {
      "constant": true,
      "inputs": [
        {
          "name": "_player",
          "type": "address"
        }
      ],
      "name": "computeScore",
      "outputs": [
        {
          "name": "",
          "type": "int256"
        }
      ],
      "payable": false,
      "stateMutability": "view",
      "type": "function"
    },
    {
      "constant": true,
      "inputs": [],
      "name": "computeWinningScore",
      "outputs": [
        {
          "name": "",
          "type": "int256"
        }
      ],
      "payable": false,
      "stateMutability": "view",
      "type": "function"
    }
  ],
  "bytecode": "0x608060405234801561001057600080fd5b50604051608080611ab98339810180604052810190808051906020019092919080519060200190929190805190602001909291908051906020019092919050505061010084108015610063575061010083105b8015610070575061010082105b15156100e4576040517f08c379a00000000000000000000000000000000000000000000000000000000081526004018080602001828103825260198152602001807f54617267657420636f6c6f72206973206e6f742076616c69640000000000000081525060200191505060405180910390fd5b60606040519081016040528085815260200184815260200183815250600160008201518160000155602082015181600101556040820151816002015590505060018102420160008190555050505050611977806101426000396000f3006080604052600436106100db576000357c0100000000000000000000000000000000000000000000000000000000900463ffffffff16806309c95e10146100e05780630e04a7d81461013b57806316765ae41461016a5780631abddf33146101955780633197cbb6146101c457806359770438146101ef578063723c4962146102705780637a9ff7e21461029b5780638b5b9ccc1461031157806393e84cd91461037d578063b78f0e641461039f578063c5d46dfc146103e4578063ca5e4afe1461043b578063cc7dc39e1461045d578063f71d96cb14610496575b600080fd5b3480156100ec57600080fd5b50610121600480360381019080803573ffffffffffffffffffffffffffffffffffffffff169060200190929190505050610503565b604051808215151515815260200191505060405180910390f35b34801561014757600080fd5b50610150610551565b604051808215151515815260200191505060405180910390f35b34801561017657600080fd5b5061017f61055c565b6040518082815260200191505060405180910390f35b3480156101a157600080fd5b506101aa6105dc565b604051808215151515815260200191505060405180910390f35b3480156101d057600080fd5b506101d96107a9565b6040518082815260200191505060405180910390f35b3480156101fb57600080fd5b50610230600480360381019080803573ffffffffffffffffffffffffffffffffffffffff1690602001909291905050506107af565b6040518088815260200187815260200186815260200185815260200184815260200183815260200182815260200197505050505050505060405180910390f35b34801561027c57600080fd5b506102856108d4565b6040518082815260200191505060405180910390f35b6102f7600480360381019080803573ffffffffffffffffffffffffffffffffffffffff169060200190929190803590602001909291908035906020019092919080359060200190929190803590602001909291905050506108df565b604051808215151515815260200191505060405180910390f35b34801561031d57600080fd5b50610326610dd0565b6040518080602001828103825283818151815260200191508051906020019060200280838360005b8381101561036957808201518184015260208101905061034e565b505050509050019250505060405180910390f35b610385610e5e565b604051808215151515815260200191505060405180910390f35b3480156103ab57600080fd5b506103ca600480360381019080803590602001909291905050506112bd565b604051808215151515815260200191505060405180910390f35b3480156103f057600080fd5b50610425600480360381019080803573ffffffffffffffffffffffffffffffffffffffff1690602001909291905050506114f5565b6040518082815260200191505060405180910390f35b6104436115d3565b604051808215151515815260200191505060405180910390f35b34801561046957600080fd5b50610472611883565b60405180848152602001838152602001828152602001935050505060405180910390f35b3480156104a257600080fd5b506104c16004803603810190808035906020019092919050505061189b565b604051808273ffffffffffffffffffffffffffffffffffffffff1673ffffffffffffffffffffffffffffffffffffffff16815260200191505060405180910390f35b600080600460008473ffffffffffffffffffffffffffffffffffffffff1673ffffffffffffffffffffffffffffffffffffffff16815260200190815260200160002060060154119050919050565b600080544211905090565b60008060008062ffffff92505b6005805490508210156105d3576105b860058381548110151561058857fe5b9060005260206000200160009054906101000a900473ffffffffffffffffffffffffffffffffffffffff166114f5565b9050828112156105c6578092505b8180600101925050610569565b82935050505090565b6000806105e833610503565b151561065c576040517f08c379a00000000000000000000000000000000000000000000000000000000081526004018080602001828103825260148152602001807f596f7520617265206e6f74206120706c6179657200000000000000000000000081525060200191505060405180910390fd5b610665336114f5565b9050600081148061068c5750610679610551565b801561068b575061068861055c565b81145b5b1515610700576040517f08c379a00000000000000000000000000000000000000000000000000000000081526004018080602001828103825260128152602001807f596f7520617265206e6f742077696e6e6572000000000000000000000000000081525060200191505060405180910390fd5b3373ffffffffffffffffffffffffffffffffffffffff166108fc3073ffffffffffffffffffffffffffffffffffffffff16319081150290604051600060405180830381858888f1935050505015801561075d573d6000803e3d6000fd5b503373ffffffffffffffffffffffffffffffffffffffff167f970f935ee01502df35da11db45c29bdd97d8f41d5a0640c1dc3bd96c67f9798760405160405180910390a2600191505090565b60005481565b60008060008060008060006107c26118d9565b600460008a73ffffffffffffffffffffffffffffffffffffffff1673ffffffffffffffffffffffffffffffffffffffff1681526020019081526020016000206060604051908101604052908160008201606060405190810160405290816000820154815260200160018201548152602001600282015481525050815260200160038201606060405190810160405290816000820154815260200160018201548152602001600282015481525050815260200160068201548152505090508060000151600001518160000151602001518260000151604001518360200151600001518460200151602001518560200151604001518660400151975097509750975097509750975050919395979092949650565b662386f26fc1000081565b60006108e96118d9565b60006108f3610551565b151515610968576040517f08c379a000000000000000000000000000000000000000000000000000000000815260040180806020018281038252600c8152602001807f47616d65206973206f766572000000000000000000000000000000000000000081525060200191505060405180910390fd5b61097133610503565b15156109e5576040517f08c379a00000000000000000000000000000000000000000000000000000000081526004018080602001828103825260148152602001807f596f7520617265206e6f74206120706c6179657200000000000000000000000081525060200191505060405180910390fd5b600460008973ffffffffffffffffffffffffffffffffffffffff1673ffffffffffffffffffffffffffffffffffffffff16815260200190815260200160002060606040519081016040529081600082016060604051908101604052908160008201548152602001600182015481526020016002820154815250508152602001600382016060604051908101604052908160008201548152602001600182015481526020016002820154815250508152602001600682015481525050915081604001518710151515610b1e576040517f08c379a000000000000000000000000000000000000000000000000000000000815260040180806020018281038252601c8152602001807f426c656e64696e672070726963652068617320696e637265617365640000000081525060200191505060405180910390fd5b81604001513410151515610b9a576040517f08c379a000000000000000000000000000000000000000000000000000000000815260040180806020018281038252601c8152602001807f4e6f7420656e6f75676874207472616e7366657265642045746865720000000081525060200191505060405180910390fd5b81600001516000015186148015610bb8575081600001516020015185145b8015610bcb575081600001516040015184145b1515610c3f576040517f08c379a000000000000000000000000000000000000000000000000000000000815260040180806020018281038252601a8152602001807f426c656e64696e6720636f6c6f7220686173206368616e67656400000000000081525060200191505060405180910390fd5b600460003373ffffffffffffffffffffffffffffffffffffffff1673ffffffffffffffffffffffffffffffffffffffff16815260200190815260200160002090506002826000015160000151826000016000015401811515610c9d57fe5b0481600001600001819055506002826000015160200151826000016001015401811515610cc657fe5b0481600001600101819055506002826000015160400151826000016002015401811515610cef57fe5b0481600001600201819055508773ffffffffffffffffffffffffffffffffffffffff166108fc600234811515610d2157fe5b049081150290604051600060405180830381858888f19350505050158015610d4d573d6000803e3d6000fd5b503373ffffffffffffffffffffffffffffffffffffffff167f5078c587a9932358239e31ea88ae2d84b8cf7c9e44af81d1fd3a4f4c8c5f51f182600001600001548360000160010154846000016002015460405180848152602001838152602001828152602001935050505060405180910390a260019250505095945050505050565b60606005805480602002602001604051908101604052809291908181526020018280548015610e5457602002820191906000526020600020905b8160009054906101000a900473ffffffffffffffffffffffffffffffffffffffff1673ffffffffffffffffffffffffffffffffffffffff1681526020019060010190808311610e0a575b5050505050905090565b6000610e68611907565b610e70610551565b151515610ee5576040517f08c379a000000000000000000000000000000000000000000000000000000000815260040180806020018281038252600c8152602001807f47616d65206973206f766572000000000000000000000000000000000000000081525060200191505060405180910390fd5b610eee33610503565b151515610f63576040517f08c379a00000000000000000000000000000000000000000000000000000000081526004018080602001828103825260108152602001807f416c7265616479206120706c617965720000000000000000000000000000000081525060200191505060405180910390fd5b662386f26fc100003410151515610fe2576040517f08c379a000000000000000000000000000000000000000000000000000000000815260040180806020018281038252601d8152602001807f596f75206d7573742070617920746f20737461727420706c6179696e6700000081525060200191505060405180910390fd5b600060053373ffffffffffffffffffffffffffffffffffffffff1681151561100657fe5b0614156110335760606040519081016040528060ff8152602001600081526020016000815250905061114b565b600160053373ffffffffffffffffffffffffffffffffffffffff1681151561105757fe5b061415611084576060604051908101604052806000815260200160ff81526020016000815250905061114a565b600260053373ffffffffffffffffffffffffffffffffffffffff168115156110a857fe5b0614156110d557606060405190810160405280600081526020016000815260200160ff8152509050611149565b600360053373ffffffffffffffffffffffffffffffffffffffff168115156110f957fe5b06141561112657606060405190810160405280600081526020016000815260200160008152509050611148565b60606040519081016040528060ff815260200160ff815260200160ff81525090505b5b5b5b60053390806001815401808255809150509060018203906000526020600020016000909192909190916101000a81548173ffffffffffffffffffffffffffffffffffffffff021916908373ffffffffffffffffffffffffffffffffffffffff16021790555050606060405190810160405280828152602001828152602001662386f26fc10000815250600460003373ffffffffffffffffffffffffffffffffffffffff1673ffffffffffffffffffffffffffffffffffffffff16815260200190815260200160002060008201518160000160008201518160000155602082015181600101556040820151816002015550506020820151816003016000820151816000015560208201518160010155604082015181600201555050604082015181600601559050503373ffffffffffffffffffffffffffffffffffffffff167fb4cca19a27ce42915c3cee0cee28fc5d90969ee49f09ec71659546a63b5f7bc060405160405180910390a2600191505090565b60006112c833610503565b151561133c576040517f08c379a00000000000000000000000000000000000000000000000000000000081526004018080602001828103825260148152602001807f596f7520617265206e6f74206120706c6179657200000000000000000000000081525060200191505060405180910390fd5b611344610551565b1515156113b9576040517f08c379a000000000000000000000000000000000000000000000000000000000815260040180806020018281038252600c8152602001807f47616d65206973206f766572000000000000000000000000000000000000000081525060200191505060405180910390fd5b600082111515611457576040517f08c379a00000000000000000000000000000000000000000000000000000000081526004018080602001828103825260218152602001807f426c656e64696e672070726963652073686f756c6420626520706f736974697681526020017f650000000000000000000000000000000000000000000000000000000000000081525060400191505060405180910390fd5b81600460003373ffffffffffffffffffffffffffffffffffffffff1673ffffffffffffffffffffffffffffffffffffffff168152602001908152602001600020600601819055503373ffffffffffffffffffffffffffffffffffffffff167ffecfb8aff64c04d15e06b14626385afa23fbd69bb0ad5744e9de7f8efca84ce0836040518082815260200191505060405180910390a260019050919050565b600080600080611503611907565b60008060006001600001549650600180015495506001600201549450600460008a73ffffffffffffffffffffffffffffffffffffffff1673ffffffffffffffffffffffffffffffffffffffff16815260200190815260200160002060000160606040519081016040529081600082015481526020016001820154815260200160028201548152505093508684600001510387856000015103029250858460200151038685602001510302915084846040015103858560400151030290508082840101975050505050505050919050565b6000806115de610551565b151515611653576040517f08c379a000000000000000000000000000000000000000000000000000000000815260040180806020018281038252600c8152602001807f47616d65206973206f766572000000000000000000000000000000000000000081525060200191505060405180910390fd5b61165c33610503565b15156116d0576040517f08c379a00000000000000000000000000000000000000000000000000000000081526004018080602001828103825260148152602001807f596f7520617265206e6f74206120706c6179657200000000000000000000000081525060200191505060405180910390fd5b662386f26fc10000341015151561174f576040517f08c379a00000000000000000000000000000000000000000000000000000000081526004018080602001828103825260108152602001807f4e6f7420656e6f7567682045746865720000000000000000000000000000000081525060200191505060405180910390fd5b600460003373ffffffffffffffffffffffffffffffffffffffff1673ffffffffffffffffffffffffffffffffffffffff1681526020019081526020016000209050600281600301600001548260000160000154018115156117ac57fe5b048160000160000181905550600281600301600101548260000160010154018115156117d457fe5b048160000160010181905550600281600301600201548260000160020154018115156117fc57fe5b0481600001600201819055503373ffffffffffffffffffffffffffffffffffffffff167f5078c587a9932358239e31ea88ae2d84b8cf7c9e44af81d1fd3a4f4c8c5f51f182600001600001548360000160010154846000016002015460405180848152602001838152602001828152602001935050505060405180910390a2600191505090565b60018060000154908060010154908060020154905083565b6005818154811015156118aa57fe5b906000526020600020016000915054906101000a900473ffffffffffffffffffffffffffffffffffffffff1681565b60e0604051908101604052806118ed611929565b81526020016118fa611929565b8152602001600081525090565b6060604051908101604052806000815260200160008152602001600081525090565b60606040519081016040528060008152602001600081526020016000815250905600a165627a7a72305820ab626676bd7f14236550dbee16cc3275e5f6388eb021767d92988c23ed33451b0029",
  "source": "pragma solidity ^0.4.24;\n\n/**\n * @title RainbowToken\n *\n * @dev Rainbow Token contract\n * Rainbow Token is a game where players own a unique colored token that they should. Players can\n * change their token color by blending it with other players tokens (by avering each RGB dimension).\n * Players should try to give their token a target color that is set when deploying game contract\n *\n * Rules:\n * 1. Playing: To start playing a user needs to pay 0.01 ETH to the RainbowToken contract\n * 2. Blending: When blending only the color of the player requesting the blend is modified\n *    To blend their token with another player token players must pay a blending price that is set by the player\n *    Half of the amount paid is given to the blending player the other half is given to the Rainbow Token contract\n * 3. Auto Blending: Players can change their token color by blending with their own default color that can be derived from player's address\n *    To auto blend a user should pay 0.01 ETH to Rainbow Token contract\n * 4. Game winner is\n *    - first player to get a token of a target color\n *    - In case the game is over, game winner is the one with minimal score (calculated has the distance of its token color to target color)\n *    If a player successfully claims win, she/he get sall ETH that have been transfered to the Rainbow Token contract during the game\n */\ncontract RainbowToken {\n\n  struct Color {\n    uint r;\n    uint g;\n    uint b;\n  }\n\n  struct Token {\n    Color color;\n    Color defaultColor;\n    uint blendingPrice;\n  }\n\n  /* Default blending price is 0.01 ETH */\n  uint constant public DEFAULT_BLENDING_PRICE = 10000000000000000;\n\n  /* End time of the game */\n  uint public endTime;\n\n  /* Target color to win game */\n  Color public targetColor;\n\n  /* Tokens and players registries */\n  mapping(address => Token) private tokens;\n  address[] public players;\n\n  /* Throw if the sender is not a player */\n  modifier onlyPlayer() {\n    require(isPlayer(msg.sender), 'You are not a player');\n    _;\n  }\n\n  /* Throw if game is over */\n  modifier gameInProgress() {\n    require(!isGameOver(), 'Game is over');\n    _;\n  }\n\n  /* Emitted each time a player join the game */\n  event PlayerCreated(\n    address indexed player\n  );\n\n  /* Emitted each time a blending is realized */\n  event TokenBlended(\n    address indexed player,\n    uint r,\n    uint g,\n    uint b\n  );\n\n  /* Emitted each time a player modifies its blending price */\n  event BlendingPriceSet(\n    address indexed player,\n    uint price\n  );\n\n  /* Emitted when a player has won */\n  event PlayerWon(\n    address indexed player\n  );\n\n  /**\n   * @dev Start a new Rainbow Token game\n   * @param _r Target color Red value\n   * @param _g Target color Green value\n   * @param _b Target color Blue value\n   * @param _time Time the game should last (in seconds)\n   */\n  constructor(\n    uint _r,\n    uint _g,\n    uint _b,\n    uint _time\n  )\n    public\n  {\n    require(_r < 256 && _g < 256 && _b < 256, 'Target color is not valid');\n    targetColor = Color(_r, _g, _b);\n    endTime = now +  _time * 1 seconds;\n  }\n\n  /**\n   * @dev Get players\n   */\n  function getPlayers()\n    public\n    view\n    returns (address[])\n  {\n    return players;\n  }\n\n  /**\n   * @dev Get token information\n   * @param _player Player address\n   */\n  function getToken(\n    address _player\n  )\n    public\n    view\n    returns (uint, uint, uint, uint, uint, uint, uint)\n  {\n    Token memory token = tokens[_player];\n    return (token.color.r, token.color.g, token.color.b, token.defaultColor.r, token.defaultColor.g, token.defaultColor.b, token.blendingPrice);\n  }\n\n\n  /**\n   * @dev Check if game is over\n   */\n  function isGameOver()\n    public\n    view\n    returns (bool)\n  {\n    return now > endTime;\n  }\n\n  /**\n   * @dev Check if a player exist\n   * @param _player Player address\n   */\n  function isPlayer(\n    address _player\n  )\n    public\n    view\n    returns (bool)\n  {\n    // Blending price can not be set to 0\n    return tokens[_player].blendingPrice > 0;\n  }\n\n  /**\n   * @dev Register transaction sender has a new player\n   */\n  function play()\n    public\n    payable\n    gameInProgress\n    returns (bool)\n  {\n    // The sender must not be already a player\n    require(!isPlayer(msg.sender), 'Already a player');\n\n    // Sender must have paid default price to start playing\n    require(msg.value >= DEFAULT_BLENDING_PRICE, 'You must pay to start playing');\n\n    // Given player address, derive the corresponding initial color\n    Color memory initialColor;\n    if (uint(msg.sender) % 5 == 0) {\n      initialColor =  Color(255, 0, 0);\n    } else if (uint(msg.sender) % 5 == 1) {\n      initialColor =  Color(0, 255, 0);\n    } else if (uint(msg.sender) % 5 == 2) {\n      initialColor =  Color(0, 0, 255);\n    } else if (uint(msg.sender) % 5 == 3) {\n      initialColor =  Color(0, 0, 0);\n    } else {\n      initialColor = Color(255, 255, 255);\n    }\n\n    // Register player and rainbow token\n    players.push(msg.sender);\n    tokens[msg.sender] = Token(initialColor, initialColor, DEFAULT_BLENDING_PRICE);\n\n    // Emit event\n    emit PlayerCreated(msg.sender);\n\n    return true;\n  }\n\n  /**\n   * @dev Set blending price\n   * @param _price New price (must be strictly positive)\n   */\n  function setBlendingPrice(\n    uint _price\n  )\n     public\n     onlyPlayer\n     gameInProgress\n     returns (bool)\n  {\n    require(_price > 0, 'Blending price should be positive');\n\n    tokens[msg.sender].blendingPrice = _price;\n\n    emit BlendingPriceSet(msg.sender, _price);\n\n    return true;\n  }\n\n  /**\n   * @dev Blend current player token with another player token\n   * @param _blendingPlayer Player to blend with\n   * @param _blendingPrice Blending token price\n   * @param _blendingR Blending token Red value\n   * @param _blendingG Blending token Green value\n   * @param _blendingB Blending token Blue value\n   */\n  function blend(\n    address _blendingPlayer,\n    uint _blendingPrice,\n    uint _blendingR,\n    uint _blendingG,\n    uint _blendingB\n  )\n    public\n    payable\n    gameInProgress\n    onlyPlayer\n    returns (bool)\n  {\n    // Get token of player to blend with\n    Token memory blendingToken = tokens[_blendingPlayer];\n\n    // Ensure blending token price has not increased while transaction was pending\n    require(_blendingPrice >= blendingToken.blendingPrice, \"Blending price has increased\");\n\n    // The sender must have transfer enough value to blend\n    require(msg.value >= blendingToken.blendingPrice, 'Not enought transfered Ether');\n\n    // Ensure blending token color has not been modified while transaction was pending\n    require(_blendingR == blendingToken.color.r && _blendingG == blendingToken.color.g && _blendingB == blendingToken.color.b, 'Blending color has changed');\n\n    // Get token of the current player\n    Token storage token = tokens[msg.sender];\n\n    // Blend current player token\n    token.color.r = (token.color.r + blendingToken.color.r) / 2;\n    token.color.g = (token.color.g + blendingToken.color.g) / 2;\n    token.color.b = (token.color.b + blendingToken.color.b) / 2;\n\n    // Transfer value to blending player\n    _blendingPlayer.transfer(msg.value / 2);\n\n    emit TokenBlended(\n      msg.sender,\n      token.color.r,\n      token.color.g,\n      token.color.b\n    );\n\n    return true;\n  }\n\n  /**\n   * @dev Blend current player token with default token color\n   */\n  function blend()\n    public\n    payable\n    gameInProgress\n    onlyPlayer\n    returns (bool)\n  {\n    // Player needs to transfer minimum blending price\n    require(msg.value >= DEFAULT_BLENDING_PRICE, 'Not enough Ether');\n\n    // Get current player token\n    Token storage token = tokens[msg.sender];\n\n    // Blend current player token with its default color\n    token.color.r = (token.color.r + token.defaultColor.r) / 2;\n    token.color.g = (token.color.g + token.defaultColor.g) / 2;\n    token.color.b = (token.color.b + token.defaultColor.b) / 2;\n\n    // Emit event\n    emit TokenBlended(\n      msg.sender,\n      token.color.r,\n      token.color.g,\n      token.color.b\n    );\n\n    return true;\n  }\n\n  /**\n   * @dev Current player claim victory\n   */\n  function claimVictory()\n    public\n    onlyPlayer\n    returns (bool)\n  {\n    // Compute current player score\n    int score = computeScore(msg.sender);\n\n    // Ensure either current player token has target color or game is over and player has a token with winning score\n    require(score == 0 || (isGameOver() && score == computeWinningScore()), 'You are not winner');\n\n    // Transfer winning prize\n    msg.sender.transfer(address(this).balance);\n\n    // Emit event\n    emit PlayerWon(msg.sender);\n\n    return true;\n  }\n\n  /**\n   * @dev Compute player score has the distance to the target color\n   * @param _player Player address\n   */\n  function computeScore(\n    address _player\n  )\n    public\n    view\n    returns (int)\n  {\n    int targetR  = int(targetColor.r);\n    int targetG = int(targetColor.g);\n    int targetB = int(targetColor.b);\n\n    Color memory color = tokens[_player].color;\n    int scoreR = (int(color.r) - targetR) * (int(color.r) - targetR);\n    int scoreG = (int(color.g) - targetG) * (int(color.g) - targetG);\n    int scoreB = (int(color.b) - targetB) * (int(color.b) - targetB);\n\n    return (scoreR + scoreG + scoreB);\n  }\n\n  /**\n   * @dev Compute winning score has the minimum score of every players\n   */\n  function computeWinningScore()\n    public\n    view\n    returns (int)\n  {\n    int minScore = 0xffffff;\n    for (uint i; i < players.length; i++) {\n      int score = computeScore(players[i]);\n      if (score < minScore) {\n        minScore = score;\n      }\n    }\n    return minScore;\n  }\n}\n",
  "sourcePath": "/Users/vincent/Documents/Consensys/rainbow-token/contracts/RainbowToken.sol",
  "compiler": {
    "name": "solc",
    "version": "0.4.24+commit.e67f0147.Emscripten.clang"
  },
  "schemaVersion": "2.0.1",
  "updatedAt": "2018-09-05T12:45:24.958Z"
}