{
    "contractName": "Campaign",
    "abi": [
        {
            "constant": true,
            "inputs": [],
            "name": "endRewardTime",
            "outputs": [
                {
                    "name": "",
                    "type": "uint32"
                }
            ],
            "payable": false,
            "stateMutability": "view",
            "type": "function"
        },
        {
            "constant": true,
            "inputs": [],
            "name": "endCampaignTime",
            "outputs": [
                {
                    "name": "",
                    "type": "uint32"
                }
            ],
            "payable": false,
            "stateMutability": "view",
            "type": "function"
        },
        {
            "constant": true,
            "inputs": [],
            "name": "imageHash",
            "outputs": [
                {
                    "name": "",
                    "type": "bytes32"
                }
            ],
            "payable": false,
            "stateMutability": "view",
            "type": "function"
        },
        {
            "constant": true,
            "inputs": [],
            "name": "startCampaignTime",
            "outputs": [
                {
                    "name": "",
                    "type": "uint32"
                }
            ],
            "payable": false,
            "stateMutability": "view",
            "type": "function"
        },
        {
            "constant": true,
            "inputs": [],
            "name": "numberOfTriggers",
            "outputs": [
                {
                    "name": "",
                    "type": "uint32"
                }
            ],
            "payable": false,
            "stateMutability": "view",
            "type": "function"
        },
        {
            "constant": false,
            "inputs": [],
            "name": "renounceOwnership",
            "outputs": [],
            "payable": false,
            "stateMutability": "nonpayable",
            "type": "function"
        },
        {
            "constant": true,
            "inputs": [],
            "name": "customerMaxNumberOfTrigger",
            "outputs": [
                {
                    "name": "",
                    "type": "uint8"
                }
            ],
            "payable": false,
            "stateMutability": "view",
            "type": "function"
        },
        {
            "constant": true,
            "inputs": [],
            "name": "campaignType",
            "outputs": [
                {
                    "name": "",
                    "type": "uint8"
                }
            ],
            "payable": false,
            "stateMutability": "view",
            "type": "function"
        },
        {
            "constant": true,
            "inputs": [],
            "name": "owner",
            "outputs": [
                {
                    "name": "",
                    "type": "address"
                }
            ],
            "payable": false,
            "stateMutability": "view",
            "type": "function"
        },
        {
            "constant": true,
            "inputs": [],
            "name": "isOwner",
            "outputs": [
                {
                    "name": "",
                    "type": "bool"
                }
            ],
            "payable": false,
            "stateMutability": "view",
            "type": "function"
        },
        {
            "constant": true,
            "inputs": [],
            "name": "startRewardTime",
            "outputs": [
                {
                    "name": "",
                    "type": "uint32"
                }
            ],
            "payable": false,
            "stateMutability": "view",
            "type": "function"
        },
        {
            "constant": true,
            "inputs": [],
            "name": "metadataHash",
            "outputs": [
                {
                    "name": "",
                    "type": "bytes32"
                }
            ],
            "payable": false,
            "stateMutability": "view",
            "type": "function"
        },
        {
            "constant": true,
            "inputs": [],
            "name": "initialAllocation",
            "outputs": [
                {
                    "name": "",
                    "type": "uint128"
                }
            ],
            "payable": false,
            "stateMutability": "view",
            "type": "function"
        },
        {
            "constant": true,
            "inputs": [],
            "name": "tcHash",
            "outputs": [
                {
                    "name": "",
                    "type": "bytes32"
                }
            ],
            "payable": false,
            "stateMutability": "view",
            "type": "function"
        },
        {
            "constant": false,
            "inputs": [
                {
                    "name": "newOwner",
                    "type": "address"
                }
            ],
            "name": "transferOwnership",
            "outputs": [],
            "payable": false,
            "stateMutability": "nonpayable",
            "type": "function"
        },
        {
            "constant": true,
            "inputs": [],
            "name": "rewardAmount",
            "outputs": [
                {
                    "name": "",
                    "type": "uint80"
                }
            ],
            "payable": false,
            "stateMutability": "view",
            "type": "function"
        },
        {
            "inputs": [
                {
                    "name": "_optInRegistryAddress",
                    "type": "address"
                },
                {
                    "name": "_proxyOracleAddress",
                    "type": "address"
                },
                {
                    "name": "_startCampaignTime",
                    "type": "uint32"
                },
                {
                    "name": "_endCampaignTime",
                    "type": "uint32"
                },
                {
                    "name": "_startRewardTime",
                    "type": "uint32"
                },
                {
                    "name": "_endRewardTime",
                    "type": "uint32"
                },
                {
                    "name": "_rewardAmount",
                    "type": "uint80"
                },
                {
                    "name": "_campaignType",
                    "type": "uint8"
                },
                {
                    "name": "_customerMaxNumberOfTrigger",
                    "type": "uint8"
                },
                {
                    "name": "_metadataHash",
                    "type": "bytes32"
                },
                {
                    "name": "_imageHash",
                    "type": "bytes32"
                },
                {
                    "name": "_tcHash",
                    "type": "bytes32"
                }
            ],
            "payable": true,
            "stateMutability": "payable",
            "type": "constructor"
        },
        {
            "anonymous": false,
            "inputs": [
                {
                    "indexed": true,
                    "name": "_rewarded",
                    "type": "address"
                },
                {
                    "indexed": false,
                    "name": "_campaignAddress",
                    "type": "address"
                },
                {
                    "indexed": false,
                    "name": "_rewardAmount",
                    "type": "uint80"
                },
                {
                    "indexed": false,
                    "name": "_pob",
                    "type": "bytes32"
                }
            ],
            "name": "RewardSent",
            "type": "event"
        },
        {
            "anonymous": false,
            "inputs": [
                {
                    "indexed": false,
                    "name": "_campaignAddress",
                    "type": "address"
                }
            ],
            "name": "CampaignEmptied",
            "type": "event"
        },
        {
            "anonymous": false,
            "inputs": [
                {
                    "indexed": false,
                    "name": "_campaignAddress",
                    "type": "address"
                }
            ],
            "name": "CampaignKilledByOwner",
            "type": "event"
        },
        {
            "anonymous": false,
            "inputs": [
                {
                    "indexed": true,
                    "name": "previousOwner",
                    "type": "address"
                }
            ],
            "name": "OwnershipRenounced",
            "type": "event"
        },
        {
            "anonymous": false,
            "inputs": [
                {
                    "indexed": true,
                    "name": "previousOwner",
                    "type": "address"
                },
                {
                    "indexed": true,
                    "name": "newOwner",
                    "type": "address"
                }
            ],
            "name": "OwnershipTransferred",
            "type": "event"
        },
        {
            "constant": true,
            "inputs": [],
            "name": "isActive",
            "outputs": [
                {
                    "name": "",
                    "type": "bool"
                }
            ],
            "payable": false,
            "stateMutability": "view",
            "type": "function"
        },
        {
            "constant": true,
            "inputs": [],
            "name": "isOver",
            "outputs": [
                {
                    "name": "",
                    "type": "bool"
                }
            ],
            "payable": false,
            "stateMutability": "view",
            "type": "function"
        },
        {
            "constant": true,
            "inputs": [],
            "name": "getCampaignType",
            "outputs": [
                {
                    "name": "",
                    "type": "uint8"
                }
            ],
            "payable": false,
            "stateMutability": "view",
            "type": "function"
        },
        {
            "constant": false,
            "inputs": [
                {
                    "name": "_account",
                    "type": "address"
                },
                {
                    "name": "_pob",
                    "type": "bytes32"
                }
            ],
            "name": "reward",
            "outputs": [
                {
                    "name": "",
                    "type": "bool"
                }
            ],
            "payable": false,
            "stateMutability": "nonpayable",
            "type": "function"
        },
        {
            "constant": false,
            "inputs": [
                {
                    "name": "_metadataHash",
                    "type": "bytes32"
                }
            ],
            "name": "updateMetadataHash",
            "outputs": [
                {
                    "name": "",
                    "type": "bool"
                }
            ],
            "payable": false,
            "stateMutability": "nonpayable",
            "type": "function"
        },
        {
            "constant": false,
            "inputs": [
                {
                    "name": "_newImageHash",
                    "type": "bytes32"
                }
            ],
            "name": "updateImageHash",
            "outputs": [
                {
                    "name": "",
                    "type": "bool"
                }
            ],
            "payable": false,
            "stateMutability": "nonpayable",
            "type": "function"
        },
        {
            "constant": false,
            "inputs": [],
            "name": "killCampaign",
            "outputs": [],
            "payable": false,
            "stateMutability": "nonpayable",
            "type": "function"
        },
        {
            "constant": true,
            "inputs": [],
            "name": "getTime",
            "outputs": [
                {
                    "name": "",
                    "type": "uint32"
                }
            ],
            "payable": false,
            "stateMutability": "view",
            "type": "function"
        },
        {
            "constant": true,
            "inputs": [],
            "name": "getCampaignPrimaryInfo",
            "outputs": [
                {
                    "name": "",
                    "type": "bytes32"
                },
                {
                    "name": "",
                    "type": "bool"
                },
                {
                    "name": "",
                    "type": "uint80"
                },
                {
                    "name": "",
                    "type": "uint8"
                }
            ],
            "payable": false,
            "stateMutability": "view",
            "type": "function"
        },
        {
            "constant": true,
            "inputs": [],
            "name": "getCampaignSecondaryInfo",
            "outputs": [
                {
                    "name": "",
                    "type": "bytes32"
                },
                {
                    "name": "",
                    "type": "bytes32"
                },
                {
                    "name": "",
                    "type": "uint32"
                },
                {
                    "name": "",
                    "type": "uint32"
                },
                {
                    "name": "",
                    "type": "uint32"
                },
                {
                    "name": "",
                    "type": "uint32"
                },
                {
                    "name": "",
                    "type": "uint8"
                },
                {
                    "name": "",
                    "type": "uint32"
                },
                {
                    "name": "",
                    "type": "uint8"
                },
                {
                    "name": "",
                    "type": "uint128"
                }
            ],
            "payable": false,
            "stateMutability": "view",
            "type": "function"
        }
    ],
    "bytecode": "0x6080604052604051610180806112f083398101604090815281516020830151918301516060840151608085015160a086015160c087015160e08801516101008901516101208a01516101408b0151610160909b01516000805433600160a060020a031991821617909155600180548216600160a060020a03808e169190911790915560028054909216908d16179055989a979896979596949593949293919290919063ffffffff808916908b16111561013f57604080517f08c379a000000000000000000000000000000000000000000000000000000000815260206004820152603460248201527f43616d706169676e20737461727473206166746572207468652073746172742060448201527f6f66207468652072657761726420706572696f64000000000000000000000000606482015290519081900360840190fd5b63ffffffff80881690891611156101b757604080517f08c379a000000000000000000000000000000000000000000000000000000000815260206004820152601460248201527f456e64206973206265666f72652073746172742e000000000000000000000000604482015290519081900360640190fd5b63ffffffff808a16908816111561025557604080517f08c379a000000000000000000000000000000000000000000000000000000000815260206004820152603660248201527f43616d706169676e2066696e6973686573206265666f72652074686520656e6460448201527f206f66207468652072657761726420706572696f642e00000000000000000000606482015290519081900360840190fd5b6001605060020a0386166000106102cd57604080517f08c379a000000000000000000000000000000000000000000000000000000000815260206004820152601460248201527f5265776172642063616e206e6f7420626520302e000000000000000000000000604482015290519081900360640190fd5b346001605060020a038716111561036b57604080517f08c379a000000000000000000000000000000000000000000000000000000000815260206004820152602d60248201527f5468657265206d757374206265206174206c6561737420656e6f75676820666f60448201527f72206f6e65207265776172642e00000000000000000000000000000000000000606482015290519081900360840190fd5b60ff841660001061040357604080517f08c379a000000000000000000000000000000000000000000000000000000000815260206004820152602b60248201527f546865206d6178696d756d206e756d626572206f66207472696767657220636160448201527f6e206e6f7420626520302e000000000000000000000000000000000000000000606482015290519081900360840190fd5b6002805460a060020a63ffffffff0219167401000000000000000000000000000000000000000063ffffffff9c8d1681029190911760c060020a63ffffffff02191678010000000000000000000000000000000000000000000000009b8d169b909b029a909a17600160e060020a03167c0100000000000000000000000000000000000000000000000000000000998c1699909902989098179097556003805463ffffffff1916969099169590951764010000000060a060020a031916640100000000346001608060020a0316021760a060020a60f060020a0319166001605060020a03949094169096029290921760f060020a60ff0219167e0100000000000000000000000000000000000000000000000000000000000060ff9283160217600160f860020a03167f010000000000000000000000000000000000000000000000000000000000000092909116919091021790935560049190915560059190915560065550610d7690508061057a6000396000f30060806040526004361061013a5763ffffffff60e060020a60003504166302a24770811461013f57806322f3e2d41461016d57806329561426146101965780634209b08d146101ae57806346863201146101c657806351605d80146101db578063557ed1ba146102025780635b14ce49146102175780635b588ac61461022e5780636037c162146102595780636dc562e11461026e5780636f31394514610283578063715018a61461030957806373c987881461031e578063759dadce146103335780637b14b030146103485780638da5cb5b146103915780638f32d59b146103c257806395e9d973146103d7578063b4bd9e27146103ec578063c5a1d7f014610401578063d2ecb4f914610416578063de193fc514610450578063f2fde38b14610465578063f7b2a7be14610486578063fb4101c0146104ba575b600080fd5b34801561014b57600080fd5b506101546104de565b6040805163ffffffff9092168252519081900360200190f35b34801561017957600080fd5b506101826104ea565b604080519115158252519081900360200190f35b3480156101a257600080fd5b50610182600435610533565b3480156101ba57600080fd5b50610182600435610551565b3480156101d257600080fd5b5061015461056f565b3480156101e757600080fd5b506101f0610597565b60408051918252519081900360200190f35b34801561020e57600080fd5b5061015461059d565b34801561022357600080fd5b5061022c6105a1565b005b34801561023a57600080fd5b506102436105fa565b6040805160ff9092168252519081900360200190f35b34801561026557600080fd5b5061015461060a565b34801561027a57600080fd5b5061015461061d565b34801561028f57600080fd5b50610298610629565b604080519a8b5260208b019990995263ffffffff9788168a8a015295871660608a0152938616608089015291851660a088015260ff90811660c0880152931660e08601529091166101008401526fffffffffffffffffffffffffffffffff1661012083015251908190036101400190f35b34801561031557600080fd5b5061022c6106bb565b34801561032a57600080fd5b50610243610723565b34801561033f57600080fd5b50610243610733565b34801561035457600080fd5b5061035d610743565b60408051948552921515602085015269ffffffffffffffffffff9091168383015260ff166060830152519081900360800190f35b34801561039d57600080fd5b506103a6610782565b60408051600160a060020a039092168252519081900360200190f35b3480156103ce57600080fd5b50610182610791565b3480156103e357600080fd5b506101546107a2565b3480156103f857600080fd5b506101826107b5565b34801561040d57600080fd5b506101f06107f1565b34801561042257600080fd5b5061042b6107f7565b604080516fffffffffffffffffffffffffffffffff9092168252519081900360200190f35b34801561045c57600080fd5b506101f0610817565b34801561047157600080fd5b5061022c600160a060020a036004351661081d565b34801561049257600080fd5b5061049b61083c565b6040805169ffffffffffffffffffff9092168252519081900360200190f35b3480156104c657600080fd5b50610182600160a060020a0360043516602435610855565b60035463ffffffff1681565b60025460009060e060020a900463ffffffff1661050561059d565b63ffffffff161015801561052e575060035463ffffffff1661052561059d565b63ffffffff1611155b905090565b600061053d610791565b151561054857600080fd5b50600555600190565b600061055b610791565b151561056657600080fd5b50600455600190565b6002547801000000000000000000000000000000000000000000000000900463ffffffff1681565b60055481565b4290565b6105a9610791565b15156105b457600080fd5b6040805130815290517ffe54fdc16dcffc711f4f22256d6c2f2c4dc03b6e8656235ab4f1179f23a118cb9181900360200190a16105ef610782565b600160a060020a0316ff5b60035460f060020a900460ff1690565b60025460a060020a900463ffffffff1681565b60085463ffffffff1681565b600554600654600254600354600854336000908152600760205260409020549495939460a060020a840463ffffffff908116957801000000000000000000000000000000000000000000000000860482169560e060020a90048216948281169460f860020a820460ff90811695949091169316916401000000009091046fffffffffffffffffffffffffffffffff1690565b6106c3610791565b15156106ce57600080fd5b60008054604051600160a060020a03909116917ff8df31144d9c2f0f6b59d69b8b98abd5459d07f2742c4df920b25aae33c6482091a26000805473ffffffffffffffffffffffffffffffffffffffff19169055565b60035460f860020a900460ff1681565b60035460f060020a900460ff1681565b6000806000806004546107546104ea565b600354919690955060a060020a820469ffffffffffffffffffff16945060f060020a90910460ff1692509050565b600054600160a060020a031690565b600054600160a060020a0316331490565b60025460e060020a900463ffffffff1681565b6002546000907801000000000000000000000000000000000000000000000000900463ffffffff166107e561059d565b63ffffffff1611905090565b60045481565b60035464010000000090046fffffffffffffffffffffffffffffffff1681565b60065481565b610825610791565b151561083057600080fd5b61083981610ba9565b50565b60035460a060020a900469ffffffffffffffffffff1681565b600254600090600160a060020a031633146108ba576040805160e560020a62461bcd02815260206004820152601460248201527f417574686f72697a6174696f6e2064656e696564000000000000000000000000604482015290519081900360640190fd5b6108c26104ea565b15610b0e5760035460a060020a900469ffffffffffffffffffff1630311015610935576040805160e560020a62461bcd02815260206004820152601060248201527f4e6f7420656e6f7567682066756e647300000000000000000000000000000000604482015290519081900360640190fd5b61093f8330610c26565b1515610995576040805160e560020a62461bcd02815260206004820152601b60248201527f55736572206e6f7420656c696769626c6520746f207265776172640000000000604482015290519081900360640190fd5b600354600160a060020a03841660009081526007602052604090205460ff60f860020a9092048216911610610a14576040805160e560020a62461bcd02815260206004820152601160248201527f546f6f206d616e79207472696767657273000000000000000000000000000000604482015290519081900360640190fd5b600160a060020a038316600081815260076020526040808220805460ff198116600160ff9283168101909216179091556008805463ffffffff19811663ffffffff9182169093011691909117905560035490516108fc60a060020a90920469ffffffffffffffffffff1680159290920292818181858888f19350505050158015610aa2573d6000803e3d6000fd5b506003546040805130815269ffffffffffffffffffff60a060020a90930492909216602083015281810184905251600160a060020a038516917f31c92c77f4a067b555af9e9ae3821f1c4f376988b66cd92bc4bb6234b4369d29919081900360600190a2506001610ba3565b610b166107b5565b15610ba357610b23610cce565b1515610b9f576040805160e560020a62461bcd02815260206004820152602a60248201527f4572726f72207768696c652072657475726e2063616d706169676e2066756e6460448201527f7320746f206f776e657200000000000000000000000000000000000000000000606482015290519081900360840190fd5b5060015b92915050565b600160a060020a0381161515610bbe57600080fd5b60008054604051600160a060020a03808516939216917f8be0079c531659141344cd1fd0a4f28419497f9722a3daafe3b4186f6b6457e091a36000805473ffffffffffffffffffffffffffffffffffffffff1916600160a060020a0392909216919091179055565b600154604080517f07c05aff000000000000000000000000000000000000000000000000000000008152600160a060020a03858116600483015284811660248301529151600093929092169182916307c05aff91604480830192602092919082900301818887803b158015610c9a57600080fd5b505af1158015610cae573d6000803e3d6000fd5b505050506040513d6020811015610cc457600080fd5b5051949350505050565b6000610cd8610782565b604051600160a060020a039190911690303180156108fc02916000818181858888f19350505050158015610d10573d6000803e3d6000fd5b506040805130815290517ff344d7499500b68d6e3e8d7f605cf9f5d120fca3603e15aa1a7824cf41efaada9181900360200190a1506001905600a165627a7a723058203334fe6e3763f09b8be0064695c7b49e4254c23e10b20f4dfd1d691a741b0fda0029",
    "source": "pragma solidity ^0.4.24;\n\nimport \"openzeppelin-solidity/contracts/ownership/Ownable.sol\";\n\nimport \"./ICampaign.sol\";\nimport \"./LinkedToOptIn.sol\";\nimport \"./LinkedToOracle.sol\";\n\n\ncontract Campaign is Ownable, ICampaign, LinkedToOptIn, LinkedToOracle {\n\n  /* Time corresponding of the start of the campaign */\n  uint32 public startCampaignTime;\n\n  /* Time corresponding of the end of the campaign */\n  uint32 public endCampaignTime;\n\n  /* Time corresponding of the start of the reward window for the campaign */\n  uint32 public startRewardTime;\n\n  /* Time corresponding of the end of the reward window for the campaign */\n  uint32 public endRewardTime;\n\n  /* Initial allocation to the campaign */\n  uint128 public initialAllocation;\n\n  /* Amount of the reward */\n  uint80 public rewardAmount;\n\n  /* Type of the campaign */\n  uint8 public campaignType;\n\n  /* Maximum number of trigger per customer */\n  uint8 public customerMaxNumberOfTrigger;\n\n  /* IPFS hash of the campaign metadata */\n  bytes32 public metadataHash;\n\n  /* IPFS hash of the campaign Image */\n  bytes32 public imageHash;\n\n  /* IPFS hash of the CGV */\n  bytes32 public tcHash;\n\n  /* Tracking of the number of reward given to an account */\n  mapping(address => uint8) private triggers;\n\n  /* Tracks number of times the campaign has rewarded someone */\n  uint32 public numberOfTriggers;\n\n  /* Fired each time the campaign rewards a shopper */\n  event RewardSent(\n    address indexed _rewarded,\n    address _campaignAddress,\n    uint80 _rewardAmount,\n    bytes32 _pob\n  );\n\n  /* Fired when the campaign is emptied because it is over */\n  event CampaignEmptied(address _campaignAddress);\n\n  /* Fired when the campaign is killed by owner */\n  event CampaignKilledByOwner(address _campaignAddress);\n\n  /**\n    * @dev Creates a campaign\n    * @param _optInRegistryAddress Address of the opt in registry\n    * @param _proxyOracleAddress Address of the proxy oracle registry\n    * @param _startCampaignTime Time of the start of the campaign\n    * @param _endCampaignTime Time of the end of the campaign\n    * @param _startRewardTime Time of the start of the reward window for the campaign\n    * @param _endRewardTime Time of the end of the reward window for the campaign\n    * @param _rewardAmount Amount of the reward\n    * @param _campaignType Type of the campaign\n    * @param _customerMaxNumberOfTrigger Maximum number of trigger per customer\n    * @param _metadataHash IPFS hash of the metadata\n    * @param _imageHash IPFS hash of the image\n    * @param _tcHash IPFS hash of the cgv\n    */\n  constructor(\n    address _optInRegistryAddress,\n    address _proxyOracleAddress,\n    uint32 _startCampaignTime,\n    uint32 _endCampaignTime,\n    uint32 _startRewardTime,\n    uint32 _endRewardTime,\n    uint80 _rewardAmount,\n    uint8 _campaignType,\n    uint8 _customerMaxNumberOfTrigger,\n    bytes32 _metadataHash,\n    bytes32 _imageHash,\n    bytes32 _tcHash\n  )\n    LinkedToOptIn(_optInRegistryAddress)\n    LinkedToOracle(_proxyOracleAddress)\n    public\n    payable\n  {\n    // Possible requires\n    require(_startCampaignTime <= _startRewardTime, \"Campaign starts after the start of the reward period\");\n    require(_startRewardTime <= _endRewardTime, \"End is before start.\");\n    require(_endRewardTime <= _endCampaignTime, \"Campaign finishes before the end of the reward period.\");\n    require(0 < _rewardAmount, \"Reward can not be 0.\");\n    require(_rewardAmount <= msg.value, \"There must be at least enough for one reward.\");\n    require(0 < _customerMaxNumberOfTrigger, \"The maximum number of trigger can not be 0.\");\n\n    // Initializes the state variables\n    startCampaignTime = _startCampaignTime;\n    endCampaignTime = _endCampaignTime;\n    startRewardTime = _startRewardTime;\n    endRewardTime = _endRewardTime;\n    initialAllocation = uint128(msg.value);\n    rewardAmount = _rewardAmount;\n    campaignType = _campaignType;\n    customerMaxNumberOfTrigger = _customerMaxNumberOfTrigger;\n    metadataHash = _metadataHash;\n    imageHash = _imageHash;\n    tcHash = _tcHash;\n  }\n\n  /**\n    * @dev Checks whether or not the campaign is active\n    */\n  function isActive()\n    public\n    view\n    returns (bool)\n  {\n    return getTime() >= startRewardTime && getTime() <= endRewardTime;\n  }\n\n  /**\n    * @dev Checks whether or not the campaign is over\n    */\n  function isOver()\n    public\n    view\n    returns (bool)\n  {\n    return getTime() > endCampaignTime;\n  }\n\n  /**\n    * @dev Gets the campaign type\n    */\n  function getCampaignType()\n    public\n    view\n    returns (uint8)\n  {\n    return campaignType;\n  }\n\n  /**\n    * @dev Rewards an user with the rewardAmount\n    * @param _account Address of the rewarded user\n    * @param _pob POB sent by the oracle\n    */\n  function reward(\n    address _account,\n    bytes32 _pob\n  )\n    public\n    onlyFromOracle\n    returns (bool)\n  {\n    // The campaign should be active\n    if (isActive()) {\n      // Contract must have at least rewardAmount\n      require(address(this).balance >= rewardAmount, \"Not enough funds\");\n\n      // The account should be eligible to reward\n      require(isEligible(_account, this), \"User not eligible to reward\");\n\n      // The _account should have less triggers than the maximum allowed\n      require(triggers[_account] < customerMaxNumberOfTrigger, \"Too many triggers\");\n\n      // Increment the trigger\n      ++triggers[_account];\n      numberOfTriggers++;\n\n      // Transfer the rewardAmount\n      _account.transfer(rewardAmount);\n      emit RewardSent(_account, address(this), rewardAmount, _pob);\n\n      return true;\n    }\n\n    // if the campaign is over the smart contract is emptied\n    if (isOver()) {\n      require(_emptyCampaign(), \"Error while return campaign funds to owner\");\n      return true;\n    }\n  }\n\n  /**\n    * @dev Update the ipfs hash of the metadata\n    * @param _metadataHash The new hash of the metadata\n    */\n  function updateMetadataHash(\n    bytes32 _metadataHash\n  )\n    public\n    onlyOwner\n    returns (bool)\n  {\n    metadataHash = _metadataHash;\n    return true;\n  }\n\n  /**\n    * @dev Update the ipfs hash of the image\n    * @param _newImageHash The new hash of the image\n    */\n  function updateImageHash(\n    bytes32 _newImageHash\n  )\n    public\n    onlyOwner\n    returns (bool)\n  {\n    imageHash = _newImageHash;\n    return true;\n  }\n\n  /**\n    * @dev Kill the smart-contract of the campaign\n    */\n  function killCampaign()\n    public\n    onlyOwner\n  {\n    emit CampaignKilledByOwner(address(this));\n    selfdestruct(owner());\n  }\n\n  /**\n    * @dev Kill the smart-contract of the campaign\n    */\n  function _emptyCampaign()\n    internal\n    returns(bool)\n  {\n    // Selfdestruct the contract and send the residual amount to the contract owner\n    owner().transfer(address(this).balance);\n    emit CampaignEmptied(address(this));\n    return true;\n  }\n\n  /**\n    * @dev Returns current time\n    */\n  function getTime() public view returns (uint32) {\n    return uint32(block.timestamp);\n  }\n\n  /**\n    * @dev Gets succinct information about the campaign\n    */\n  function getCampaignPrimaryInfo()\n    public\n    view\n    returns (bytes32, bool, uint80, uint8)\n  {\n    return (\n      metadataHash,\n      isActive(),\n      rewardAmount,\n      campaignType\n    );\n  }\n\n  /**\n    * @dev Gets remaining information about the campaign\n    */\n  function getCampaignSecondaryInfo()\n    public\n    view\n    returns (bytes32, bytes32, uint32, uint32, uint32, uint32, uint8, uint32, uint8, uint128)\n  {\n    return (\n      imageHash,\n      tcHash,\n      startCampaignTime,\n      endCampaignTime,\n      startRewardTime,\n      endRewardTime,\n      customerMaxNumberOfTrigger,\n      numberOfTriggers,\n      triggers[msg.sender],\n      initialAllocation\n    );\n  }\n}\n",
    "sourcePath": "/Users/vincent/Documents/Consensys/OCCI/urp-solidity/contracts/Campaign/Campaign.sol",
    "compiler": {
        "name": "solc",
        "version": "0.4.24+commit.e67f0147.Emscripten.clang"
    },
    "schemaVersion": "2.0.0",
    "updatedAt": "2018-11-07T13:15:57.370Z"
}