{
    "contractName": "CampaignRegistry",
    "abi": [
        {
            "constant": true,
            "inputs": [
                {
                    "name": "",
                    "type": "uint256"
                }
            ],
            "name": "campaigns",
            "outputs": [
                {
                    "name": "",
                    "type": "address"
                }
            ],
            "payable": false,
            "stateMutability": "view",
            "type": "function"
        },
        {
            "constant": true,
            "inputs": [
                {
                    "name": "",
                    "type": "address"
                }
            ],
            "name": "allCampaignsDetails",
            "outputs": [
                {
                    "name": "index",
                    "type": "uint32"
                },
                {
                    "name": "isRegistered",
                    "type": "bool"
                }
            ],
            "payable": false,
            "stateMutability": "view",
            "type": "function"
        },
        {
            "constant": false,
            "inputs": [],
            "name": "renounceOwnership",
            "outputs": [],
            "payable": false,
            "stateMutability": "nonpayable",
            "type": "function"
        },
        {
            "constant": true,
            "inputs": [],
            "name": "owner",
            "outputs": [
                {
                    "name": "",
                    "type": "address"
                }
            ],
            "payable": false,
            "stateMutability": "view",
            "type": "function"
        },
        {
            "constant": true,
            "inputs": [],
            "name": "isOwner",
            "outputs": [
                {
                    "name": "",
                    "type": "bool"
                }
            ],
            "payable": false,
            "stateMutability": "view",
            "type": "function"
        },
        {
            "constant": false,
            "inputs": [
                {
                    "name": "newOwner",
                    "type": "address"
                }
            ],
            "name": "transferOwnership",
            "outputs": [],
            "payable": false,
            "stateMutability": "nonpayable",
            "type": "function"
        },
        {
            "anonymous": false,
            "inputs": [
                {
                    "indexed": false,
                    "name": "_campaignAddress",
                    "type": "address"
                },
                {
                    "indexed": false,
                    "name": "_campaignIndex",
                    "type": "uint32"
                }
            ],
            "name": "CampaignRegistered",
            "type": "event"
        },
        {
            "anonymous": false,
            "inputs": [
                {
                    "indexed": false,
                    "name": "_campaignAddress",
                    "type": "address"
                },
                {
                    "indexed": false,
                    "name": "_campaignIndex",
                    "type": "uint32"
                }
            ],
            "name": "CampaignRemoved",
            "type": "event"
        },
        {
            "anonymous": false,
            "inputs": [
                {
                    "indexed": true,
                    "name": "previousOwner",
                    "type": "address"
                }
            ],
            "name": "OwnershipRenounced",
            "type": "event"
        },
        {
            "anonymous": false,
            "inputs": [
                {
                    "indexed": true,
                    "name": "previousOwner",
                    "type": "address"
                },
                {
                    "indexed": true,
                    "name": "newOwner",
                    "type": "address"
                }
            ],
            "name": "OwnershipTransferred",
            "type": "event"
        },
        {
            "constant": true,
            "inputs": [
                {
                    "name": "_campaignAddress",
                    "type": "address"
                }
            ],
            "name": "isRegistered",
            "outputs": [
                {
                    "name": "",
                    "type": "bool"
                }
            ],
            "payable": false,
            "stateMutability": "view",
            "type": "function"
        },
        {
            "constant": true,
            "inputs": [],
            "name": "getCampaigns",
            "outputs": [
                {
                    "name": "",
                    "type": "address[]"
                }
            ],
            "payable": false,
            "stateMutability": "view",
            "type": "function"
        },
        {
            "constant": true,
            "inputs": [
                {
                    "name": "_campaignAddress",
                    "type": "address"
                }
            ],
            "name": "getIndex",
            "outputs": [
                {
                    "name": "",
                    "type": "uint32"
                }
            ],
            "payable": false,
            "stateMutability": "view",
            "type": "function"
        },
        {
            "constant": false,
            "inputs": [
                {
                    "name": "_campaignToRegister",
                    "type": "address"
                }
            ],
            "name": "registerCampaign",
            "outputs": [
                {
                    "name": "",
                    "type": "uint32"
                }
            ],
            "payable": false,
            "stateMutability": "nonpayable",
            "type": "function"
        },
        {
            "constant": false,
            "inputs": [
                {
                    "name": "_campaignToRemove",
                    "type": "address"
                }
            ],
            "name": "removeCampaign",
            "outputs": [
                {
                    "name": "",
                    "type": "uint32"
                }
            ],
            "payable": false,
            "stateMutability": "nonpayable",
            "type": "function"
        },
        {
            "constant": false,
            "inputs": [],
            "name": "kill",
            "outputs": [],
            "payable": false,
            "stateMutability": "nonpayable",
            "type": "function"
        }
    ],
    "bytecode": "0x608060405260008054600160a060020a031916331790556107dd806100256000396000f3006080604052600436106100b95763ffffffff7c0100000000000000000000000000000000000000000000000000000000600035041663141961bc81146100be5780632e733664146100f257806341c0e1b514610133578063715018a61461014a57806375860d841461015f5780638da5cb5b146101995780638f32d59b146101ae578063a6b03633146101d7578063b31610db1461023c578063c3c5a5471461025d578063e4663a5b1461027e578063f2fde38b1461029f575b600080fd5b3480156100ca57600080fd5b506100d66004356102c0565b60408051600160a060020a039092168252519081900360200190f35b3480156100fe57600080fd5b50610113600160a060020a03600435166102e8565b6040805163ffffffff909316835290151560208301528051918290030190f35b34801561013f57600080fd5b5061014861030d565b005b34801561015657600080fd5b50610148610333565b34801561016b57600080fd5b50610180600160a060020a036004351661039b565b6040805163ffffffff9092168252519081900360200190f35b3480156101a557600080fd5b506100d66104ac565b3480156101ba57600080fd5b506101c36104bc565b604080519115158252519081900360200190f35b3480156101e357600080fd5b506101ec6104cd565b60408051602080825283518183015283519192839290830191858101910280838360005b83811015610228578181015183820152602001610210565b505050509050019250505060405180910390f35b34801561024857600080fd5b50610180600160a060020a036004351661052f565b34801561026957600080fd5b506101c3600160a060020a0360043516610550565b34801561028a57600080fd5b50610180600160a060020a0360043516610576565b3480156102ab57600080fd5b50610148600160a060020a03600435166106ce565b60018054829081106102ce57fe5b600091825260209091200154600160a060020a0316905081565b60026020526000908152604090205463ffffffff811690640100000000900460ff1682565b6103156104bc565b151561032057600080fd5b6103286104ac565b600160a060020a0316ff5b61033b6104bc565b151561034657600080fd5b60008054604051600160a060020a03909116917ff8df31144d9c2f0f6b59d69b8b98abd5459d07f2742c4df920b25aae33c6482091a26000805473ffffffffffffffffffffffffffffffffffffffff19169055565b60006103a56104bc565b15156103b057600080fd5b6103b982610550565b156103c357600080fd5b600160a060020a038216600081815260026020908152604091829020805464010000000064ff0000000019909116178155600180548082019091557fb10e2d527612073b26eecdfd717e6a320cf44b4afac2b0732d9fcbe2b7fa0cf68101805473ffffffffffffffffffffffffffffffffffffffff191686179055815463ffffffff191663ffffffff91821617918290558351948552169083015280517f5f726f78c9c21d70a71c7ad18861c00945c9e9245fc4ba11f1517b9adc58ff429281900390910190a150600160a060020a031660009081526002602052604090205463ffffffff1690565b600054600160a060020a03165b90565b600054600160a060020a0316331490565b6060600180548060200260200160405190810160405280929190818152602001828054801561052557602002820191906000526020600020905b8154600160a060020a03168152600190910190602001808311610507575b5050505050905090565b600160a060020a031660009081526002602052604090205463ffffffff1690565b600160a060020a0316600090815260026020526040902054640100000000900460ff1690565b60008060006105836104bc565b151561058e57600080fd5b61059784610550565b15156105a257600080fd5b600160a060020a0384166000908152600260205260409020805464ff000000001981169091556001805463ffffffff90921693509060001981019081106105e557fe5b60009182526020909120015460018054600160a060020a039092169250829163ffffffff851690811061061457fe5b6000918252602080832091909101805473ffffffffffffffffffffffffffffffffffffffff1916600160a060020a039485161790559183168152600290915260409020805463ffffffff191663ffffffff8416179055600180549061067d90600019830161076a565b5060408051600160a060020a038616815263ffffffff8416602082015281517f0d73280ccb04156706d29e784f46dc59d5f80c706fbd7f10efcf8904b65255df929181900390910190a15092915050565b6106d66104bc565b15156106e157600080fd5b6106ea816106ed565b50565b600160a060020a038116151561070257600080fd5b60008054604051600160a060020a03808516939216917f8be0079c531659141344cd1fd0a4f28419497f9722a3daafe3b4186f6b6457e091a36000805473ffffffffffffffffffffffffffffffffffffffff1916600160a060020a0392909216919091179055565b81548183558181111561078e5760008381526020902061078e918101908301610793565b505050565b6104b991905b808211156107ad5760008155600101610799565b50905600a165627a7a7230582044cd959cb49075f9db7aa2449cb39ec577b2dc28a05d98fc55a528472f27ea920029",
    "source": "pragma solidity ^0.4.24;\n\nimport \"openzeppelin-solidity/contracts/ownership/Ownable.sol\";\n\n\ncontract CampaignRegistry is Ownable {\n\n  /* Stores whether a campaign has been registered */\n  struct CampaignDetails {\n    uint32 index;\n    bool isRegistered;\n  }\n\n  /* Array of all campaigns in registry */\n  address[] public campaigns;\n  mapping(address => CampaignDetails) public allCampaignsDetails;\n\n  event CampaignRegistered(address _campaignAddress, uint32 _campaignIndex);\n  event CampaignRemoved(address _campaignAddress, uint32 _campaignIndex);\n\n  /**\n   * @dev Checks if a campaign is in a registry\n   * @param _campaignAddress Address of the campaign contract\n   */\n  function isRegistered(address _campaignAddress) public view returns(bool) {\n    return allCampaignsDetails[_campaignAddress].isRegistered;\n  }\n\n  /**\n   * @dev Returns all campaigns in the registry\n   */\n  function getCampaigns()\n    public\n    view\n    returns(address[])\n  {\n    return campaigns;\n  }\n\n  /**\n   * @dev Gets campaign Index\n   * @param _campaignAddress Address of the campaign contract\n   */\n  function getIndex(address _campaignAddress)\n    public\n    view\n    returns(uint32)\n  {\n    return allCampaignsDetails[_campaignAddress].index;\n  }\n\n  /**\n   * @dev Adds campaign to registry\n   * @param _campaignToRegister Address of the campaign contract\n   */\n  function registerCampaign(address _campaignToRegister)\n    public\n    onlyOwner\n    returns(uint32)\n  {\n    require(!isRegistered(_campaignToRegister));\n\n    allCampaignsDetails[_campaignToRegister].isRegistered = true;\n    allCampaignsDetails[_campaignToRegister].index = uint32(campaigns.push(_campaignToRegister) - 1);\n\n    emit CampaignRegistered(_campaignToRegister, allCampaignsDetails[_campaignToRegister].index);\n    return allCampaignsDetails[_campaignToRegister].index;\n  }\n\n  /**\n   * @dev Deletes campaign from registry\n   * @param _campaignToRemove Address of the campaign contract\n   */\n  function removeCampaign(address _campaignToRemove)\n    public\n    onlyOwner\n    returns(uint32)\n  {\n    require(isRegistered(_campaignToRemove));\n    allCampaignsDetails[_campaignToRemove].isRegistered = false;\n\n    uint32 rowToRemove = allCampaignsDetails[_campaignToRemove].index;\n    address keyToMove = campaigns[campaigns.length-1];\n\n    // Switching element to remove with the last element in the array\n    campaigns[rowToRemove] = keyToMove;\n    allCampaignsDetails[keyToMove].index = rowToRemove;\n\n    // Removal of last element in campaignIndex, which\n    // otherwise would be present twice in the list\n    campaigns.length--;\n\n    emit CampaignRemoved(_campaignToRemove, rowToRemove);\n\n    return rowToRemove;\n  }\n\n  function kill()\n    public\n    onlyOwner\n  {\n    selfdestruct(owner());\n  }\n}\n",
    "sourcePath": "/Users/vincent/Documents/Consensys/OCCI/urp-solidity/contracts/Campaign/CampaignRegistry.sol",
    "compiler": {
        "name": "solc",
        "version": "0.4.24+commit.e67f0147.Emscripten.clang"
    },
    "schemaVersion": "2.0.0",
    "updatedAt": "2018-11-07T13:15:57.349Z"
}