{
    "contractName": "MockCampaign",
    "abi": [
        {
            "constant": true,
            "inputs": [],
            "name": "endRewardTime",
            "outputs": [
                {
                    "name": "",
                    "type": "uint32"
                }
            ],
            "payable": false,
            "stateMutability": "view",
            "type": "function"
        },
        {
            "constant": true,
            "inputs": [],
            "name": "isActive",
            "outputs": [
                {
                    "name": "",
                    "type": "bool"
                }
            ],
            "payable": false,
            "stateMutability": "view",
            "type": "function"
        },
        {
            "constant": false,
            "inputs": [
                {
                    "name": "_newImageHash",
                    "type": "bytes32"
                }
            ],
            "name": "updateImageHash",
            "outputs": [
                {
                    "name": "",
                    "type": "bool"
                }
            ],
            "payable": false,
            "stateMutability": "nonpayable",
            "type": "function"
        },
        {
            "constant": false,
            "inputs": [
                {
                    "name": "_metadataHash",
                    "type": "bytes32"
                }
            ],
            "name": "updateMetadataHash",
            "outputs": [
                {
                    "name": "",
                    "type": "bool"
                }
            ],
            "payable": false,
            "stateMutability": "nonpayable",
            "type": "function"
        },
        {
            "constant": true,
            "inputs": [],
            "name": "endCampaignTime",
            "outputs": [
                {
                    "name": "",
                    "type": "uint32"
                }
            ],
            "payable": false,
            "stateMutability": "view",
            "type": "function"
        },
        {
            "constant": true,
            "inputs": [],
            "name": "imageHash",
            "outputs": [
                {
                    "name": "",
                    "type": "bytes32"
                }
            ],
            "payable": false,
            "stateMutability": "view",
            "type": "function"
        },
        {
            "constant": false,
            "inputs": [],
            "name": "killCampaign",
            "outputs": [],
            "payable": false,
            "stateMutability": "nonpayable",
            "type": "function"
        },
        {
            "constant": true,
            "inputs": [],
            "name": "getCampaignType",
            "outputs": [
                {
                    "name": "",
                    "type": "uint8"
                }
            ],
            "payable": false,
            "stateMutability": "view",
            "type": "function"
        },
        {
            "constant": true,
            "inputs": [],
            "name": "startCampaignTime",
            "outputs": [
                {
                    "name": "",
                    "type": "uint32"
                }
            ],
            "payable": false,
            "stateMutability": "view",
            "type": "function"
        },
        {
            "constant": true,
            "inputs": [],
            "name": "numberOfTriggers",
            "outputs": [
                {
                    "name": "",
                    "type": "uint32"
                }
            ],
            "payable": false,
            "stateMutability": "view",
            "type": "function"
        },
        {
            "constant": true,
            "inputs": [],
            "name": "getCampaignSecondaryInfo",
            "outputs": [
                {
                    "name": "",
                    "type": "bytes32"
                },
                {
                    "name": "",
                    "type": "bytes32"
                },
                {
                    "name": "",
                    "type": "uint32"
                },
                {
                    "name": "",
                    "type": "uint32"
                },
                {
                    "name": "",
                    "type": "uint32"
                },
                {
                    "name": "",
                    "type": "uint32"
                },
                {
                    "name": "",
                    "type": "uint8"
                },
                {
                    "name": "",
                    "type": "uint32"
                },
                {
                    "name": "",
                    "type": "uint8"
                },
                {
                    "name": "",
                    "type": "uint128"
                }
            ],
            "payable": false,
            "stateMutability": "view",
            "type": "function"
        },
        {
            "constant": false,
            "inputs": [],
            "name": "renounceOwnership",
            "outputs": [],
            "payable": false,
            "stateMutability": "nonpayable",
            "type": "function"
        },
        {
            "constant": true,
            "inputs": [],
            "name": "customerMaxNumberOfTrigger",
            "outputs": [
                {
                    "name": "",
                    "type": "uint8"
                }
            ],
            "payable": false,
            "stateMutability": "view",
            "type": "function"
        },
        {
            "constant": true,
            "inputs": [],
            "name": "campaignType",
            "outputs": [
                {
                    "name": "",
                    "type": "uint8"
                }
            ],
            "payable": false,
            "stateMutability": "view",
            "type": "function"
        },
        {
            "constant": true,
            "inputs": [],
            "name": "getCampaignPrimaryInfo",
            "outputs": [
                {
                    "name": "",
                    "type": "bytes32"
                },
                {
                    "name": "",
                    "type": "bool"
                },
                {
                    "name": "",
                    "type": "uint80"
                },
                {
                    "name": "",
                    "type": "uint8"
                }
            ],
            "payable": false,
            "stateMutability": "view",
            "type": "function"
        },
        {
            "constant": true,
            "inputs": [],
            "name": "owner",
            "outputs": [
                {
                    "name": "",
                    "type": "address"
                }
            ],
            "payable": false,
            "stateMutability": "view",
            "type": "function"
        },
        {
            "constant": true,
            "inputs": [],
            "name": "isOwner",
            "outputs": [
                {
                    "name": "",
                    "type": "bool"
                }
            ],
            "payable": false,
            "stateMutability": "view",
            "type": "function"
        },
        {
            "constant": true,
            "inputs": [],
            "name": "startRewardTime",
            "outputs": [
                {
                    "name": "",
                    "type": "uint32"
                }
            ],
            "payable": false,
            "stateMutability": "view",
            "type": "function"
        },
        {
            "constant": true,
            "inputs": [],
            "name": "isOver",
            "outputs": [
                {
                    "name": "",
                    "type": "bool"
                }
            ],
            "payable": false,
            "stateMutability": "view",
            "type": "function"
        },
        {
            "constant": true,
            "inputs": [],
            "name": "metadataHash",
            "outputs": [
                {
                    "name": "",
                    "type": "bytes32"
                }
            ],
            "payable": false,
            "stateMutability": "view",
            "type": "function"
        },
        {
            "constant": true,
            "inputs": [],
            "name": "initialAllocation",
            "outputs": [
                {
                    "name": "",
                    "type": "uint128"
                }
            ],
            "payable": false,
            "stateMutability": "view",
            "type": "function"
        },
        {
            "constant": true,
            "inputs": [],
            "name": "tcHash",
            "outputs": [
                {
                    "name": "",
                    "type": "bytes32"
                }
            ],
            "payable": false,
            "stateMutability": "view",
            "type": "function"
        },
        {
            "constant": false,
            "inputs": [
                {
                    "name": "newOwner",
                    "type": "address"
                }
            ],
            "name": "transferOwnership",
            "outputs": [],
            "payable": false,
            "stateMutability": "nonpayable",
            "type": "function"
        },
        {
            "constant": true,
            "inputs": [],
            "name": "rewardAmount",
            "outputs": [
                {
                    "name": "",
                    "type": "uint80"
                }
            ],
            "payable": false,
            "stateMutability": "view",
            "type": "function"
        },
        {
            "constant": false,
            "inputs": [
                {
                    "name": "_account",
                    "type": "address"
                },
                {
                    "name": "_pob",
                    "type": "bytes32"
                }
            ],
            "name": "reward",
            "outputs": [
                {
                    "name": "",
                    "type": "bool"
                }
            ],
            "payable": false,
            "stateMutability": "nonpayable",
            "type": "function"
        },
        {
            "inputs": [
                {
                    "name": "_optInRegistryAddress",
                    "type": "address"
                },
                {
                    "name": "_proxyOracleAddress",
                    "type": "address"
                },
                {
                    "name": "_startCampaignTime",
                    "type": "uint32"
                },
                {
                    "name": "_endCampaignTime",
                    "type": "uint32"
                },
                {
                    "name": "_startRewardTime",
                    "type": "uint32"
                },
                {
                    "name": "_endRewardTime",
                    "type": "uint32"
                },
                {
                    "name": "_rewardAmount",
                    "type": "uint80"
                },
                {
                    "name": "_campaignType",
                    "type": "uint8"
                },
                {
                    "name": "_customerMaxNumberOfTrigger",
                    "type": "uint8"
                },
                {
                    "name": "_metadataHash",
                    "type": "bytes32"
                },
                {
                    "name": "_imageHash",
                    "type": "bytes32"
                },
                {
                    "name": "_cgvHash",
                    "type": "bytes32"
                }
            ],
            "payable": true,
            "stateMutability": "payable",
            "type": "constructor"
        },
        {
            "anonymous": false,
            "inputs": [
                {
                    "indexed": true,
                    "name": "_rewarded",
                    "type": "address"
                },
                {
                    "indexed": false,
                    "name": "_campaignAddress",
                    "type": "address"
                },
                {
                    "indexed": false,
                    "name": "_rewardAmount",
                    "type": "uint80"
                },
                {
                    "indexed": false,
                    "name": "_pob",
                    "type": "bytes32"
                }
            ],
            "name": "RewardSent",
            "type": "event"
        },
        {
            "anonymous": false,
            "inputs": [
                {
                    "indexed": false,
                    "name": "_campaignAddress",
                    "type": "address"
                }
            ],
            "name": "CampaignEmptied",
            "type": "event"
        },
        {
            "anonymous": false,
            "inputs": [
                {
                    "indexed": false,
                    "name": "_campaignAddress",
                    "type": "address"
                }
            ],
            "name": "CampaignKilledByOwner",
            "type": "event"
        },
        {
            "anonymous": false,
            "inputs": [
                {
                    "indexed": true,
                    "name": "previousOwner",
                    "type": "address"
                }
            ],
            "name": "OwnershipRenounced",
            "type": "event"
        },
        {
            "anonymous": false,
            "inputs": [
                {
                    "indexed": true,
                    "name": "previousOwner",
                    "type": "address"
                },
                {
                    "indexed": true,
                    "name": "newOwner",
                    "type": "address"
                }
            ],
            "name": "OwnershipTransferred",
            "type": "event"
        },
        {
            "constant": true,
            "inputs": [],
            "name": "getTime",
            "outputs": [
                {
                    "name": "",
                    "type": "uint32"
                }
            ],
            "payable": false,
            "stateMutability": "view",
            "type": "function"
        },
        {
            "constant": false,
            "inputs": [
                {
                    "name": "_fakeTime",
                    "type": "uint32"
                }
            ],
            "name": "setTime",
            "outputs": [
                {
                    "name": "",
                    "type": "bool"
                }
            ],
            "payable": false,
            "stateMutability": "nonpayable",
            "type": "function"
        }
    ],
    "bytecode": "0x60806040526040516101808061138c83398101604090815281516020830151918301516060840151608085015160a086015160c087015160e08801516101008901516101208a01516101408b0151610160909b01516000805433600160a060020a031991821617909155600180548216600160a060020a03808e169190911790915560028054909216908d16179055989a97989697959694959394929391929091908b8b8b8b8b8b8b8b8b8b8b8b63ffffffff808916908b16111561014b57604080517f08c379a000000000000000000000000000000000000000000000000000000000815260206004820152603460248201527f43616d706169676e20737461727473206166746572207468652073746172742060448201527f6f66207468652072657761726420706572696f64000000000000000000000000606482015290519081900360840190fd5b63ffffffff80881690891611156101c357604080517f08c379a000000000000000000000000000000000000000000000000000000000815260206004820152601460248201527f456e64206973206265666f72652073746172742e000000000000000000000000604482015290519081900360640190fd5b63ffffffff808a16908816111561026157604080517f08c379a000000000000000000000000000000000000000000000000000000000815260206004820152603660248201527f43616d706169676e2066696e6973686573206265666f72652074686520656e6460448201527f206f66207468652072657761726420706572696f642e00000000000000000000606482015290519081900360840190fd5b6001605060020a0386166000106102d957604080517f08c379a000000000000000000000000000000000000000000000000000000000815260206004820152601460248201527f5265776172642063616e206e6f7420626520302e000000000000000000000000604482015290519081900360640190fd5b346001605060020a038716111561037757604080517f08c379a000000000000000000000000000000000000000000000000000000000815260206004820152602d60248201527f5468657265206d757374206265206174206c6561737420656e6f75676820666f60448201527f72206f6e65207265776172642e00000000000000000000000000000000000000606482015290519081900360840190fd5b60ff841660001061040f57604080517f08c379a000000000000000000000000000000000000000000000000000000000815260206004820152602b60248201527f546865206d6178696d756d206e756d626572206f66207472696767657220636160448201527f6e206e6f7420626520302e000000000000000000000000000000000000000000606482015290519081900360840190fd5b6002805460a060020a63ffffffff0219167401000000000000000000000000000000000000000063ffffffff9c8d1681029190911760c060020a63ffffffff02191678010000000000000000000000000000000000000000000000009b8d169b909b029a909a17600160e060020a03167c0100000000000000000000000000000000000000000000000000000000998c1699909902989098179097556003805463ffffffff1916968a169690961764010000000060a060020a031916640100000000346001608060020a031681029190911760a060020a60f060020a0319166001605060020a03969096169098029490941760f060020a60ff0219167e0100000000000000000000000000000000000000000000000000000000000060ff9485160217600160f860020a03167f01000000000000000000000000000000000000000000000000000000000000009290931691909102919091179092556004919091556005556006556008805467ffffffff0000000019164290931690910291909117905550610dd89c508c9b506105b49a5060009950505050505050505050396000f3006080604052600436106101455763ffffffff60e060020a60003504166302a24770811461014a57806322f3e2d41461017857806329561426146101a15780634209b08d146101b957806346863201146101d157806351605d80146101e6578063557ed1ba1461020d5780635b14ce49146102225780635b588ac6146102395780636037c162146102645780636dc562e1146102795780636f3139451461028e578063715018a61461031457806373c9878814610329578063759dadce1461033e5780637b14b030146103535780638da5cb5b1461039c5780638e98cf44146103cd5780638f32d59b146103eb57806395e9d97314610400578063b4bd9e2714610415578063c5a1d7f01461042a578063d2ecb4f91461043f578063de193fc514610479578063f2fde38b1461048e578063f7b2a7be146104af578063fb4101c0146104e3575b600080fd5b34801561015657600080fd5b5061015f610507565b6040805163ffffffff9092168252519081900360200190f35b34801561018457600080fd5b5061018d610513565b604080519115158252519081900360200190f35b3480156101ad57600080fd5b5061018d60043561055c565b3480156101c557600080fd5b5061018d60043561057a565b3480156101dd57600080fd5b5061015f610598565b3480156101f257600080fd5b506101fb6105c0565b60408051918252519081900360200190f35b34801561021957600080fd5b5061015f6105c6565b34801561022e57600080fd5b506102376105da565b005b34801561024557600080fd5b5061024e610633565b6040805160ff9092168252519081900360200190f35b34801561027057600080fd5b5061015f610643565b34801561028557600080fd5b5061015f610656565b34801561029a57600080fd5b506102a3610662565b604080519a8b5260208b019990995263ffffffff9788168a8a015295871660608a0152938616608089015291851660a088015260ff90811660c0880152931660e08601529091166101008401526fffffffffffffffffffffffffffffffff1661012083015251908190036101400190f35b34801561032057600080fd5b506102376106f4565b34801561033557600080fd5b5061024e61075c565b34801561034a57600080fd5b5061024e61076c565b34801561035f57600080fd5b5061036861077c565b60408051948552921515602085015269ffffffffffffffffffff9091168383015260ff166060830152519081900360800190f35b3480156103a857600080fd5b506103b16107bb565b60408051600160a060020a039092168252519081900360200190f35b3480156103d957600080fd5b5061018d63ffffffff600435166107ca565b3480156103f757600080fd5b5061018d6107f3565b34801561040c57600080fd5b5061015f610804565b34801561042157600080fd5b5061018d610817565b34801561043657600080fd5b506101fb610853565b34801561044b57600080fd5b50610454610859565b604080516fffffffffffffffffffffffffffffffff9092168252519081900360200190f35b34801561048557600080fd5b506101fb610879565b34801561049a57600080fd5b50610237600160a060020a036004351661087f565b3480156104bb57600080fd5b506104c461089e565b6040805169ffffffffffffffffffff9092168252519081900360200190f35b3480156104ef57600080fd5b5061018d600160a060020a03600435166024356108b7565b60035463ffffffff1681565b60025460009060e060020a900463ffffffff1661052e6105c6565b63ffffffff1610158015610557575060035463ffffffff1661054e6105c6565b63ffffffff1611155b905090565b60006105666107f3565b151561057157600080fd5b50600555600190565b60006105846107f3565b151561058f57600080fd5b50600455600190565b6002547801000000000000000000000000000000000000000000000000900463ffffffff1681565b60055481565b600854640100000000900463ffffffff1690565b6105e26107f3565b15156105ed57600080fd5b6040805130815290517ffe54fdc16dcffc711f4f22256d6c2f2c4dc03b6e8656235ab4f1179f23a118cb9181900360200190a16106286107bb565b600160a060020a0316ff5b60035460f060020a900460ff1690565b60025460a060020a900463ffffffff1681565b60085463ffffffff1681565b600554600654600254600354600854336000908152600760205260409020549495939460a060020a840463ffffffff908116957801000000000000000000000000000000000000000000000000860482169560e060020a90048216948281169460f860020a820460ff90811695949091169316916401000000009091046fffffffffffffffffffffffffffffffff1690565b6106fc6107f3565b151561070757600080fd5b60008054604051600160a060020a03909116917ff8df31144d9c2f0f6b59d69b8b98abd5459d07f2742c4df920b25aae33c6482091a26000805473ffffffffffffffffffffffffffffffffffffffff19169055565b60035460f860020a900460ff1681565b60035460f060020a900460ff1681565b60008060008060045461078d610513565b600354919690955060a060020a820469ffffffffffffffffffff16945060f060020a90910460ff1692509050565b600054600160a060020a031690565b6008805463ffffffff83166401000000000267ffffffff00000000199091161790556001919050565b600054600160a060020a0316331490565b60025460e060020a900463ffffffff1681565b6002546000907801000000000000000000000000000000000000000000000000900463ffffffff166108476105c6565b63ffffffff1611905090565b60045481565b60035464010000000090046fffffffffffffffffffffffffffffffff1681565b60065481565b6108876107f3565b151561089257600080fd5b61089b81610c0b565b50565b60035460a060020a900469ffffffffffffffffffff1681565b600254600090600160a060020a0316331461091c576040805160e560020a62461bcd02815260206004820152601460248201527f417574686f72697a6174696f6e2064656e696564000000000000000000000000604482015290519081900360640190fd5b610924610513565b15610b705760035460a060020a900469ffffffffffffffffffff1630311015610997576040805160e560020a62461bcd02815260206004820152601060248201527f4e6f7420656e6f7567682066756e647300000000000000000000000000000000604482015290519081900360640190fd5b6109a18330610c88565b15156109f7576040805160e560020a62461bcd02815260206004820152601b60248201527f55736572206e6f7420656c696769626c6520746f207265776172640000000000604482015290519081900360640190fd5b600354600160a060020a03841660009081526007602052604090205460ff60f860020a9092048216911610610a76576040805160e560020a62461bcd02815260206004820152601160248201527f546f6f206d616e79207472696767657273000000000000000000000000000000604482015290519081900360640190fd5b600160a060020a038316600081815260076020526040808220805460ff198116600160ff9283168101909216179091556008805463ffffffff19811663ffffffff9182169093011691909117905560035490516108fc60a060020a90920469ffffffffffffffffffff1680159290920292818181858888f19350505050158015610b04573d6000803e3d6000fd5b506003546040805130815269ffffffffffffffffffff60a060020a90930492909216602083015281810184905251600160a060020a038516917f31c92c77f4a067b555af9e9ae3821f1c4f376988b66cd92bc4bb6234b4369d29919081900360600190a2506001610c05565b610b78610817565b15610c0557610b85610d30565b1515610c01576040805160e560020a62461bcd02815260206004820152602a60248201527f4572726f72207768696c652072657475726e2063616d706169676e2066756e6460448201527f7320746f206f776e657200000000000000000000000000000000000000000000606482015290519081900360840190fd5b5060015b92915050565b600160a060020a0381161515610c2057600080fd5b60008054604051600160a060020a03808516939216917f8be0079c531659141344cd1fd0a4f28419497f9722a3daafe3b4186f6b6457e091a36000805473ffffffffffffffffffffffffffffffffffffffff1916600160a060020a0392909216919091179055565b600154604080517f07c05aff000000000000000000000000000000000000000000000000000000008152600160a060020a03858116600483015284811660248301529151600093929092169182916307c05aff91604480830192602092919082900301818887803b158015610cfc57600080fd5b505af1158015610d10573d6000803e3d6000fd5b505050506040513d6020811015610d2657600080fd5b5051949350505050565b6000610d3a6107bb565b604051600160a060020a039190911690303180156108fc02916000818181858888f19350505050158015610d72573d6000803e3d6000fd5b506040805130815290517ff344d7499500b68d6e3e8d7f605cf9f5d120fca3603e15aa1a7824cf41efaada9181900360200190a1506001905600a165627a7a72305820b760b66ba17e2db7f3229c6107c8ec99a92d51a3364ada5fd5c234ca826d95170029",
    "source": "pragma solidity ^0.4.24;\n\nimport \"./Campaign.sol\";\n\n\ncontract MockCampaign is Campaign {\n\n  /* Fake Time of the contract */\n  uint32 fakeTime;\n\n  /**\n    * @dev Creates a campaign and initializes the fakeTime\n    * @param _optInRegistryAddress Address of the opt in registry\n    * @param _proxyOracleAddress Address of the proxy oracle registry\n    * @param _startCampaignTime Time of the start of the campaign\n    * @param _endCampaignTime Time of the end of the campaign\n    * @param _startRewardTime Time of the start of the reward window for the campaign\n    * @param _endRewardTime Time of the end of the reward window for the campaign\n    * @param _rewardAmount Amount of the reward\n    * @param _campaignType Type of the campaign\n    * @param _customerMaxNumberOfTrigger Maximum number of trigger per customer\n    * @param _metadataHash IPFS hash of the metadata\n    * @param _imageHash IPFS hash of the image\n    * @param _cgvHash IPFS hash of the cgv\n    */\n  constructor(\n    address _optInRegistryAddress,\n    address _proxyOracleAddress,\n    uint32 _startCampaignTime,\n    uint32 _endCampaignTime,\n    uint32 _startRewardTime,\n    uint32 _endRewardTime,\n    uint80 _rewardAmount,\n    uint8 _campaignType,\n    uint8 _customerMaxNumberOfTrigger,\n    bytes32 _metadataHash,\n    bytes32 _imageHash,\n    bytes32 _cgvHash\n  )\n    Campaign(\n      _optInRegistryAddress,\n      _proxyOracleAddress,\n      _startCampaignTime,\n      _endCampaignTime,\n      _startRewardTime,\n      _endRewardTime,\n      _rewardAmount,\n      _campaignType,\n      _customerMaxNumberOfTrigger,\n      _metadataHash,\n      _imageHash,\n      _cgvHash\n    )\n    public\n    payable\n  {\n    fakeTime = uint32(block.timestamp);\n  }\n\n  /**\n    * @dev Gets the fakeTime\n    */\n  function getTime() public view returns (uint32) {\n    return fakeTime;\n  }\n\n  /**\n    * @dev set the fake time of the contract\n    * @param _fakeTime The fake time to be set\n    */\n  function setTime(uint32 _fakeTime) public returns (bool) {\n    fakeTime = _fakeTime;\n\n    return true;\n  }\n}\n",
    "sourcePath": "/Users/vincent/Documents/Consensys/OCCI/urp-solidity/contracts/Campaign/MockCampaign.sol",
    "compiler": {
        "name": "solc",
        "version": "0.4.24+commit.e67f0147.Emscripten.clang"
    },
    "schemaVersion": "2.0.0",
    "updatedAt": "2018-11-07T13:15:57.331Z"
}