{
    "contractName": "MockOptInRegistry",
    "abi": [
        {
            "constant": true,
            "inputs": [
                {
                    "name": "_userAddress",
                    "type": "address"
                },
                {
                    "name": "_campaignAddress",
                    "type": "address"
                }
            ],
            "name": "hasOptedIn",
            "outputs": [
                {
                    "name": "",
                    "type": "bool"
                }
            ],
            "payable": false,
            "stateMutability": "view",
            "type": "function"
        },
        {
            "constant": true,
            "inputs": [
                {
                    "name": "_campaignAddress",
                    "type": "address"
                }
            ],
            "name": "getCampaignOptinCount",
            "outputs": [
                {
                    "name": "",
                    "type": "uint32"
                }
            ],
            "payable": false,
            "stateMutability": "view",
            "type": "function"
        },
        {
            "constant": true,
            "inputs": [],
            "name": "getUserCampaigns",
            "outputs": [
                {
                    "name": "",
                    "type": "address[]"
                }
            ],
            "payable": false,
            "stateMutability": "view",
            "type": "function"
        },
        {
            "constant": true,
            "inputs": [
                {
                    "name": "_userAddress",
                    "type": "address"
                }
            ],
            "name": "getUserOptinCount",
            "outputs": [
                {
                    "name": "",
                    "type": "uint24"
                }
            ],
            "payable": false,
            "stateMutability": "view",
            "type": "function"
        },
        {
            "constant": false,
            "inputs": [
                {
                    "name": "_campaignAddress",
                    "type": "address"
                }
            ],
            "name": "optInToCampaign",
            "outputs": [
                {
                    "name": "",
                    "type": "uint24"
                }
            ],
            "payable": false,
            "stateMutability": "nonpayable",
            "type": "function"
        },
        {
            "constant": false,
            "inputs": [
                {
                    "name": "_campaignAddress",
                    "type": "address"
                }
            ],
            "name": "optOutToCampaign",
            "outputs": [
                {
                    "name": "",
                    "type": "uint24"
                }
            ],
            "payable": false,
            "stateMutability": "nonpayable",
            "type": "function"
        },
        {
            "constant": true,
            "inputs": [
                {
                    "name": "",
                    "type": "address"
                }
            ],
            "name": "campaignOptInCounts",
            "outputs": [
                {
                    "name": "",
                    "type": "uint32"
                }
            ],
            "payable": false,
            "stateMutability": "view",
            "type": "function"
        },
        {
            "anonymous": false,
            "inputs": [
                {
                    "indexed": true,
                    "name": "userAddress",
                    "type": "address"
                },
                {
                    "indexed": true,
                    "name": "campaignAddress",
                    "type": "address"
                },
                {
                    "indexed": false,
                    "name": "campaignIndex",
                    "type": "uint24"
                }
            ],
            "name": "OptedIn",
            "type": "event"
        },
        {
            "anonymous": false,
            "inputs": [
                {
                    "indexed": true,
                    "name": "userAddress",
                    "type": "address"
                },
                {
                    "indexed": true,
                    "name": "campaignAddress",
                    "type": "address"
                },
                {
                    "indexed": false,
                    "name": "campaignIndex",
                    "type": "uint24"
                }
            ],
            "name": "OptedOut",
            "type": "event"
        },
        {
            "constant": false,
            "inputs": [],
            "name": "kill",
            "outputs": [],
            "payable": false,
            "stateMutability": "nonpayable",
            "type": "function"
        }
    ],
    "bytecode": "0x608060405234801561001057600080fd5b506107f4806100206000396000f30060806040526004361061008d5763ffffffff7c010000000000000000000000000000000000000000000000000000000060003504166307c05aff811461009257806307f74a15146100cd5780630e274ae214610107578063130098901461016c57806341c0e1b5146101a55780636b99be11146101bc57806380a3275d146101dd5780639753dc80146101fe575b600080fd5b34801561009e57600080fd5b506100b9600160a060020a036004358116906024351661021f565b604080519115158252519081900360200190f35b3480156100d957600080fd5b506100ee600160a060020a03600435166102f1565b6040805163ffffffff9092168252519081900360200190f35b34801561011357600080fd5b5061011c610312565b60408051602080825283518183015283519192839290830191858101910280838360005b83811015610158578181015183820152602001610140565b505050509050019250505060405180910390f35b34801561017857600080fd5b5061018d600160a060020a03600435166103e3565b6040805162ffffff9092168252519081900360200190f35b3480156101b157600080fd5b506101ba6103fe565b005b3480156101c857600080fd5b5061018d600160a060020a0360043516610402565b3480156101e957600080fd5b5061018d600160a060020a0360043516610572565b34801561020a57600080fd5b506100ee600160a060020a0360043516610769565b6000828233600160a060020a0383161480610242575033600160a060020a038216145b15156102be576040805160e560020a62461bcd02815260206004820152603660248201527f5468652073656e646572206e6565647320746f2062652065697468657220746860448201527f652075736572206f72207468652063616d706169676e00000000000000000000606482015290519081900360840190fd5b505050600160a060020a039182166000908152602081815260408083209390941682526001909201909152205460ff1690565b600160a060020a031660009081526001602052604090205463ffffffff1690565b33600090815260208190526040902054606090151561037b576040805160e560020a62461bcd02815260206004820152600e60248201527f556e6b6e6f776e20757365722021000000000000000000000000000000000000604482015290519081900360640190fd5b3360009081526020818152604091829020805483518184028101840190945280845290918301828280156103d857602002820191906000526020600020905b8154600160a060020a031681526001909101906020018083116103ba575b505050505090505b90565b600160a060020a031660009081526020819052604090205490565b6000ff5b60008061040f338461021f565b1561048a576040805160e560020a62461bcd02815260206004820152602e60248201527f546865207573657220697320616c7265616479206f7074656420696e20746f2060448201527f746869732063616d706169676e2e000000000000000000000000000000000000606482015290519081900360840190fd5b5033600081815260208181526040808320600160a060020a0387168085526001808301808652848720805460ff191683178155845480840186558589528789208101805473ffffffffffffffffffffffffffffffffffffffff191686179055848952815463ffffff00191661010062ffffff928316810291909117835584895298879020805463ffffffff19811663ffffffff918216909601169490941790935590865254845196900416855291519094919391927f2675becba1e8fd6f0795f945e8ece85b6d61023d83cfe30d860d1819fb607081928290030190a3546000190192915050565b600080600080610582338661021f565b15156105fe576040805160e560020a62461bcd02815260206004820152602d60248201527f546865207573657220646964206e6f74206f707420696e2c207468657920636160448201527f6e6e6f74206f7074206f75742e00000000000000000000000000000000000000606482015290519081900360840190fd5b33600090815260208181526040808320600160a060020a038916845260018101909252909120805460ff1916908190558154919450610100900462ffffff1692508390600019810190811061064f57fe5b6000918252602090912001548354600160a060020a0390911691508190849062ffffff851690811061067d57fe5b6000918252602080832091909101805473ffffffffffffffffffffffffffffffffffffffff1916600160a060020a0394851617905533825281815260408083209385168352600193909301905220805463ffffff00191661010062ffffff85160217905582546106f1846000198301610781565b50600160a060020a038516600081815260016020908152604091829020805463ffffffff19811663ffffffff91821660001901909116179055815162ffffff86168152915133927f3b6922e2c6a109acf62d3ae4ee624b56e34128b3e240c8da5db8e2bcaff78e0192908290030190a3509392505050565b60016020526000908152604090205463ffffffff1681565b8154818355818111156107a5576000838152602090206107a59181019083016107aa565b505050565b6103e091905b808211156107c457600081556001016107b0565b50905600a165627a7a72305820f474c20b1e0b4b84ca732219ce9257d9a9055e9d52d125015c0dfade53e926810029",
    "source": "pragma solidity ^0.4.24;\n\nimport \"./OptInRegistry.sol\";\n\n\ncontract MockOptInRegistry is OptInRegistry {\n\n  function kill()\n    public\n  {\n    selfdestruct(address(0));\n  }\n}",
    "sourcePath": "/Users/vincent/Documents/Consensys/OCCI/urp-solidity/contracts/Campaign/MockOptInRegistry.sol",
    "compiler": {
        "name": "solc",
        "version": "0.4.24+commit.e67f0147.Emscripten.clang"
    },
    "schemaVersion": "2.0.0",
    "updatedAt": "2018-11-07T13:15:57.325Z"
}