{
    "contractName": "OptInRegistry",
    "abi": [
        {
            "constant": true,
            "inputs": [
                {
                    "name": "",
                    "type": "address"
                }
            ],
            "name": "campaignOptInCounts",
            "outputs": [
                {
                    "name": "",
                    "type": "uint32"
                }
            ],
            "payable": false,
            "stateMutability": "view",
            "type": "function"
        },
        {
            "anonymous": false,
            "inputs": [
                {
                    "indexed": true,
                    "name": "userAddress",
                    "type": "address"
                },
                {
                    "indexed": true,
                    "name": "campaignAddress",
                    "type": "address"
                },
                {
                    "indexed": false,
                    "name": "campaignIndex",
                    "type": "uint24"
                }
            ],
            "name": "OptedIn",
            "type": "event"
        },
        {
            "anonymous": false,
            "inputs": [
                {
                    "indexed": true,
                    "name": "userAddress",
                    "type": "address"
                },
                {
                    "indexed": true,
                    "name": "campaignAddress",
                    "type": "address"
                },
                {
                    "indexed": false,
                    "name": "campaignIndex",
                    "type": "uint24"
                }
            ],
            "name": "OptedOut",
            "type": "event"
        },
        {
            "constant": true,
            "inputs": [
                {
                    "name": "_userAddress",
                    "type": "address"
                },
                {
                    "name": "_campaignAddress",
                    "type": "address"
                }
            ],
            "name": "hasOptedIn",
            "outputs": [
                {
                    "name": "",
                    "type": "bool"
                }
            ],
            "payable": false,
            "stateMutability": "view",
            "type": "function"
        },
        {
            "constant": false,
            "inputs": [
                {
                    "name": "_campaignAddress",
                    "type": "address"
                }
            ],
            "name": "optInToCampaign",
            "outputs": [
                {
                    "name": "",
                    "type": "uint24"
                }
            ],
            "payable": false,
            "stateMutability": "nonpayable",
            "type": "function"
        },
        {
            "constant": false,
            "inputs": [
                {
                    "name": "_campaignAddress",
                    "type": "address"
                }
            ],
            "name": "optOutToCampaign",
            "outputs": [
                {
                    "name": "",
                    "type": "uint24"
                }
            ],
            "payable": false,
            "stateMutability": "nonpayable",
            "type": "function"
        },
        {
            "constant": true,
            "inputs": [],
            "name": "getUserCampaigns",
            "outputs": [
                {
                    "name": "",
                    "type": "address[]"
                }
            ],
            "payable": false,
            "stateMutability": "view",
            "type": "function"
        },
        {
            "constant": true,
            "inputs": [
                {
                    "name": "_userAddress",
                    "type": "address"
                }
            ],
            "name": "getUserOptinCount",
            "outputs": [
                {
                    "name": "",
                    "type": "uint24"
                }
            ],
            "payable": false,
            "stateMutability": "view",
            "type": "function"
        },
        {
            "constant": true,
            "inputs": [
                {
                    "name": "_campaignAddress",
                    "type": "address"
                }
            ],
            "name": "getCampaignOptinCount",
            "outputs": [
                {
                    "name": "",
                    "type": "uint32"
                }
            ],
            "payable": false,
            "stateMutability": "view",
            "type": "function"
        }
    ],
    "bytecode": "0x608060405234801561001057600080fd5b506107ce806100206000396000f3006080604052600436106100825763ffffffff7c010000000000000000000000000000000000000000000000000000000060003504166307c05aff811461008757806307f74a15146100c25780630e274ae2146100fc57806313009890146101615780636b99be111461019a57806380a3275d146101bb5780639753dc80146101dc575b600080fd5b34801561009357600080fd5b506100ae600160a060020a03600435811690602435166101fd565b604080519115158252519081900360200190f35b3480156100ce57600080fd5b506100e3600160a060020a03600435166102cf565b6040805163ffffffff9092168252519081900360200190f35b34801561010857600080fd5b506101116102f0565b60408051602080825283518183015283519192839290830191858101910280838360005b8381101561014d578181015183820152602001610135565b505050509050019250505060405180910390f35b34801561016d57600080fd5b50610182600160a060020a03600435166103c1565b6040805162ffffff9092168252519081900360200190f35b3480156101a657600080fd5b50610182600160a060020a03600435166103dc565b3480156101c757600080fd5b50610182600160a060020a036004351661054c565b3480156101e857600080fd5b506100e3600160a060020a0360043516610743565b6000828233600160a060020a0383161480610220575033600160a060020a038216145b151561029c576040805160e560020a62461bcd02815260206004820152603660248201527f5468652073656e646572206e6565647320746f2062652065697468657220746860448201527f652075736572206f72207468652063616d706169676e00000000000000000000606482015290519081900360840190fd5b505050600160a060020a039182166000908152602081815260408083209390941682526001909201909152205460ff1690565b600160a060020a031660009081526001602052604090205463ffffffff1690565b336000908152602081905260409020546060901515610359576040805160e560020a62461bcd02815260206004820152600e60248201527f556e6b6e6f776e20757365722021000000000000000000000000000000000000604482015290519081900360640190fd5b3360009081526020818152604091829020805483518184028101840190945280845290918301828280156103b657602002820191906000526020600020905b8154600160a060020a03168152600190910190602001808311610398575b505050505090505b90565b600160a060020a031660009081526020819052604090205490565b6000806103e933846101fd565b15610464576040805160e560020a62461bcd02815260206004820152602e60248201527f546865207573657220697320616c7265616479206f7074656420696e20746f2060448201527f746869732063616d706169676e2e000000000000000000000000000000000000606482015290519081900360840190fd5b5033600081815260208181526040808320600160a060020a0387168085526001808301808652848720805460ff191683178155845480840186558589528789208101805473ffffffffffffffffffffffffffffffffffffffff191686179055848952815463ffffff00191661010062ffffff928316810291909117835584895298879020805463ffffffff19811663ffffffff918216909601169490941790935590865254845196900416855291519094919391927f2675becba1e8fd6f0795f945e8ece85b6d61023d83cfe30d860d1819fb607081928290030190a3546000190192915050565b60008060008061055c33866101fd565b15156105d8576040805160e560020a62461bcd02815260206004820152602d60248201527f546865207573657220646964206e6f74206f707420696e2c207468657920636160448201527f6e6e6f74206f7074206f75742e00000000000000000000000000000000000000606482015290519081900360840190fd5b33600090815260208181526040808320600160a060020a038916845260018101909252909120805460ff1916908190558154919450610100900462ffffff1692508390600019810190811061062957fe5b6000918252602090912001548354600160a060020a0390911691508190849062ffffff851690811061065757fe5b6000918252602080832091909101805473ffffffffffffffffffffffffffffffffffffffff1916600160a060020a0394851617905533825281815260408083209385168352600193909301905220805463ffffff00191661010062ffffff85160217905582546106cb84600019830161075b565b50600160a060020a038516600081815260016020908152604091829020805463ffffffff19811663ffffffff91821660001901909116179055815162ffffff86168152915133927f3b6922e2c6a109acf62d3ae4ee624b56e34128b3e240c8da5db8e2bcaff78e0192908290030190a3509392505050565b60016020526000908152604090205463ffffffff1681565b81548183558181111561077f5760008381526020902061077f918101908301610784565b505050565b6103be91905b8082111561079e576000815560010161078a565b50905600a165627a7a72305820d03c60dc5f7d1a9ec6329e2e6eed06f46d91a45847001bb979af48a6b8ad0cbf0029",
    "source": "pragma solidity ^0.4.24;\n\n\ncontract OptInRegistry {\n\n  /* Stores the status of an opt-in for a given user address and campaign address */\n  struct OptinStruct {\n    bool hasOptedIn;\n    uint24 index;\n  }\n\n  /* Stores all the opt-ins of a given user, and a list of all the corresponding campaign addresses */\n  struct UserOptins {\n    address[] campaigns;\n    mapping(address => OptinStruct) optinStructs;\n  }\n\n  /* Stores all the opt-ins for all users */\n  mapping(address => UserOptins) private allUsersOptins;\n\n  /* Stores the number of people currently opted into this campaign. Decreases with each opt-out. */\n  mapping(address => uint32) public campaignOptInCounts;\n\n  event OptedIn(address indexed userAddress, address indexed campaignAddress, uint24 campaignIndex);\n  event OptedOut(address indexed userAddress, address indexed campaignAddress, uint24 campaignIndex);\n\n  /**\n    * @dev Checks that the user sending the transaction is already known\n    */\n  modifier knownUser() {\n    require(allUsersOptins[msg.sender].campaigns.length != 0, \"Unknown user !\");\n    _;\n  }\n\n  /**\n    * @dev Checks that the transaction is sent by either the user's account or the campaign contract\n    */\n  modifier requestedByUserOrCampaign(address _userAddress, address _campaignAddress) {\n    require((msg.sender == _userAddress) || (msg.sender == _campaignAddress), \"The sender needs to be either the user or the campaign\");\n    _;\n  }\n\n  /**\n    * @dev Checks whether a user has opted into a campaign\n    * @param _userAddress Address of the user account\n    * @param _campaignAddress Address of the campaign contract\n    */\n  function hasOptedIn(\n    address _userAddress,\n    address _campaignAddress\n  )\n    public\n    view\n    requestedByUserOrCampaign(_userAddress, _campaignAddress)\n    returns(bool)\n  {\n    return allUsersOptins[_userAddress].optinStructs[_campaignAddress].hasOptedIn;\n  }\n\n  /**\n    * @dev Records a user's opt-in to a campaign\n    * @param _campaignAddress Address of the campaign contract\n    */\n  function optInToCampaign(\n    address _campaignAddress)\n    public\n    returns(uint24)\n  {\n    require(!hasOptedIn(msg.sender, _campaignAddress), \"The user is already opted in to this campaign.\");\n\n    UserOptins storage userOptins = allUsersOptins[msg.sender];\n    userOptins.optinStructs[_campaignAddress].hasOptedIn = true;\n\n    // Simultaneously add element in campaigns and set the index in the OptinStruct\n    userOptins.optinStructs[_campaignAddress].index = uint24(userOptins.campaigns.push(_campaignAddress)-1);\n    campaignOptInCounts[_campaignAddress]++;\n    emit OptedIn(\n      msg.sender,\n      _campaignAddress,\n      userOptins.optinStructs[_campaignAddress].index);\n    return uint24(userOptins.campaigns.length-1);\n  }\n\n  /**\n    * @dev Records a user's opt-out from a campaign, which is equivalent to removing the previously given opt-in\n    * @param _campaignAddress Address of the campaign contract\n    */\n  function optOutToCampaign(\n    address _campaignAddress\n  )\n    public\n    returns(uint24)\n  {\n    require(hasOptedIn(msg.sender, _campaignAddress), \"The user did not opt in, they cannot opt out.\");\n\n    address[] storage campaignsForThisUser = allUsersOptins[msg.sender].campaigns;\n\n    // Set the boolean back to false before removing the campaign from campaigns\n    // Otherwise if directly access the struct hasOptedIn reads True\n    allUsersOptins[msg.sender].optinStructs[_campaignAddress].hasOptedIn = false;\n\n    // Defining the index of element to delete and of last element\n    uint24 rowToDelete = allUsersOptins[msg.sender].optinStructs[_campaignAddress].index;\n    address keyToMove = campaignsForThisUser[campaignsForThisUser.length-1];\n\n    // Switching element to delete with the last element in the array\n    campaignsForThisUser[rowToDelete] = keyToMove;\n    allUsersOptins[msg.sender].optinStructs[keyToMove].index = rowToDelete;\n\n    // Deletion of last element in campaigns, which\n    // otherwise would be present twice in the list\n    campaignsForThisUser.length--;\n    campaignOptInCounts[_campaignAddress]--;\n\n    emit OptedOut(\n      msg.sender,\n      _campaignAddress,\n      rowToDelete);\n\n    return rowToDelete;\n  }\n\n  /**\n    * @dev Returns all campaigns for which a user has given an opt-in\n    */\n  function getUserCampaigns()\n    public\n    view\n    knownUser\n    returns(address[])\n  {\n    return allUsersOptins[msg.sender].campaigns;\n  }\n\n  // Not RequestedFromUser because it might be good for surveying users' activity\n  /**\n    * @dev Returns the number of opt-ins a user has given\n    * @param _userAddress Address of the user account\n    */\n  function getUserOptinCount(\n    address _userAddress\n  )\n    public\n    view\n    returns(uint24)\n  {\n    return uint24(allUsersOptins[_userAddress].campaigns.length);\n  }\n\n  function getCampaignOptinCount(\n    address _campaignAddress\n  )\n    public\n    view\n    returns(uint32)\n  {\n    return campaignOptInCounts[_campaignAddress];\n  }\n}\n",
    "sourcePath": "/Users/vincent/Documents/Consensys/OCCI/urp-solidity/contracts/Campaign/OptInRegistry.sol",
    "compiler": {
        "name": "solc",
        "version": "0.4.24+commit.e67f0147.Emscripten.clang"
    },
    "schemaVersion": "2.0.0",
    "updatedAt": "2018-11-07T13:15:57.376Z"
}