{
    "contractName": "ProxyOracleRegistry",
    "abi": [
        {
            "constant": false,
            "inputs": [],
            "name": "renounceOwnership",
            "outputs": [],
            "payable": false,
            "stateMutability": "nonpayable",
            "type": "function"
        },
        {
            "constant": true,
            "inputs": [],
            "name": "owner",
            "outputs": [
                {
                    "name": "",
                    "type": "address"
                }
            ],
            "payable": false,
            "stateMutability": "view",
            "type": "function"
        },
        {
            "constant": true,
            "inputs": [],
            "name": "isOwner",
            "outputs": [
                {
                    "name": "",
                    "type": "bool"
                }
            ],
            "payable": false,
            "stateMutability": "view",
            "type": "function"
        },
        {
            "constant": false,
            "inputs": [
                {
                    "name": "newOwner",
                    "type": "address"
                }
            ],
            "name": "transferOwnership",
            "outputs": [],
            "payable": false,
            "stateMutability": "nonpayable",
            "type": "function"
        },
        {
            "anonymous": false,
            "inputs": [
                {
                    "indexed": false,
                    "name": "_oracleAddress",
                    "type": "address"
                },
                {
                    "indexed": false,
                    "name": "_oracleType",
                    "type": "uint8"
                },
                {
                    "indexed": false,
                    "name": "_oracleIndex",
                    "type": "uint16"
                }
            ],
            "name": "OracleRegistered",
            "type": "event"
        },
        {
            "anonymous": false,
            "inputs": [
                {
                    "indexed": false,
                    "name": "_oracleAddress",
                    "type": "address"
                },
                {
                    "indexed": false,
                    "name": "_oracleIndex",
                    "type": "uint16"
                }
            ],
            "name": "OracleDeleted",
            "type": "event"
        },
        {
            "anonymous": false,
            "inputs": [
                {
                    "indexed": true,
                    "name": "_rewarded",
                    "type": "address"
                },
                {
                    "indexed": true,
                    "name": "_oracleAddress",
                    "type": "address"
                },
                {
                    "indexed": true,
                    "name": "_campaignAddress",
                    "type": "address"
                },
                {
                    "indexed": false,
                    "name": "_pob",
                    "type": "bytes32"
                }
            ],
            "name": "RewardRequested",
            "type": "event"
        },
        {
            "anonymous": false,
            "inputs": [
                {
                    "indexed": true,
                    "name": "previousOwner",
                    "type": "address"
                }
            ],
            "name": "OwnershipRenounced",
            "type": "event"
        },
        {
            "anonymous": false,
            "inputs": [
                {
                    "indexed": true,
                    "name": "previousOwner",
                    "type": "address"
                },
                {
                    "indexed": true,
                    "name": "newOwner",
                    "type": "address"
                }
            ],
            "name": "OwnershipTransferred",
            "type": "event"
        },
        {
            "constant": true,
            "inputs": [
                {
                    "name": "_oracleAddress",
                    "type": "address"
                }
            ],
            "name": "getOracleType",
            "outputs": [
                {
                    "name": "",
                    "type": "uint8"
                }
            ],
            "payable": false,
            "stateMutability": "view",
            "type": "function"
        },
        {
            "constant": true,
            "inputs": [
                {
                    "name": "_oracleAddress",
                    "type": "address"
                }
            ],
            "name": "isOracle",
            "outputs": [
                {
                    "name": "",
                    "type": "bool"
                }
            ],
            "payable": false,
            "stateMutability": "view",
            "type": "function"
        },
        {
            "constant": true,
            "inputs": [
                {
                    "name": "_oracleAddress",
                    "type": "address"
                }
            ],
            "name": "getIndex",
            "outputs": [
                {
                    "name": "",
                    "type": "uint16"
                }
            ],
            "payable": false,
            "stateMutability": "view",
            "type": "function"
        },
        {
            "constant": false,
            "inputs": [
                {
                    "name": "_oracleAddress",
                    "type": "address"
                }
            ],
            "name": "deleteOracle",
            "outputs": [
                {
                    "name": "",
                    "type": "uint16"
                }
            ],
            "payable": false,
            "stateMutability": "nonpayable",
            "type": "function"
        },
        {
            "constant": false,
            "inputs": [
                {
                    "name": "_oracleAddress",
                    "type": "address"
                },
                {
                    "name": "_oracleType",
                    "type": "uint8"
                }
            ],
            "name": "registerOracle",
            "outputs": [
                {
                    "name": "",
                    "type": "uint16"
                }
            ],
            "payable": false,
            "stateMutability": "nonpayable",
            "type": "function"
        },
        {
            "constant": false,
            "inputs": [
                {
                    "name": "_account",
                    "type": "address"
                },
                {
                    "name": "_campaign",
                    "type": "address"
                },
                {
                    "name": "_pob",
                    "type": "bytes32"
                }
            ],
            "name": "triggerReward",
            "outputs": [
                {
                    "name": "",
                    "type": "bool"
                }
            ],
            "payable": false,
            "stateMutability": "nonpayable",
            "type": "function"
        },
        {
            "constant": false,
            "inputs": [],
            "name": "kill",
            "outputs": [],
            "payable": false,
            "stateMutability": "nonpayable",
            "type": "function"
        }
    ],
    "bytecode": "0x608060405260008054600160a060020a031916331790556109c6806100256000396000f3006080604052600436106100ae5763ffffffff7c01000000000000000000000000000000000000000000000000000000006000350416630d711a9f81146100b35780631d5bd37e146100eb57806341c0e1b514610112578063715018a61461012957806389f232511461013e5780638da5cb5b1461017c5780638f32d59b146101ad578063a97e5c93146101c2578063b31610db146101e3578063c456de9214610204578063f2fde38b1461023b575b600080fd5b3480156100bf57600080fd5b506100d4600160a060020a036004351661025c565b6040805161ffff9092168252519081900360200190f35b3480156100f757600080fd5b506100d4600160a060020a036004351660ff602435166103a9565b34801561011e57600080fd5b506101276104c2565b005b34801561013557600080fd5b506101276104e8565b34801561014a57600080fd5b50610168600160a060020a0360043581169060243516604435610550565b604080519115158252519081900360200190f35b34801561018857600080fd5b50610191610800565b60408051600160a060020a039092168252519081900360200190f35b3480156101b957600080fd5b50610168610810565b3480156101ce57600080fd5b50610168600160a060020a0360043516610821565b3480156101ef57600080fd5b506100d4600160a060020a0360043516610846565b34801561021057600080fd5b50610225600160a060020a036004351661087c565b6040805160ff9092168252519081900360200190f35b34801561024757600080fd5b50610127600160a060020a03600435166108b7565b6000806000610269610810565b151561027457600080fd5b61027d84610821565b151561028857600080fd5b600160a060020a0384166000908152600260205260409020805463ff0000001981169091556001805461ffff90921693509060001981019081106102c857fe5b60009182526020909120015460018054600160a060020a039092169250829161ffff85169081106102f557fe5b6000918252602080832091909101805473ffffffffffffffffffffffffffffffffffffffff1916600160a060020a039485161790559186168152600290915260409020805461ffff191661ffff8416179055600180549061035a906000198301610953565b5060408051600160a060020a038616815261ffff8416602082015281517f91c14b200ca501e6d30042565980b991b981fa8634253b656a7793edd0323eee929181900390910190a15092915050565b6000806103b4610810565b15156103bf57600080fd5b6103c884610821565b156103d257600080fd5b50600160a060020a0383166000818152600260209081526040918290208054630100000063ff000000199091161762ff000019166201000060ff88169081029190911782556001805480820182557fb10e2d527612073b26eecdfd717e6a320cf44b4afac2b0732d9fcbe2b7fa0cf68101805473ffffffffffffffffffffffffffffffffffffffff191688179055835461ffff191661ffff91821617909355548451958652928501526000199190910190811683830152905190917f25380a0b2dd3b030ca210af564e0efb9973e2dc10d71927ff51003503a1cf0b5916060918190039190910190a19392505050565b6104ca610810565b15156104d557600080fd5b6104dd610800565b600160a060020a0316ff5b6104f0610810565b15156104fb57600080fd5b60008054604051600160a060020a03909116917ff8df31144d9c2f0f6b59d69b8b98abd5459d07f2742c4df920b25aae33c6482091a26000805473ffffffffffffffffffffffffffffffffffffffff19169055565b6040805182815290516000918291600160a060020a03808716923392918916917fd63e4639374582a4f5b3dec836ef8f4867e1b73a8e4a6cb0a556184f7de1e8759181900360200190a46105a333610821565b151561063657604080517f08c379a000000000000000000000000000000000000000000000000000000000815260206004820152603460248201527f526577617264696e672073686f756c642062652074726967676572656420627960448201527f20612072656769737465726564206f7261636c65000000000000000000000000606482015290519081900360840190fd5b83905080600160a060020a0316635b588ac66040518163ffffffff167c0100000000000000000000000000000000000000000000000000000000028152600401602060405180830381600087803b15801561069057600080fd5b505af11580156106a4573d6000803e3d6000fd5b505050506040513d60208110156106ba57600080fd5b505160ff166106c83361087c565b60ff161461075d57604080517f08c379a000000000000000000000000000000000000000000000000000000000815260206004820152602960248201527f5479706573206f66206f7261636c6520616e642063616d706169676e20646f2060448201527f6e6f74206d617463680000000000000000000000000000000000000000000000606482015290519081900360840190fd5b604080517ffb4101c0000000000000000000000000000000000000000000000000000000008152600160a060020a0387811660048301526024820186905291519183169163fb4101c0916044808201926020929091908290030181600087803b1580156107c957600080fd5b505af11580156107dd573d6000803e3d6000fd5b505050506040513d60208110156107f357600080fd5b5060019695505050505050565b600054600160a060020a03165b90565b600054600160a060020a0316331490565b600160a060020a03166000908152600260205260409020546301000000900460ff1690565b600061085182610821565b151561085c57600080fd5b50600160a060020a031660009081526002602052604090205461ffff1690565b600061088782610821565b151561089257600080fd5b50600160a060020a031660009081526002602052604090205462010000900460ff1690565b6108bf610810565b15156108ca57600080fd5b6108d3816108d6565b50565b600160a060020a03811615156108eb57600080fd5b60008054604051600160a060020a03808516939216917f8be0079c531659141344cd1fd0a4f28419497f9722a3daafe3b4186f6b6457e091a36000805473ffffffffffffffffffffffffffffffffffffffff1916600160a060020a0392909216919091179055565b8154818355818111156109775760008381526020902061097791810190830161097c565b505050565b61080d91905b808211156109965760008155600101610982565b50905600a165627a7a72305820e136ec887b78f529ae8507dab0cb42a564314ff1ddf58cdff132d45f5e77c86b0029",
    "source": "pragma solidity ^0.4.24;\n\nimport \"openzeppelin-solidity/contracts/ownership/Ownable.sol\";\n\nimport \"./../Campaign/ICampaign.sol\";\n\n\ncontract ProxyOracleRegistry is Ownable {\n\n  /* Struct storing the fact that an Oracle has registered */\n  struct Oracle {\n    uint16 index;\n    uint8 oracleType;\n    bool isOracle;\n  }\n\n  /* All oracles currently registered */\n  address[] oracles;\n\n  /* Storing the details of a registered oracle */\n  mapping(address => Oracle) oracleDetails;\n\n  event OracleRegistered(address _oracleAddress, uint8 _oracleType, uint16 _oracleIndex);\n  event OracleDeleted(address _oracleAddress, uint16 _oracleIndex);\n\n  /* Fired each time the reward function is called */\n  event RewardRequested(address indexed _rewarded, address indexed _oracleAddress, address indexed _campaignAddress, bytes32 _pob);\n\n  /**\n    * @dev Gets the type of the Oracle (the type of campaign it can be an oracle for)\n    */\n  function getOracleType(\n    address _oracleAddress\n  )\n    public\n    view\n    returns (uint8)\n  {\n    require (isOracle(_oracleAddress));\n    return (oracleDetails[_oracleAddress].oracleType);\n  }\n\n  /**\n    * @dev Checks whether an oracle is registered\n    */\n  function isOracle(\n    address _oracleAddress\n  )\n    public\n    view\n    returns (bool)\n  {\n    return oracleDetails[_oracleAddress].isOracle;\n  }\n\n  /**\n    * @dev Gets the index of a given oracle\n    */\n  function getIndex(\n    address _oracleAddress\n  )\n    public\n    view\n    returns (uint16)\n  {\n    require (isOracle(_oracleAddress));\n    return (oracleDetails[_oracleAddress].index);\n  }\n\n  /**\n    * @dev Removes oracle from registry\n    */\n  function deleteOracle(\n    address _oracleAddress\n  )\n    public\n    onlyOwner\n    returns(uint16)\n  {\n    require (isOracle(_oracleAddress));\n    oracleDetails[_oracleAddress].isOracle = false;\n\n    // Defining the index of element to delete and of last element\n    uint16 rowToDelete = oracleDetails[_oracleAddress].index;\n    address keyToMove = oracles[oracles.length-1];\n\n    // Switching element to delete with the last element in the array\n    oracles[rowToDelete] = keyToMove;\n    oracleDetails[_oracleAddress].index = rowToDelete;\n\n    // Deletion of last element in index, which\n    // otherwise would be present twice in the list\n    oracles.length--;\n\n    emit OracleDeleted(_oracleAddress, rowToDelete);\n\n    return rowToDelete;\n  }\n\n  /**\n    * @dev Adds oracle to registry\n    * @param _oracleAddress Address of the oracle\n    * @param _oracleType Type of the oracle\n    */\n  function registerOracle(\n    address _oracleAddress,\n    uint8 _oracleType\n  )\n    public\n    onlyOwner\n    returns (uint16)\n  {\n    require (!isOracle(_oracleAddress));\n\n    oracleDetails[_oracleAddress].isOracle = true;\n    oracleDetails[_oracleAddress].oracleType = _oracleType;\n    oracleDetails[_oracleAddress].index = uint16(oracles.push(_oracleAddress)-1);\n\n    uint16 oracleIndex = uint16(oracles.length-1);\n\n    emit OracleRegistered(_oracleAddress, _oracleType, oracleIndex);\n\n    return oracleIndex;\n  }\n\n  /**\n    * @dev Checks that oracle triggering the reward is registered before forwarding the request to the campaign contract\n    * @param _account Address of the rewarded user\n    * @param _campaign Address of the rewarding campaign\n    * @param _pob Proof-of-Behavior that caused the triggering of the reward\n    */\n  function triggerReward(\n    address _account,\n    address _campaign,\n    bytes32 _pob\n  )\n    public\n    returns(bool)\n  {\n\n    emit RewardRequested(_account, msg.sender, _campaign, _pob);\n\n    // the oracle needs to be whitelisted to trigger\n    require(isOracle(msg.sender), \"Rewarding should be triggered by a registered oracle\");\n\n    ICampaign campaignInterface = ICampaign(_campaign);\n    require(getOracleType(msg.sender) == campaignInterface.getCampaignType(), \"Types of oracle and campaign do not match\");\n\n    campaignInterface.reward(_account, _pob);\n\n    return true;\n  }\n\n  function kill()\n    public\n    onlyOwner\n  {\n    selfdestruct(owner());\n  }\n}\n",
    "sourcePath": "/Users/vincent/Documents/Consensys/OCCI/urp-solidity/contracts/Oracle/ProxyOracleRegistry.sol",
    "compiler": {
        "name": "solc",
        "version": "0.4.24+commit.e67f0147.Emscripten.clang"
    },
    "schemaVersion": "2.0.0",
    "updatedAt": "2018-11-07T13:15:57.356Z"
}