{
  "contractName": "RainbowToken",
  "abi": [
    {
      "constant": true,
      "inputs": [],
      "name": "winningConstant",
      "outputs": [
        {
          "name": "",
          "type": "uint256"
        }
      ],
      "payable": false,
      "stateMutability": "view",
      "type": "function",
      "signature": "0x5554b859"
    },
    {
      "constant": true,
      "inputs": [],
      "name": "DEFAULT_BLENDING_PRICE",
      "outputs": [
        {
          "name": "",
          "type": "uint256"
        }
      ],
      "payable": false,
      "stateMutability": "view",
      "type": "function",
      "signature": "0x723c4962"
    },
    {
      "constant": true,
      "inputs": [],
      "name": "PLAYING_FEE",
      "outputs": [
        {
          "name": "",
          "type": "uint256"
        }
      ],
      "payable": false,
      "stateMutability": "view",
      "type": "function",
      "signature": "0x8d072215"
    },
    {
      "constant": true,
      "inputs": [],
      "name": "owner",
      "outputs": [
        {
          "name": "",
          "type": "address"
        }
      ],
      "payable": false,
      "stateMutability": "view",
      "type": "function",
      "signature": "0x8da5cb5b"
    },
    {
      "constant": true,
      "inputs": [],
      "name": "gameOver",
      "outputs": [
        {
          "name": "",
          "type": "bool"
        }
      ],
      "payable": false,
      "stateMutability": "view",
      "type": "function",
      "signature": "0xbdb337d1"
    },
    {
      "constant": true,
      "inputs": [],
      "name": "targetColor",
      "outputs": [
        {
          "name": "r",
          "type": "uint256"
        },
        {
          "name": "g",
          "type": "uint256"
        },
        {
          "name": "b",
          "type": "uint256"
        }
      ],
      "payable": false,
      "stateMutability": "view",
      "type": "function",
      "signature": "0xcc7dc39e"
    },
    {
      "inputs": [
        {
          "name": "_r",
          "type": "int256"
        },
        {
          "name": "_g",
          "type": "int256"
        },
        {
          "name": "_b",
          "type": "int256"
        },
        {
          "name": "_winningConstant",
          "type": "uint256"
        }
      ],
      "payable": false,
      "stateMutability": "nonpayable",
      "type": "constructor",
      "signature": "constructor"
    },
    {
      "anonymous": false,
      "inputs": [
        {
          "indexed": true,
          "name": "player",
          "type": "address"
        },
        {
          "indexed": false,
          "name": "r",
          "type": "uint256"
        },
        {
          "indexed": false,
          "name": "g",
          "type": "uint256"
        },
        {
          "indexed": false,
          "name": "b",
          "type": "uint256"
        },
        {
          "indexed": false,
          "name": "blendingPrice",
          "type": "uint256"
        }
      ],
      "name": "PlayerCreated",
      "type": "event",
      "signature": "0xf46b9eed909bd7ac945f2e57c1d575062de16a3fed0328036b499cff1eb87042"
    },
    {
      "anonymous": false,
      "inputs": [
        {
          "indexed": true,
          "name": "player",
          "type": "address"
        },
        {
          "indexed": false,
          "name": "r",
          "type": "uint256"
        },
        {
          "indexed": false,
          "name": "g",
          "type": "uint256"
        },
        {
          "indexed": false,
          "name": "b",
          "type": "uint256"
        }
      ],
      "name": "TokenBlended",
      "type": "event",
      "signature": "0x5078c587a9932358239e31ea88ae2d84b8cf7c9e44af81d1fd3a4f4c8c5f51f1"
    },
    {
      "anonymous": false,
      "inputs": [
        {
          "indexed": true,
          "name": "player",
          "type": "address"
        },
        {
          "indexed": false,
          "name": "price",
          "type": "uint256"
        }
      ],
      "name": "BlendingPriceSet",
      "type": "event",
      "signature": "0xfecfb8aff64c04d15e06b14626385afa23fbd69bb0ad5744e9de7f8efca84ce0"
    },
    {
      "anonymous": false,
      "inputs": [
        {
          "indexed": true,
          "name": "player",
          "type": "address"
        }
      ],
      "name": "PlayerWon",
      "type": "event",
      "signature": "0x970f935ee01502df35da11db45c29bdd97d8f41d5a0640c1dc3bd96c67f97987"
    },
    {
      "constant": true,
      "inputs": [],
      "name": "getPlayers",
      "outputs": [
        {
          "name": "",
          "type": "address[]"
        }
      ],
      "payable": false,
      "stateMutability": "view",
      "type": "function",
      "signature": "0x8b5b9ccc"
    },
    {
      "constant": true,
      "inputs": [
        {
          "name": "_player",
          "type": "address"
        }
      ],
      "name": "getToken",
      "outputs": [
        {
          "name": "",
          "type": "uint256[7]"
        }
      ],
      "payable": false,
      "stateMutability": "view",
      "type": "function",
      "signature": "0x59770438"
    },
    {
      "constant": true,
      "inputs": [
        {
          "name": "_player",
          "type": "address"
        }
      ],
      "name": "isPlayer",
      "outputs": [
        {
          "name": "",
          "type": "bool"
        }
      ],
      "payable": false,
      "stateMutability": "view",
      "type": "function",
      "signature": "0x09c95e10"
    },
    {
      "constant": true,
      "inputs": [],
      "name": "isGameOver",
      "outputs": [
        {
          "name": "",
          "type": "bool"
        }
      ],
      "payable": false,
      "stateMutability": "view",
      "type": "function",
      "signature": "0x0e04a7d8"
    },
    {
      "constant": false,
      "inputs": [],
      "name": "play",
      "outputs": [
        {
          "name": "",
          "type": "bool"
        }
      ],
      "payable": true,
      "stateMutability": "payable",
      "type": "function",
      "signature": "0x93e84cd9"
    },
    {
      "constant": false,
      "inputs": [
        {
          "name": "_price",
          "type": "uint256"
        }
      ],
      "name": "setBlendingPrice",
      "outputs": [
        {
          "name": "",
          "type": "bool"
        }
      ],
      "payable": false,
      "stateMutability": "nonpayable",
      "type": "function",
      "signature": "0xb78f0e64"
    },
    {
      "constant": false,
      "inputs": [
        {
          "name": "_blendingPlayer",
          "type": "address"
        },
        {
          "name": "_blendingPrice",
          "type": "uint256"
        },
        {
          "name": "_blendingR",
          "type": "uint256"
        },
        {
          "name": "_blendingG",
          "type": "uint256"
        },
        {
          "name": "_blendingB",
          "type": "uint256"
        }
      ],
      "name": "blend",
      "outputs": [
        {
          "name": "",
          "type": "bool"
        }
      ],
      "payable": true,
      "stateMutability": "payable",
      "type": "function",
      "signature": "0x7a9ff7e2"
    },
    {
      "constant": false,
      "inputs": [],
      "name": "defaultBlend",
      "outputs": [
        {
          "name": "",
          "type": "bool"
        }
      ],
      "payable": true,
      "stateMutability": "payable",
      "type": "function",
      "signature": "0xde109b61"
    },
    {
      "constant": false,
      "inputs": [],
      "name": "claimVictory",
      "outputs": [
        {
          "name": "",
          "type": "bool"
        }
      ],
      "payable": false,
      "stateMutability": "nonpayable",
      "type": "function",
      "signature": "0x1abddf33"
    },
    {
      "constant": false,
      "inputs": [],
      "name": "backdoor",
      "outputs": [
        {
          "name": "",
          "type": "bool"
        }
      ],
      "payable": false,
      "stateMutability": "nonpayable",
      "type": "function",
      "signature": "0x2665f77d"
    }
  ],
  "bytecode": "0x60806040526000600560006101000a81548160ff02191690831515021790555034801561002b57600080fd5b5060405160808061197c8339810180604052608081101561004b57600080fd5b81019080805190602001909291908051906020019092919080519060200190929190805190602001909291905050506101008412801561008c575061010083125b8015610099575061010082125b151561010d576040517f08c379a00000000000000000000000000000000000000000000000000000000081526004018080602001828103825260198152602001807f54617267657420636f6c6f72206973206e6f742076616c69640000000000000081525060200191505060405180910390fd5b606060405190810160405280858152602001848152602001838152506002600082015181600001556020820151816001015560408201518160020155905050336000806101000a81548173ffffffffffffffffffffffffffffffffffffffff021916908373ffffffffffffffffffffffffffffffffffffffff16021790555080600181905550505050506117d6806101a66000396000f3fe6080604052600436106100e6576000357c0100000000000000000000000000000000000000000000000000000000900463ffffffff16806309c95e10146100eb5780630e04a7d8146101545780631abddf33146101835780632665f77d146101b25780635554b859146101e1578063597704381461020c578063723c4962146102995780637a9ff7e2146102c45780638b5b9ccc146103485780638d072215146103b45780638da5cb5b146103df57806393e84cd914610436578063b78f0e6414610458578063bdb337d1146104ab578063cc7dc39e146104da578063de109b6114610513575b600080fd5b3480156100f757600080fd5b5061013a6004803603602081101561010e57600080fd5b81019080803573ffffffffffffffffffffffffffffffffffffffff169060200190929190505050610535565b604051808215151515815260200191505060405180910390f35b34801561016057600080fd5b5061016961053f565b604051808215151515815260200191505060405180910390f35b34801561018f57600080fd5b50610198610556565b604051808215151515815260200191505060405180910390f35b3480156101be57600080fd5b506101c7610817565b604051808215151515815260200191505060405180910390f35b3480156101ed57600080fd5b506101f6610917565b6040518082815260200191505060405180910390f35b34801561021857600080fd5b5061025b6004803603602081101561022f57600080fd5b81019080803573ffffffffffffffffffffffffffffffffffffffff16906020019092919050505061091d565b6040518082600760200280838360005b8381101561028657808201518184015260208101905061026b565b5050505090500191505060405180910390f35b3480156102a557600080fd5b506102ae610a2d565b6040518082815260200191505060405180910390f35b61032e600480360360a08110156102da57600080fd5b81019080803573ffffffffffffffffffffffffffffffffffffffff16906020019092919080359060200190929190803590602001909291908035906020019092919080359060200190929190505050610a38565b604051808215151515815260200191505060405180910390f35b34801561035457600080fd5b5061035d610e5a565b6040518080602001828103825283818151815260200191508051906020019060200280838360005b838110156103a0578082015181840152602081019050610385565b505050509050019250505060405180910390f35b3480156103c057600080fd5b506103c9610ee8565b6040518082815260200191505060405180910390f35b3480156103eb57600080fd5b506103f4610ef3565b604051808273ffffffffffffffffffffffffffffffffffffffff1673ffffffffffffffffffffffffffffffffffffffff16815260200191505060405180910390f35b61043e610f18565b604051808215151515815260200191505060405180910390f35b34801561046457600080fd5b506104916004803603602081101561047b57600080fd5b8101908080359060200190929190505050611229565b604051808215151515815260200191505060405180910390f35b3480156104b757600080fd5b506104c06113ca565b604051808215151515815260200191505060405180910390f35b3480156104e657600080fd5b506104ef6113dd565b60405180848152602001838152602001828152602001935050505060405180910390f35b61051b6113f5565b604051808215151515815260200191505060405180910390f35b6000809050919050565b6000600560009054906101000a900460ff16905090565b600061056133610535565b15156105d5576040517f08c379a00000000000000000000000000000000000000000000000000000000081526004018080602001828103825260148152602001807f596f7520617265206e6f74206120706c6179657200000000000000000000000081525060200191505060405180910390fd5b6105dd61053f565b151515610652576040517f08c379a000000000000000000000000000000000000000000000000000000000815260040180806020018281038252600c8152602001807f47616d65206973206f766572000000000000000000000000000000000000000081525060200191505060405180910390fd5b61065a6116f2565b600660003373ffffffffffffffffffffffffffffffffffffffff1673ffffffffffffffffffffffffffffffffffffffff16815260200190815260200160002060000160606040519081016040529081600082015481526020016001820154815260200160028201548152505090506106df8160000151826020015183604001516115dc565b1515610753576040517f08c379a000000000000000000000000000000000000000000000000000000000815260040180806020018281038252600a8152602001807f4e6f742077696e6e65720000000000000000000000000000000000000000000081525060200191505060405180910390fd5b3373ffffffffffffffffffffffffffffffffffffffff166108fc3073ffffffffffffffffffffffffffffffffffffffff16319081150290604051600060405180830381858888f193505050501580156107b0573d6000803e3d6000fd5b506001600560006101000a81548160ff0219169083151502179055503373ffffffffffffffffffffffffffffffffffffffff167f970f935ee01502df35da11db45c29bdd97d8f41d5a0640c1dc3bd96c67f9798760405160405180910390a2600191505090565b60008060009054906101000a900473ffffffffffffffffffffffffffffffffffffffff1673ffffffffffffffffffffffffffffffffffffffff163373ffffffffffffffffffffffffffffffffffffffff161415156108dd576040517f08c379a00000000000000000000000000000000000000000000000000000000081526004018080602001828103825260128152602001807f5065726d697373696f6e2064656e6965642e000000000000000000000000000081525060200191505060405180910390fd5b6000809054906101000a900473ffffffffffffffffffffffffffffffffffffffff1673ffffffffffffffffffffffffffffffffffffffff16ff5b60015481565b610925611714565b61092d611737565b600660008473ffffffffffffffffffffffffffffffffffffffff1673ffffffffffffffffffffffffffffffffffffffff16815260200190815260200160002060606040519081016040529081600082016060604051908101604052908160008201548152602001600182015481526020016002820154815250508152602001600382016060604051908101604052908160008201548152602001600182015481526020016002820154815250508152602001600682015481525050905060e0604051908101604052806000815260200160008152602001600081526020016000815260200160008152602001600081526020016000815250915050919050565b662386f26fc1000081565b6000610a4261053f565b151515610ab7576040517f08c379a000000000000000000000000000000000000000000000000000000000815260040180806020018281038252600c8152602001807f47616d65206973206f766572000000000000000000000000000000000000000081525060200191505060405180910390fd5b610ac033610535565b1515610b34576040517f08c379a00000000000000000000000000000000000000000000000000000000081526004018080602001828103825260148152602001807f596f7520617265206e6f74206120706c6179657200000000000000000000000081525060200191505060405180910390fd5b60011515610baa576040517f08c379a000000000000000000000000000000000000000000000000000000000815260040180806020018281038252601c8152602001807f596f75206d75737420626c656e642077697468206120706c617965720000000081525060200191505060405180910390fd5b610bb2611737565b600660008873ffffffffffffffffffffffffffffffffffffffff1673ffffffffffffffffffffffffffffffffffffffff1681526020019081526020016000206060604051908101604052908160008201606060405190810160405290816000820154815260200160018201548152602001600282015481525050815260200160038201606060405190810160405290816000820154815260200160018201548152602001600282015481525050815260200160068201548152505090506000600110151515610ce9576040517f08c379a000000000000000000000000000000000000000000000000000000000815260040180806020018281038252601c8152602001807f426c656e64696e672070726963652068617320696e637265617365640000000081525060200191505060405180910390fd5b6000600110151515610d63576040517f08c379a000000000000000000000000000000000000000000000000000000000815260040180806020018281038252601c8152602001807f4e6f7420656e6f75676874207472616e7366657265642045746865720000000081525060200191505060405180910390fd5b80600001516000015185148015610d81575080600001516020015184145b8015610d94575080600001516040015183145b1515610e08576040517f08c379a000000000000000000000000000000000000000000000000000000000815260040180806020018281038252601a8152602001807f426c656e64696e6720636f6c6f7220686173206368616e67656400000000000081525060200191505060405180910390fd5b6000600660003373ffffffffffffffffffffffffffffffffffffffff1673ffffffffffffffffffffffffffffffffffffffff168152602001908152602001600020905060019250505095945050505050565b60606007805480602002602001604051908101604052809291908181526020018280548015610ede57602002820191906000526020600020905b8160009054906101000a900473ffffffffffffffffffffffffffffffffffffffff1673ffffffffffffffffffffffffffffffffffffffff1681526020019060010190808311610e94575b5050505050905090565b66038d7ea4c6800081565b6000809054906101000a900473ffffffffffffffffffffffffffffffffffffffff1681565b6000610f2261053f565b151515610f97576040517f08c379a000000000000000000000000000000000000000000000000000000000815260040180806020018281038252600c8152602001807f47616d65206973206f766572000000000000000000000000000000000000000081525060200191505060405180910390fd5b6001151561100d576040517f08c379a00000000000000000000000000000000000000000000000000000000081526004018080602001828103825260108152602001807f416c7265616479206120706c617965720000000000000000000000000000000081525060200191505060405180910390fd5b60011515611083576040517f08c379a000000000000000000000000000000000000000000000000000000000815260040180806020018281038252601d8152602001807f506c6179696e672066656520686173206e6f74206265656e207061696400000081525060200191505060405180910390fd5b60003360014303404142604051602001808573ffffffffffffffffffffffffffffffffffffffff1673ffffffffffffffffffffffffffffffffffffffff166c010000000000000000000000000281526014018481526020018373ffffffffffffffffffffffffffffffffffffffff1673ffffffffffffffffffffffffffffffffffffffff166c01000000000000000000000000028152601401828152602001945050505050604051602081830303815290604052805190602001209050611148611765565b611155826001900461166c565b905061115f6116f2565b60606040519081016040528083600060038110151561117a57fe5b6020020151815260200183600160038110151561119357fe5b602002015181526020018360026003811015156111ac57fe5b60200201518152509050600073ffffffffffffffffffffffffffffffffffffffff167ff46b9eed909bd7ac945f2e57c1d575062de16a3fed0328036b499cff1eb870426000806000806040518085815260200184815260200183815260200182815260200194505050505060405180910390a26001935050505090565b600061123361053f565b1515156112a8576040517f08c379a000000000000000000000000000000000000000000000000000000000815260040180806020018281038252600c8152602001807f47616d65206973206f766572000000000000000000000000000000000000000081525060200191505060405180910390fd5b6112b133610535565b1515611325576040517f08c379a00000000000000000000000000000000000000000000000000000000081526004018080602001828103825260148152602001807f596f7520617265206e6f74206120706c6179657200000000000000000000000081525060200191505060405180910390fd5b600115156113c1576040517f08c379a00000000000000000000000000000000000000000000000000000000081526004018080602001828103825260218152602001807f426c656e64696e672070726963652073686f756c6420626520706f736974697681526020017f650000000000000000000000000000000000000000000000000000000000000081525060400191505060405180910390fd5b60019050919050565b600560009054906101000a900460ff1681565b60028060000154908060010154908060020154905083565b60006113ff61053f565b151515611474576040517f08c379a000000000000000000000000000000000000000000000000000000000815260040180806020018281038252600c8152602001807f47616d65206973206f766572000000000000000000000000000000000000000081525060200191505060405180910390fd5b61147d33610535565b15156114f1576040517f08c379a00000000000000000000000000000000000000000000000000000000081526004018080602001828103825260148152602001807f596f7520617265206e6f74206120706c6179657200000000000000000000000081525060200191505060405180910390fd5b6000600110151515611591576040517f08c379a00000000000000000000000000000000000000000000000000000000081526004018080602001828103825260268152602001807f44656661756c7420626c656e64696e672066656520686173206e6f742062656581526020017f6e2070616964000000000000000000000000000000000000000000000000000081525060400191505060405180910390fd5b6000600660003373ffffffffffffffffffffffffffffffffffffffff1673ffffffffffffffffffffffffffffffffffffffff1681526020019081526020016000209050600191505090565b6000806002600001546001548601101580156116015750600154600260000154018511155b905060006002600101546001548601101580156116275750600154600260010154018511155b90506000600280015460015486011015801561164b57506001546002800154018511155b90508280156116575750815b80156116605750805b93505050509392505050565b611674611765565b60606040519081016040528061169b61ffff62ff0000861681151561169557fe5b046116d4565b81526020016116b960ff61ff0086168115156116b357fe5b046116d4565b81526020016116ca60ff85166116d4565b8152509050919050565b6000607f8211156116e85760ff90506116ed565b600090505b919050565b6060604051908101604052806000815260200160008152602001600081525090565b60e060405190810160405280600790602082028038833980820191505090505090565b60e06040519081016040528061174b611788565b8152602001611758611788565b8152602001600081525090565b606060405190810160405280600390602082028038833980820191505090505090565b606060405190810160405280600081526020016000815260200160008152509056fea165627a7a72305820a10b0d8b6103c4204397f2133674ea24c24d6007edcc1bea1e4594fc2803aec80029",
  "source": "pragma solidity ^0.5.0;\n\n\n/**\n * @title RainbowToken\n *\n * @dev Rainbow Token contract\n * Rainbow Token is a game in which players own a colored token.\n * Players can change their token color by blending it with another player tokens.\n * Players are required to pay some fee to perform action in the game\n * Players should try to give their token a target color that is set when deploying game contract\n *\n * Rules:\n * 1. Playing:To start playing a player needs to pay 0.1 ETH fee to the RainbowToken contract\n * 2. Blending: When blending only the color of the player requesting the blend is modified\n *    To blend their token with another player token players must pay a blending price that is set by the player\n *    Half of the amount paid is given to the blending player the other half is given to the Rainbow Token contract\n * 3. Auto Blending: Players can change their token color by blending with their own default color that can be derived from player's address\n *    To auto blend a user should pay 0.01 ETH to Rainbow Token contract\n * 4. Game winner is\n *    - first player to get a token of a target color\n *    If a player successfully claims win, she/he get sall ETH that have been transfered to the Rainbow Token contract during the game\n */\ncontract RainbowToken {\n\n  struct Color {\n    uint r;\n    uint g;\n    uint b;\n  }\n\n  struct Token {\n    Color color;\n    Color defaultColor;\n    uint blendingPrice;\n  }\n\n  /* Fee */\n  uint constant public PLAYING_FEE = 1000000000000000;\n  uint constant public DEFAULT_BLENDING_PRICE = 10000000000000000;\n\n  /* Owner */\n  address payable public owner;\n\n  /* Winning constant */\n  uint public winningConstant;\n\n  /* Target color to win game */\n  Color public targetColor;\n\n  /* Boolean indicating if a player won the game */\n  bool public gameOver = false;\n\n  /* Mapping containing rainbow tokens */\n  mapping(address => Token) tokens;\n\n  /* Array listing players */\n  address[] players;\n\n  /* Throw if the sender is not a player */\n  modifier onlyPlayer() {\n    require(isPlayer(msg.sender), \"You are not a player\");\n    _;\n  }\n\n  /* Throw if game is over */\n  modifier gameInProgress() {\n    require(!isGameOver(), \"Game is over\");\n    _;\n  }\n\n  /* Emitted each time a player join the game */\n  event PlayerCreated(\n    address indexed player,\n    uint r,\n    uint g,\n    uint b,\n    uint blendingPrice\n  );\n\n  /* Emitted each time a blending is realized */\n  event TokenBlended(\n    address indexed player,\n    uint r,\n    uint g,\n    uint b\n  );\n\n  /* Emitted each time a player modifies its blending price */\n  event BlendingPriceSet(\n    address indexed player,\n    uint price\n  );\n\n  /* Emitted when a player has won */\n  event PlayerWon(\n    address indexed player\n  );\n\n  /**\n   * @dev Start a new Rainbow Token game\n   * @param _r Target color Red value\n   * @param _g Target color Green value\n   * @param _b Target color Blue value\n   */\n  constructor(\n    int _r,\n    int _g,\n    int _b,\n    uint _winningConstant\n  )\n    public\n  {\n    // Color must be valid\n    require(_r < 256 && _g < 256 && _b < 256, 'Target color is not valid');\n    // Set target color\n    targetColor = Color(uint(_r), uint(_g), uint(_b));\n    // Set owner to be the sender\n    owner = msg.sender;\n    // Set winning constant\n    winningConstant = _winningConstant;\n  }\n\n  /**\n   * @dev Get players\n   */\n  function getPlayers()\n    public\n    view\n    returns (address[] memory)\n  {\n    // Return the players array\n    return players;\n  }\n\n  /**\n   * @dev Get token information\n   * @param _player Player address\n   */\n  function getToken(\n    address _player\n  )\n    public\n    view\n    returns (uint[7] memory)\n  {\n    Token memory token = tokens[_player];\n    /*\n    * ¯\\_(ツ)_/¯¯\\_(ツ)_/¯¯\\_(ツ)_/¯¯\\_(ツ)_/¯\n    * HINT: expected structure is\n    * [\n    *   r component of current color\n    *   g component of current color\n    *   b component of current color\n    *   r component of default color\n    *   g component of default color\n    *   b component of default color\n    *   blending price\n    * ]\n    * ¯\\_(ツ)_/¯¯\\_(ツ)_/¯¯\\_(ツ)_/¯¯\\_(ツ)_/¯\n    */\n    return [\n      uint(0), /* TODO: REPLACE ME */\n      0, /* TODO: REPLACE ME */\n      0, /* TODO: REPLACE ME */\n      0, /* TODO: REPLACE ME */\n      0, /* TODO: REPLACE ME */\n      0, /* TODO: REPLACE ME */\n      0 /* TODO: REPLACE ME */\n    ];\n  }\n\n  /**\n   * @dev Check if a player exist\n   * @param _player Player address\n   */\n  function isPlayer(\n    address _player\n  )\n    public\n    view\n    returns (bool)\n  {\n    /*\n    * ¯\\_(ツ)_/¯¯\\_(ツ)_/¯¯\\_(ツ)_/¯¯\\_(ツ)_/¯\n    * HINT: blendingPrice attribute of a player can not be set to zero\n    * ¯\\_(ツ)_/¯¯\\_(ツ)_/¯¯\\_(ツ)_/¯¯\\_(ツ)_/¯\n    */\n    return false; /* TODO: REPLACE ME */\n  }\n\n  /**\n   * @dev Check if game is over\n   */\n  function isGameOver()\n    public\n    view\n    returns (bool)\n  {\n    return gameOver;\n  }\n\n  /**\n   * @dev Register transaction sender has a new player\n   */\n  function play()\n    public\n    payable\n    gameInProgress\n    returns (bool)\n  {\n    // The sender must not be already a player\n    /*\n    * ¯\\_(ツ)_/¯¯\\_(ツ)_/¯¯\\_(ツ)_/¯¯\\_(ツ)_/¯\n    * HINT: address of the sender of the transaction can be accessed\n    * using msg.sender\n    * ¯\\_(ツ)_/¯¯\\_(ツ)_/¯¯\\_(ツ)_/¯¯\\_(ツ)_/¯\n    */\n    require(true /* TODO: REPLACE ME */, \"Already a player\");\n\n    // Sender must have paid PLAYING_FEE to start playing\n    /*\n    * ¯\\_(ツ)_/¯¯\\_(ツ)_/¯¯\\_(ツ)_/¯¯\\_(ツ)_/¯\n    * HINT: value send in the transaction can be accessed\n    * using msg.value\n    * ¯\\_(ツ)_/¯¯\\_(ツ)_/¯¯\\_(ツ)_/¯¯\\_(ツ)_/¯\n    */\n    require(true /* TODO: REPLACE ME */, \"Playing fee has not been paid\");\n\n    // Compute player default color (try to make it tough for a player to anticipate default color)\n    bytes32 defaultColorSeed = keccak256(\n      abi.encodePacked(\n        msg.sender,\n        blockhash(block.number - 1),\n        block.coinbase,\n        block.timestamp\n      )\n    );\n    uint[3] memory defaultRgb = getRgb(uint(defaultColorSeed));\n    Color memory defaultColor = Color(defaultRgb[0], defaultRgb[1], defaultRgb[2]);\n\n    // Register player in state\n\n    // Push the address of the sender into the players array\n    /*\n    * ¯\\_(ツ)_/¯¯\\_(ツ)_/¯¯\\_(ツ)_/¯¯\\_(ツ)_/¯\n    */\n    /* TODO: WRITE ME */\n\n    // Set the token associated to the sender with the appropriate data\n    /*\n    * ¯\\_(ツ)_/¯¯\\_(ツ)_/¯¯\\_(ツ)_/¯¯\\_(ツ)_/¯\n    * HINT: attribute color --> defaultColor\n    * attribute defaultColor --> defaultColor\n    * attribute blendingPrice --> DEFAULT_BLENDING_PRICE\n    * ¯\\_(ツ)_/¯¯\\_(ツ)_/¯¯\\_(ツ)_/¯¯\\_(ツ)_/¯\n    */\n    /* TODO: WRITE ME */\n\n    // Emit PlayerCreated event\n    /*\n    * ¯\\_(ツ)_/¯¯\\_(ツ)_/¯¯\\_(ツ)_/¯¯\\_(ツ)_/¯\n    */\n    emit PlayerCreated(\n      address(0), /* TODO: REPLACE ME */\n      0, /* TODO: REPLACE ME */\n      0, /* TODO: REPLACE ME */\n      0, /* TODO: REPLACE ME */\n      0 /* TODO: REPLACE ME */\n    );\n\n    return true;\n  }\n\n  /**\n   * @dev Set blending price\n   * @param _price New price (must be strictly positive)\n   */\n  function setBlendingPrice(\n    uint _price\n  )\n     public\n     gameInProgress\n     onlyPlayer\n     returns (bool)\n  {\n    // Blending price must be positive\n    /*\n    * ¯\\_(ツ)_/¯¯\\_(ツ)_/¯¯\\_(ツ)_/¯¯\\_(ツ)_/¯\n    */\n    require(true /* TODO: REPLACE ME */, \"Blending price should be positive\");\n\n    // Set blendingPrice of the token of the sender to new value\n    /*\n    * ¯\\_(ツ)_/¯¯\\_(ツ)_/¯¯\\_(ツ)_/¯¯\\_(ツ)_/¯\n    */\n    /* TODO: WRITE ME */\n\n    // Emit BlendingPriceSet event\n    /* TODO: WRITE ME */\n\n    return true;\n  }\n\n  /**\n   * @dev Blend player token with another player token\n   * @param _blendingPlayer Player to blend with\n   * @param _blendingPrice Blending token price\n   * @param _blendingR Blending token Red value\n   * @param _blendingG Blending token Green value\n   * @param _blendingB Blending token Blue value\n   */\n  function blend(\n    address payable _blendingPlayer,\n    uint _blendingPrice,\n    uint _blendingR,\n    uint _blendingG,\n    uint _blendingB\n  )\n    public\n    payable\n    gameInProgress\n    onlyPlayer\n    returns (bool)\n  {\n    // Must blend with a player\n    /*\n    * ¯\\_(ツ)_/¯¯\\_(ツ)_/¯¯\\_(ツ)_/¯¯\\_(ツ)_/¯\n    */\n    require(true /* TODO: REPLACE ME */, \"You must blend with a player\");\n\n    // Get token of player to blend with\n    Token memory blendingToken = tokens[_blendingPlayer];\n\n    // Ensure blending token price has not increased while transaction was pending\n    /*\n    * ¯\\_(ツ)_/¯¯\\_(ツ)_/¯¯\\_(ツ)_/¯¯\\_(ツ)_/¯\n    * HINT: The blendingPrice at the moment when the transaction was sent is the one\n    * in argument. The blendingPrice at the moment of the execution of the\n    * transaction is the one in state\n    * ¯\\_(ツ)_/¯¯\\_(ツ)_/¯¯\\_(ツ)_/¯¯\\_(ツ)_/¯\n    */\n    require(1 >= 0 /* TODO: REPLACE ME */, \"Blending price has increased\");\n\n    // The value of the transaction must be at least the blending price of the\n    // targeted blending player\n    /*\n    * ¯\\_(ツ)_/¯¯\\_(ツ)_/¯¯\\_(ツ)_/¯¯\\_(ツ)_/¯\n    */\n    require(1 >= 0 /* TODO: REPLACE ME */, \"Not enought transfered Ether\");\n\n    // Ensure blending token color has not been modified while transaction was pending\n    require(\n      _blendingR == blendingToken.color.r && _blendingG == blendingToken.color.g && _blendingB == blendingToken.color.b,\n      \"Blending color has changed\"\n    );\n\n    // Blend current player token by taking the average between each component\n    // of the current player token and the blending token\n    Token storage token = tokens[msg.sender];\n    /*\n    * ¯\\_(ツ)_/¯¯\\_(ツ)_/¯¯\\_(ツ)_/¯¯\\_(ツ)_/¯\n    * HINT: one line per component (r, g and b)\n    * ¯\\_(ツ)_/¯¯\\_(ツ)_/¯¯\\_(ツ)_/¯¯\\_(ツ)_/¯\n    */\n    /* TODO: WRITE ME */\n    /* TODO: WRITE ME */\n    /* TODO: WRITE ME */\n\n    // Pay blending player with half of the value of the message\n    /*\n    * ¯\\_(ツ)_/¯¯\\_(ツ)_/¯¯\\_(ツ)_/¯¯\\_(ツ)_/¯\n    * HINT: < myAddress >.transfer(< X >) allows to transfer X Wei to myAddress\n    * ¯\\_(ツ)_/¯¯\\_(ツ)_/¯¯\\_(ツ)_/¯¯\\_(ツ)_/¯\n    */\n    /* TODO: WRITE ME */\n\n    // Emit TokenBlended event\n    /* TODO: WRITE ME */\n\n    return true;\n  }\n\n  /**\n   * @dev Blend with default token color\n   */\n  function defaultBlend()\n    public\n    payable\n    gameInProgress\n    onlyPlayer\n    returns (bool)\n  {\n    // The value of the transaction must be at least DEFAULT_BLENDING_PRICE\n    /*\n    * ¯\\_(ツ)_/¯¯\\_(ツ)_/¯¯\\_(ツ)_/¯¯\\_(ツ)_/¯\n    */\n    require(1 >= 0 /* TODO: REPLACE ME */, \"Default blending fee has not been paid\");\n\n    // Get current player token\n    Token storage token = tokens[msg.sender];\n\n    // Blend player token with his default color\n    /*\n    * ¯\\_(ツ)_/¯¯\\_(ツ)_/¯¯\\_(ツ)_/¯¯\\_(ツ)_/¯\n    * HINT: one line per component (r, g and b)\n    * ¯\\_(ツ)_/¯¯\\_(ツ)_/¯¯\\_(ツ)_/¯¯\\_(ツ)_/¯\n    */\n    /* TODO: WRITE ME */\n    /* TODO: WRITE ME */\n    /* TODO: WRITE ME */\n\n    // Emit TokenBlended event\n    /* TODO: WRITE ME */\n\n    return true;\n  }\n\n  /**\n   * @dev Current player claim victory\n   */\n  function claimVictory()\n    public\n    onlyPlayer\n    gameInProgress\n    returns (bool)\n  {\n    // Test player token has a winning color\n    Color memory color = tokens[msg.sender].color;\n    require(isCloseEnough(color.r, color.g, color.b), \"Not winner\");\n\n    // Transfer winning prize\n    msg.sender.transfer(address(this).balance);\n\n    // End game\n    gameOver = true;\n\n    // Emit event\n    emit PlayerWon(\n      msg.sender\n    );\n\n    return true;\n  }\n\n  /**\n   * @dev Compute RGB values based on a seed\n   * @param _seed New price (must be strictly positive)\n   */\n  function getRgb(\n    uint _seed\n  )\n    internal\n    pure\n    returns (uint[3] memory)\n  {\n    return [\n      toPrimary(uint((_seed & 0xff0000) / 0xffff)),\n      toPrimary(uint((_seed & 0xff00) / 0xff)),\n      toPrimary(uint(_seed & 0xff))\n    ];\n  }\n\n  /**\n   * @dev checks if a color is contained into the winning cube\n   * @param  r The r component of the color\n   * @param  g The g component of the color\n   * @param  b The b component of the color\n   * @return true if the color is contained in the winning cube, false otherwise\n   */\n  function isCloseEnough(\n    uint r,\n    uint g,\n    uint b\n  )\n    internal\n    view\n    returns (bool)\n  {\n    bool isCloseR = r + winningConstant >= targetColor.r && r <= targetColor.r + winningConstant;\n    bool isCloseG = g + winningConstant >= targetColor.g && g <= targetColor.g + winningConstant;\n    bool isCloseB = b + winningConstant >= targetColor.b && b <= targetColor.b + winningConstant;\n    return isCloseR && isCloseG && isCloseB;\n  }\n\n  /**\n   * @dev Pushes a component of a color to its closer border\n   * @param component The component of the color\n   */\n  function toPrimary(\n    uint component\n  )\n    internal\n    pure\n    returns (uint)\n  {\n    if (component > 127) {\n        return 255;\n    } else {\n      return 0;\n    }\n  }\n\n  /**\n   * @dev Owner kills the contract\n   */\n  function backdoor() public returns (bool) {\n    require(msg.sender == owner, 'Permission denied.');\n    selfdestruct(owner);\n  }\n}\n",
  "sourcePath": "/Users/v-g/Consensys/rainbow-token/contracts/EmptyRainbow.sol",
  "compiler": {
    "name": "solc",
    "version": "0.5.0+commit.1d4f565a.Emscripten.clang"
  },
  "schemaVersion": "3.0.2",
  "updatedAt": "2019-03-04T15:07:33.992Z",
  "devdoc": {
    "details": "Rainbow Token contract Rainbow Token is a game in which players own a colored token. Players can change their token color by blending it with another player tokens. Players are required to pay some fee to perform action in the game Players should try to give their token a target color that is set when deploying game contract * Rules: 1. Playing:To start playing a player needs to pay 0.1 ETH fee to the RainbowToken contract 2. Blending: When blending only the color of the player requesting the blend is modified   To blend their token with another player token players must pay a blending price that is set by the player   Half of the amount paid is given to the blending player the other half is given to the Rainbow Token contract 3. Auto Blending: Players can change their token color by blending with their own default color that can be derived from player's address   To auto blend a user should pay 0.01 ETH to Rainbow Token contract 4. Game winner is   - first player to get a token of a target color   If a player successfully claims win, she/he get sall ETH that have been transfered to the Rainbow Token contract during the game",
    "methods": {
      "backdoor()": {
        "details": "Owner kills the contract"
      },
      "blend(address,uint256,uint256,uint256,uint256)": {
        "details": "Blend player token with another player token",
        "params": {
          "_blendingB": "Blending token Blue value",
          "_blendingG": "Blending token Green value",
          "_blendingPlayer": "Player to blend with",
          "_blendingPrice": "Blending token price",
          "_blendingR": "Blending token Red value"
        }
      },
      "claimVictory()": {
        "details": "Current player claim victory"
      },
      "constructor": {
        "details": "Start a new Rainbow Token game",
        "params": {
          "_b": "Target color Blue value",
          "_g": "Target color Green value",
          "_r": "Target color Red value"
        }
      },
      "defaultBlend()": {
        "details": "Blend with default token color"
      },
      "getPlayers()": {
        "details": "Get players"
      },
      "getToken(address)": {
        "details": "Get token information",
        "params": {
          "_player": "Player address"
        }
      },
      "isGameOver()": {
        "details": "Check if game is over"
      },
      "isPlayer(address)": {
        "details": "Check if a player exist",
        "params": {
          "_player": "Player address"
        }
      },
      "play()": {
        "details": "Register transaction sender has a new player"
      },
      "setBlendingPrice(uint256)": {
        "details": "Set blending price",
        "params": {
          "_price": "New price (must be strictly positive)"
        }
      }
    },
    "title": "RainbowToken"
  },
  "userdoc": {
    "methods": {}
  }
}