{
  "contractName": "RainbowToken",
  "abi": [
    {
      "constant": true,
      "inputs": [],
      "name": "winningConstant",
      "outputs": [
        {
          "name": "",
          "type": "uint256"
        }
      ],
      "payable": false,
      "stateMutability": "view",
      "type": "function",
      "signature": "0x5554b859"
    },
    {
      "constant": true,
      "inputs": [],
      "name": "DEFAULT_BLENDING_PRICE",
      "outputs": [
        {
          "name": "",
          "type": "uint256"
        }
      ],
      "payable": false,
      "stateMutability": "view",
      "type": "function",
      "signature": "0x723c4962"
    },
    {
      "constant": true,
      "inputs": [],
      "name": "PLAYING_FEE",
      "outputs": [
        {
          "name": "",
          "type": "uint256"
        }
      ],
      "payable": false,
      "stateMutability": "view",
      "type": "function",
      "signature": "0x8d072215"
    },
    {
      "constant": true,
      "inputs": [],
      "name": "owner",
      "outputs": [
        {
          "name": "",
          "type": "address"
        }
      ],
      "payable": false,
      "stateMutability": "view",
      "type": "function",
      "signature": "0x8da5cb5b"
    },
    {
      "constant": true,
      "inputs": [],
      "name": "gameOver",
      "outputs": [
        {
          "name": "",
          "type": "bool"
        }
      ],
      "payable": false,
      "stateMutability": "view",
      "type": "function",
      "signature": "0xbdb337d1"
    },
    {
      "constant": true,
      "inputs": [],
      "name": "targetColor",
      "outputs": [
        {
          "name": "r",
          "type": "uint256"
        },
        {
          "name": "g",
          "type": "uint256"
        },
        {
          "name": "b",
          "type": "uint256"
        }
      ],
      "payable": false,
      "stateMutability": "view",
      "type": "function",
      "signature": "0xcc7dc39e"
    },
    {
      "inputs": [
        {
          "name": "_r",
          "type": "int256"
        },
        {
          "name": "_g",
          "type": "int256"
        },
        {
          "name": "_b",
          "type": "int256"
        },
        {
          "name": "_winningConstant",
          "type": "uint256"
        }
      ],
      "payable": false,
      "stateMutability": "nonpayable",
      "type": "constructor",
      "signature": "constructor"
    },
    {
      "anonymous": false,
      "inputs": [
        {
          "indexed": true,
          "name": "player",
          "type": "address"
        },
        {
          "indexed": false,
          "name": "r",
          "type": "uint256"
        },
        {
          "indexed": false,
          "name": "g",
          "type": "uint256"
        },
        {
          "indexed": false,
          "name": "b",
          "type": "uint256"
        },
        {
          "indexed": false,
          "name": "blendingPrice",
          "type": "uint256"
        }
      ],
      "name": "PlayerCreated",
      "type": "event",
      "signature": "0xf46b9eed909bd7ac945f2e57c1d575062de16a3fed0328036b499cff1eb87042"
    },
    {
      "anonymous": false,
      "inputs": [
        {
          "indexed": true,
          "name": "player",
          "type": "address"
        },
        {
          "indexed": false,
          "name": "r",
          "type": "uint256"
        },
        {
          "indexed": false,
          "name": "g",
          "type": "uint256"
        },
        {
          "indexed": false,
          "name": "b",
          "type": "uint256"
        }
      ],
      "name": "TokenBlended",
      "type": "event",
      "signature": "0x5078c587a9932358239e31ea88ae2d84b8cf7c9e44af81d1fd3a4f4c8c5f51f1"
    },
    {
      "anonymous": false,
      "inputs": [
        {
          "indexed": true,
          "name": "player",
          "type": "address"
        },
        {
          "indexed": false,
          "name": "price",
          "type": "uint256"
        }
      ],
      "name": "BlendingPriceSet",
      "type": "event",
      "signature": "0xfecfb8aff64c04d15e06b14626385afa23fbd69bb0ad5744e9de7f8efca84ce0"
    },
    {
      "anonymous": false,
      "inputs": [
        {
          "indexed": true,
          "name": "player",
          "type": "address"
        }
      ],
      "name": "PlayerWon",
      "type": "event",
      "signature": "0x970f935ee01502df35da11db45c29bdd97d8f41d5a0640c1dc3bd96c67f97987"
    },
    {
      "constant": true,
      "inputs": [],
      "name": "getPlayers",
      "outputs": [
        {
          "name": "",
          "type": "address[]"
        }
      ],
      "payable": false,
      "stateMutability": "view",
      "type": "function",
      "signature": "0x8b5b9ccc"
    },
    {
      "constant": true,
      "inputs": [
        {
          "name": "_player",
          "type": "address"
        }
      ],
      "name": "getToken",
      "outputs": [
        {
          "name": "",
          "type": "uint256[7]"
        }
      ],
      "payable": false,
      "stateMutability": "view",
      "type": "function",
      "signature": "0x59770438"
    },
    {
      "constant": true,
      "inputs": [
        {
          "name": "_player",
          "type": "address"
        }
      ],
      "name": "isPlayer",
      "outputs": [
        {
          "name": "",
          "type": "bool"
        }
      ],
      "payable": false,
      "stateMutability": "view",
      "type": "function",
      "signature": "0x09c95e10"
    },
    {
      "constant": true,
      "inputs": [],
      "name": "isGameOver",
      "outputs": [
        {
          "name": "",
          "type": "bool"
        }
      ],
      "payable": false,
      "stateMutability": "view",
      "type": "function",
      "signature": "0x0e04a7d8"
    },
    {
      "constant": false,
      "inputs": [],
      "name": "play",
      "outputs": [
        {
          "name": "",
          "type": "bool"
        }
      ],
      "payable": true,
      "stateMutability": "payable",
      "type": "function",
      "signature": "0x93e84cd9"
    },
    {
      "constant": true,
      "inputs": [
        {
          "name": "_seed",
          "type": "uint256"
        }
      ],
      "name": "getRgb",
      "outputs": [
        {
          "name": "",
          "type": "uint256[3]"
        }
      ],
      "payable": false,
      "stateMutability": "pure",
      "type": "function",
      "signature": "0x5e7bfd64"
    },
    {
      "constant": false,
      "inputs": [
        {
          "name": "_price",
          "type": "uint256"
        }
      ],
      "name": "setBlendingPrice",
      "outputs": [
        {
          "name": "",
          "type": "bool"
        }
      ],
      "payable": false,
      "stateMutability": "nonpayable",
      "type": "function",
      "signature": "0xb78f0e64"
    },
    {
      "constant": false,
      "inputs": [
        {
          "name": "_blendingPlayer",
          "type": "address"
        },
        {
          "name": "_blendingPrice",
          "type": "uint256"
        },
        {
          "name": "_blendingR",
          "type": "uint256"
        },
        {
          "name": "_blendingG",
          "type": "uint256"
        },
        {
          "name": "_blendingB",
          "type": "uint256"
        }
      ],
      "name": "blend",
      "outputs": [
        {
          "name": "",
          "type": "bool"
        }
      ],
      "payable": true,
      "stateMutability": "payable",
      "type": "function",
      "signature": "0x7a9ff7e2"
    },
    {
      "constant": false,
      "inputs": [],
      "name": "defaultBlend",
      "outputs": [
        {
          "name": "",
          "type": "bool"
        }
      ],
      "payable": true,
      "stateMutability": "payable",
      "type": "function",
      "signature": "0xde109b61"
    },
    {
      "constant": false,
      "inputs": [],
      "name": "claimVictory",
      "outputs": [
        {
          "name": "",
          "type": "bool"
        }
      ],
      "payable": false,
      "stateMutability": "nonpayable",
      "type": "function",
      "signature": "0x1abddf33"
    },
    {
      "constant": false,
      "inputs": [],
      "name": "backdoor",
      "outputs": [
        {
          "name": "",
          "type": "bool"
        }
      ],
      "payable": false,
      "stateMutability": "nonpayable",
      "type": "function",
      "signature": "0x2665f77d"
    }
  ],
  "bytecode": "0x60806040526000600560006101000a81548160ff02191690831515021790555034801561002b57600080fd5b50604051608080611df78339810180604052608081101561004b57600080fd5b8101908080519060200190929190805190602001909291908051906020019092919080519060200190929190505050606060405190810160405280858152602001848152602001838152506002600082015181600001556020820151816001015560408201518160020155905050336000806101000a81548173ffffffffffffffffffffffffffffffffffffffff021916908373ffffffffffffffffffffffffffffffffffffffff1602179055508060018190555050505050611ce4806101136000396000f3fe6080604052600436106100f1576000357c0100000000000000000000000000000000000000000000000000000000900463ffffffff16806309c95e10146100f65780630e04a7d81461015f5780631abddf331461018e5780632665f77d146101bd5780635554b859146101ec57806359770438146102175780635e7bfd64146102a4578063723c49621461031b5780637a9ff7e2146103465780638b5b9ccc146103ca5780638d072215146104365780638da5cb5b1461046157806393e84cd9146104b8578063b78f0e64146104da578063bdb337d11461052d578063cc7dc39e1461055c578063de109b6114610595575b600080fd5b34801561010257600080fd5b506101456004803603602081101561011957600080fd5b81019080803573ffffffffffffffffffffffffffffffffffffffff1690602001909291905050506105b7565b604051808215151515815260200191505060405180910390f35b34801561016b57600080fd5b50610174610605565b604051808215151515815260200191505060405180910390f35b34801561019a57600080fd5b506101a361061c565b604051808215151515815260200191505060405180910390f35b3480156101c957600080fd5b506101d26108dd565b604051808215151515815260200191505060405180910390f35b3480156101f857600080fd5b506102016109dd565b6040518082815260200191505060405180910390f35b34801561022357600080fd5b506102666004803603602081101561023a57600080fd5b81019080803573ffffffffffffffffffffffffffffffffffffffff1690602001909291905050506109e3565b6040518082600760200280838360005b83811015610291578082015181840152602081019050610276565b5050505090500191505060405180910390f35b3480156102b057600080fd5b506102dd600480360360208110156102c757600080fd5b8101908080359060200190929190505050610b20565b6040518082600360200280838360005b838110156103085780820151818401526020810190506102ed565b5050505090500191505060405180910390f35b34801561032757600080fd5b50610330610b88565b6040518082815260200191505060405180910390f35b6103b0600480360360a081101561035c57600080fd5b81019080803573ffffffffffffffffffffffffffffffffffffffff16906020019092919080359060200190929190803590602001909291908035906020019092919080359060200190929190505050610b93565b604051808215151515815260200191505060405180910390f35b3480156103d657600080fd5b506103df611101565b6040518080602001828103825283818151815260200191508051906020019060200280838360005b83811015610422578082015181840152602081019050610407565b505050509050019250505060405180910390f35b34801561044257600080fd5b5061044b61118f565b6040518082815260200191505060405180910390f35b34801561046d57600080fd5b5061047661119a565b604051808273ffffffffffffffffffffffffffffffffffffffff1673ffffffffffffffffffffffffffffffffffffffff16815260200191505060405180910390f35b6104c06111bf565b604051808215151515815260200191505060405180910390f35b3480156104e657600080fd5b50610513600480360360208110156104fd57600080fd5b8101908080359060200190929190505050611618565b604051808215151515815260200191505060405180910390f35b34801561053957600080fd5b50610542611850565b604051808215151515815260200191505060405180910390f35b34801561056857600080fd5b50610571611863565b60405180848152602001838152602001828152602001935050505060405180910390f35b61059d61187b565b604051808215151515815260200191505060405180910390f35b600080600660008473ffffffffffffffffffffffffffffffffffffffff1673ffffffffffffffffffffffffffffffffffffffff16815260200190815260200160002060060154119050919050565b6000600560009054906101000a900460ff16905090565b6000610627336105b7565b151561069b576040517f08c379a00000000000000000000000000000000000000000000000000000000081526004018080602001828103825260148152602001807f596f7520617265206e6f74206120706c6179657200000000000000000000000081525060200191505060405180910390fd5b6106a3610605565b151515610718576040517f08c379a000000000000000000000000000000000000000000000000000000000815260040180806020018281038252600c8152602001807f47616d65206973206f766572000000000000000000000000000000000000000081525060200191505060405180910390fd5b610720611c00565b600660003373ffffffffffffffffffffffffffffffffffffffff1673ffffffffffffffffffffffffffffffffffffffff16815260200190815260200160002060000160606040519081016040529081600082015481526020016001820154815260200160028201548152505090506107a5816000015182602001518360400151611b52565b1515610819576040517f08c379a000000000000000000000000000000000000000000000000000000000815260040180806020018281038252600a8152602001807f4e6f742077696e6e65720000000000000000000000000000000000000000000081525060200191505060405180910390fd5b3373ffffffffffffffffffffffffffffffffffffffff166108fc3073ffffffffffffffffffffffffffffffffffffffff16319081150290604051600060405180830381858888f19350505050158015610876573d6000803e3d6000fd5b506001600560006101000a81548160ff0219169083151502179055503373ffffffffffffffffffffffffffffffffffffffff167f970f935ee01502df35da11db45c29bdd97d8f41d5a0640c1dc3bd96c67f9798760405160405180910390a2600191505090565b60008060009054906101000a900473ffffffffffffffffffffffffffffffffffffffff1673ffffffffffffffffffffffffffffffffffffffff163373ffffffffffffffffffffffffffffffffffffffff161415156109a3576040517f08c379a00000000000000000000000000000000000000000000000000000000081526004018080602001828103825260128152602001807f5065726d697373696f6e2064656e6965642e000000000000000000000000000081525060200191505060405180910390fd5b6000809054906101000a900473ffffffffffffffffffffffffffffffffffffffff1673ffffffffffffffffffffffffffffffffffffffff16ff5b60015481565b6109eb611c22565b6109f3611c45565b600660008473ffffffffffffffffffffffffffffffffffffffff1673ffffffffffffffffffffffffffffffffffffffff16815260200190815260200160002060606040519081016040529081600082016060604051908101604052908160008201548152602001600182015481526020016002820154815250508152602001600382016060604051908101604052908160008201548152602001600182015481526020016002820154815250508152602001600682015481525050905060e0604051908101604052808260000151600001518152602001826000015160200151815260200182600001516040015181526020018260200151600001518152602001826020015160200151815260200182602001516040015181526020018260400151815250915050919050565b610b28611c73565b606060405190810160405280610b4f61ffff62ff00008616811515610b4957fe5b04611be2565b8152602001610b6d60ff61ff008616811515610b6757fe5b04611be2565b8152602001610b7e60ff8516611be2565b8152509050919050565b662386f26fc1000081565b6000610b9d610605565b151515610c12576040517f08c379a000000000000000000000000000000000000000000000000000000000815260040180806020018281038252600c8152602001807f47616d65206973206f766572000000000000000000000000000000000000000081525060200191505060405180910390fd5b610c1b336105b7565b1515610c8f576040517f08c379a00000000000000000000000000000000000000000000000000000000081526004018080602001828103825260148152602001807f596f7520617265206e6f74206120706c6179657200000000000000000000000081525060200191505060405180910390fd5b610c98866105b7565b1515610d0c576040517f08c379a000000000000000000000000000000000000000000000000000000000815260040180806020018281038252601c8152602001807f596f75206d75737420626c656e642077697468206120706c617965720000000081525060200191505060405180910390fd5b610d14611c45565b600660008873ffffffffffffffffffffffffffffffffffffffff1673ffffffffffffffffffffffffffffffffffffffff16815260200190815260200160002060606040519081016040529081600082016060604051908101604052908160008201548152602001600182015481526020016002820154815250508152602001600382016060604051908101604052908160008201548152602001600182015481526020016002820154815250508152602001600682015481525050905080604001518610151515610e4d576040517f08c379a000000000000000000000000000000000000000000000000000000000815260040180806020018281038252601c8152602001807f426c656e64696e672070726963652068617320696e637265617365640000000081525060200191505060405180910390fd5b80604001513410151515610ec9576040517f08c379a000000000000000000000000000000000000000000000000000000000815260040180806020018281038252601c8152602001807f4e6f7420656e6f75676874207472616e7366657265642045746865720000000081525060200191505060405180910390fd5b80600001516000015185148015610ee7575080600001516020015184145b8015610efa575080600001516040015183145b1515610f6e576040517f08c379a000000000000000000000000000000000000000000000000000000000815260040180806020018281038252601a8152602001807f426c656e64696e6720636f6c6f7220686173206368616e67656400000000000081525060200191505060405180910390fd5b6000600660003373ffffffffffffffffffffffffffffffffffffffff1673ffffffffffffffffffffffffffffffffffffffff16815260200190815260200160002090506002826000015160000151826000016000015401811515610fce57fe5b0481600001600001819055506002826000015160200151826000016001015401811515610ff757fe5b048160000160010181905550600282600001516040015182600001600201540181151561102057fe5b0481600001600201819055508773ffffffffffffffffffffffffffffffffffffffff166108fc60023481151561105257fe5b049081150290604051600060405180830381858888f1935050505015801561107e573d6000803e3d6000fd5b503373ffffffffffffffffffffffffffffffffffffffff167f5078c587a9932358239e31ea88ae2d84b8cf7c9e44af81d1fd3a4f4c8c5f51f182600001600001548360000160010154846000016002015460405180848152602001838152602001828152602001935050505060405180910390a260019250505095945050505050565b6060600780548060200260200160405190810160405280929190818152602001828054801561118557602002820191906000526020600020905b8160009054906101000a900473ffffffffffffffffffffffffffffffffffffffff1673ffffffffffffffffffffffffffffffffffffffff168152602001906001019080831161113b575b5050505050905090565b66038d7ea4c6800081565b6000809054906101000a900473ffffffffffffffffffffffffffffffffffffffff1681565b60006111c9610605565b15151561123e576040517f08c379a000000000000000000000000000000000000000000000000000000000815260040180806020018281038252600c8152602001807f47616d65206973206f766572000000000000000000000000000000000000000081525060200191505060405180910390fd5b611247336105b7565b1515156112bc576040517f08c379a00000000000000000000000000000000000000000000000000000000081526004018080602001828103825260108152602001807f416c7265616479206120706c617965720000000000000000000000000000000081525060200191505060405180910390fd5b66038d7ea4c68000341015151561133b576040517f08c379a000000000000000000000000000000000000000000000000000000000815260040180806020018281038252601d8152602001807f506c6179696e672066656520686173206e6f74206265656e207061696400000081525060200191505060405180910390fd5b60003360014303404142604051602001808573ffffffffffffffffffffffffffffffffffffffff1673ffffffffffffffffffffffffffffffffffffffff166c010000000000000000000000000281526014018481526020018373ffffffffffffffffffffffffffffffffffffffff1673ffffffffffffffffffffffffffffffffffffffff166c01000000000000000000000000028152601401828152602001945050505050604051602081830303815290604052805190602001209050611400611c73565b61140d8260019004610b20565b9050611417611c00565b60606040519081016040528083600060038110151561143257fe5b6020020151815260200183600160038110151561144b57fe5b6020020151815260200183600260038110151561146457fe5b6020020151815250905060073390806001815401808255809150509060018203906000526020600020016000909192909190916101000a81548173ffffffffffffffffffffffffffffffffffffffff021916908373ffffffffffffffffffffffffffffffffffffffff16021790555050606060405190810160405280828152602001828152602001662386f26fc10000815250600660003373ffffffffffffffffffffffffffffffffffffffff1673ffffffffffffffffffffffffffffffffffffffff16815260200190815260200160002060008201518160000160008201518160000155602082015181600101556040820151816002015550506020820151816003016000820151816000015560208201518160010155604082015181600201555050604082015181600601559050503373ffffffffffffffffffffffffffffffffffffffff167ff46b9eed909bd7ac945f2e57c1d575062de16a3fed0328036b499cff1eb87042826000015183602001518460400151662386f26fc100006040518085815260200184815260200183815260200182815260200194505050505060405180910390a26001935050505090565b6000611622610605565b151515611697576040517f08c379a000000000000000000000000000000000000000000000000000000000815260040180806020018281038252600c8152602001807f47616d65206973206f766572000000000000000000000000000000000000000081525060200191505060405180910390fd5b6116a0336105b7565b1515611714576040517f08c379a00000000000000000000000000000000000000000000000000000000081526004018080602001828103825260148152602001807f596f7520617265206e6f74206120706c6179657200000000000000000000000081525060200191505060405180910390fd5b6000821115156117b2576040517f08c379a00000000000000000000000000000000000000000000000000000000081526004018080602001828103825260218152602001807f426c656e64696e672070726963652073686f756c6420626520706f736974697681526020017f650000000000000000000000000000000000000000000000000000000000000081525060400191505060405180910390fd5b81600660003373ffffffffffffffffffffffffffffffffffffffff1673ffffffffffffffffffffffffffffffffffffffff168152602001908152602001600020600601819055503373ffffffffffffffffffffffffffffffffffffffff167ffecfb8aff64c04d15e06b14626385afa23fbd69bb0ad5744e9de7f8efca84ce0836040518082815260200191505060405180910390a260019050919050565b600560009054906101000a900460ff1681565b60028060000154908060010154908060020154905083565b6000611885610605565b1515156118fa576040517f08c379a000000000000000000000000000000000000000000000000000000000815260040180806020018281038252600c8152602001807f47616d65206973206f766572000000000000000000000000000000000000000081525060200191505060405180910390fd5b611903336105b7565b1515611977576040517f08c379a00000000000000000000000000000000000000000000000000000000081526004018080602001828103825260148152602001807f596f7520617265206e6f74206120706c6179657200000000000000000000000081525060200191505060405180910390fd5b662386f26fc100003410151515611a1c576040517f08c379a00000000000000000000000000000000000000000000000000000000081526004018080602001828103825260268152602001807f44656661756c7420626c656e64696e672066656520686173206e6f742062656581526020017f6e2070616964000000000000000000000000000000000000000000000000000081525060400191505060405180910390fd5b6000600660003373ffffffffffffffffffffffffffffffffffffffff1673ffffffffffffffffffffffffffffffffffffffff168152602001908152602001600020905060028160030160000154826000016000015401811515611a7b57fe5b04816000016000018190555060028160030160010154826000016001015401811515611aa357fe5b04816000016001018190555060028160030160020154826000016002015401811515611acb57fe5b0481600001600201819055503373ffffffffffffffffffffffffffffffffffffffff167f5078c587a9932358239e31ea88ae2d84b8cf7c9e44af81d1fd3a4f4c8c5f51f182600001600001548360000160010154846000016002015460405180848152602001838152602001828152602001935050505060405180910390a2600191505090565b600080600260000154600154860110158015611b775750600154600260000154018511155b90506000600260010154600154860110158015611b9d5750600154600260010154018511155b905060006002800154600154860110158015611bc157506001546002800154018511155b9050828015611bcd5750815b8015611bd65750805b93505050509392505050565b6000607f821115611bf65760ff9050611bfb565b600090505b919050565b6060604051908101604052806000815260200160008152602001600081525090565b60e060405190810160405280600790602082028038833980820191505090505090565b60e060405190810160405280611c59611c96565b8152602001611c66611c96565b8152602001600081525090565b606060405190810160405280600390602082028038833980820191505090505090565b606060405190810160405280600081526020016000815260200160008152509056fea165627a7a7230582039cd4b7ffef2ca13d772facd9775874626b8f6f82fe4cc4abeb646e9eb6796bf0029",
  "source": "pragma solidity ^0.5.0;\n\n\n/**\n * @title RainbowToken\n *\n * @dev Rainbow Token contract\n * Rainbow Token is a game in which players own a colored token.\n * Players can change their token color by blending it with another player tokens.\n * Players are required to pay some fee to perform action in the game\n * Players should try to give their token a target color that is set when deploying game contract\n *\n * Rules:\n * 1. Playing:To start playing a player needs to pay 0.1 ETH fee to the RainbowToken contract\n * 2. Blending: When blending only the color of the player requesting the blend is modified\n *    To blend their token with another player token players must pay a blending price that is set by the player\n *    Half of the amount paid is given to the blending player the other half is given to the Rainbow Token contract\n * 3. Auto Blending: Players can change their token color by blending with their own default color that can be derived from player's address\n *    To auto blend a user should pay 0.01 ETH to Rainbow Token contract\n * 4. Game winner is\n *    - first player to get a token of a target color\n *    If a player successfully claims win, she/he get sall ETH that have been transfered to the Rainbow Token contract during the game\n */\ncontract RainbowToken {\n\n  struct Color {\n    uint r;\n    uint g;\n    uint b;\n  }\n\n  struct Token {\n    Color color;\n    Color defaultColor;\n    uint blendingPrice;\n  }\n\n  /* Fee */\n  uint constant public PLAYING_FEE = 1000000000000000;\n  uint constant public DEFAULT_BLENDING_PRICE = 10000000000000000;\n\n  /* Owner */\n  address payable public owner;\n\n  /* Winning constant */\n  uint public winningConstant;\n\n  /* Target color to win game */\n  Color public targetColor;\n\n  /* Boolean indicating if a player won the game */\n  bool public gameOver = false;\n\n  /* Mapping containing rainbow tokens */\n  mapping(address => Token) tokens;\n\n  /* Array listing players */\n  address[] players;\n\n  /* Throw if the sender is not a player */\n  modifier onlyPlayer() {\n    require(isPlayer(msg.sender), \"You are not a player\");\n    _;\n  }\n\n  /* Throw if game is over */\n  modifier gameInProgress() {\n    require(!isGameOver(), \"Game is over\");\n    _;\n  }\n\n  /* Emitted each time a player join the game */\n  event PlayerCreated(\n    address indexed player,\n    uint r,\n    uint g,\n    uint b,\n    uint blendingPrice\n  );\n\n  /* Emitted each time a blending is realized */\n  event TokenBlended(\n    address indexed player,\n    uint r,\n    uint g,\n    uint b\n  );\n\n  /* Emitted each time a player modifies its blending price */\n  event BlendingPriceSet(\n    address indexed player,\n    uint price\n  );\n\n  /* Emitted when a player has won */\n  event PlayerWon(\n    address indexed player\n  );\n\n  /**\n   * @dev Start a new Rainbow Token game\n   * @param _r Target color Red value\n   * @param _g Target color Green value\n   * @param _b Target color Blue value\n   */\n  constructor(\n    int _r,\n    int _g,\n    int _b,\n    uint _winningConstant\n  )\n    public\n  {\n    // Set target color\n    targetColor = Color(uint(_r), uint(_g), uint(_b));\n    // Set owner to be the sender\n    owner = msg.sender;\n    // Set winning constant\n    winningConstant = _winningConstant;\n  }\n\n  /**\n   * @dev Get players\n   */\n  function getPlayers()\n    public\n    view\n    returns (address[] memory)\n  {\n    return players;\n  }\n\n  /**\n   * @dev Get token information\n   * @param _player Player address\n   */\n  function getToken(\n    address _player\n  )\n    public\n    view\n    returns (uint[7] memory)\n  {\n    Token memory token = tokens[_player];\n    return [\n      token.color.r,\n      token.color.g,\n      token.color.b,\n      token.defaultColor.r,\n      token.defaultColor.g,\n      token.defaultColor.b,\n      token.blendingPrice\n    ];\n  }\n\n  /**\n   * @dev Check if a player exist\n   * @param _player Player address\n   */\n  function isPlayer(\n    address _player\n  )\n    public\n    view\n    returns (bool)\n  {\n    // Blending price can not be set to 0\n    return tokens[_player].blendingPrice > 0;\n  }\n\n  /**\n   * @dev Check if game is over\n   */\n  function isGameOver()\n    public\n    view\n    returns (bool)\n  {\n    return gameOver;\n  }\n\n  /**\n   * @dev Register transaction sender has a new player\n   */\n  function play()\n    public\n    payable\n    gameInProgress\n    returns (bool)\n  {\n    // The sender must not be already a player\n    require(!isPlayer(msg.sender), \"Already a player\");\n\n    // Sender must have paid gaming to start playing\n    require(msg.value >= PLAYING_FEE, \"Playing fee has not been paid\");\n\n    // Compute player default color (try to make it tough for a player to anticipate default color)\n    bytes32 defaultColorSeed = keccak256(\n      abi.encodePacked(\n        msg.sender,\n        blockhash(block.number - 1),\n        block.coinbase,\n        block.timestamp\n      )\n    );\n    uint[3] memory defaultRgb = getRgb(uint(defaultColorSeed));\n    Color memory defaultColor = Color(defaultRgb[0], defaultRgb[1], defaultRgb[2]);\n\n    // Register player\n    players.push(msg.sender);\n    tokens[msg.sender] = Token(defaultColor, defaultColor, DEFAULT_BLENDING_PRICE);\n\n    // Emit event\n    emit PlayerCreated(\n      msg.sender,\n      defaultColor.r,\n      defaultColor.g,\n      defaultColor.b,\n      DEFAULT_BLENDING_PRICE\n    );\n\n    return true;\n  }\n\n  /**\n   * @dev Compute RGB values based on a seed\n   * @param _seed New price (must be strictly positive)\n   */\n  function getRgb(\n    uint _seed\n  )\n    public\n    pure\n    returns (uint[3] memory)\n  {\n    return [\n      toPrimary(uint((_seed & 0xff0000) / 0xffff)),\n      toPrimary(uint((_seed & 0xff00) / 0xff)),\n      toPrimary(uint(_seed & 0xff))\n    ];\n  }\n\n  /**\n   * @dev Set blending price\n   * @param _price New price (must be strictly positive)\n   */\n  function setBlendingPrice(\n    uint _price\n  )\n     public\n     gameInProgress\n     onlyPlayer\n     returns (bool)\n  {\n    // Blending price must be positive\n    require(_price > 0, \"Blending price should be positive\");\n\n    // Set price\n    tokens[msg.sender].blendingPrice = _price;\n\n    // Emit event\n    emit BlendingPriceSet(\n      msg.sender,\n      _price\n    );\n\n    return true;\n  }\n\n  /**\n   * @dev Blend player token with another player token\n   * @param _blendingPlayer Player to blend with\n   * @param _blendingPrice Blending token price\n   * @param _blendingR Blending token Red value\n   * @param _blendingG Blending token Green value\n   * @param _blendingB Blending token Blue value\n   */\n  function blend(\n    address payable _blendingPlayer,\n    uint _blendingPrice,\n    uint _blendingR,\n    uint _blendingG,\n    uint _blendingB\n  )\n    public\n    payable\n    gameInProgress\n    onlyPlayer\n    returns (bool)\n  {\n    // Must blend with a player\n    require(isPlayer(_blendingPlayer), \"You must blend with a player\");\n\n    // Get token of player to blend with\n    Token memory blendingToken = tokens[_blendingPlayer];\n\n    // Ensure blending token price has not increased while transaction was pending\n    require(_blendingPrice >= blendingToken.blendingPrice, \"Blending price has increased\");\n\n    // The sender must have transfer enough value to blend\n    require(msg.value >= blendingToken.blendingPrice, \"Not enought transfered Ether\");\n\n    // Ensure blending token color has not been modified while transaction was pending\n    require(\n      _blendingR == blendingToken.color.r && _blendingG == blendingToken.color.g && _blendingB == blendingToken.color.b,\n      \"Blending color has changed\"\n    );\n\n    // Blend current player token\n    Token storage token = tokens[msg.sender];\n    token.color.r = (token.color.r + blendingToken.color.r) / 2;\n    token.color.g = (token.color.g + blendingToken.color.g) / 2;\n    token.color.b = (token.color.b + blendingToken.color.b) / 2;\n\n    // Pay blending player\n    _blendingPlayer.transfer(msg.value / 2);\n\n    // Emit event\n    emit TokenBlended(\n      msg.sender,\n      token.color.r,\n      token.color.g,\n      token.color.b\n    );\n\n    return true;\n  }\n\n  /**\n   * @dev Blend with default token color\n   */\n  function defaultBlend()\n    public\n    payable\n    gameInProgress\n    onlyPlayer\n    returns (bool)\n  {\n    // Player needs to transfer minimum blending price\n    require(msg.value >= DEFAULT_BLENDING_PRICE, \"Default blending fee has not been paid\");\n\n    // Get current player token\n    Token storage token = tokens[msg.sender];\n\n    // Blend player token with default color\n    token.color.r = (token.color.r + token.defaultColor.r) / 2;\n    token.color.g = (token.color.g + token.defaultColor.g) / 2;\n    token.color.b = (token.color.b + token.defaultColor.b) / 2;\n\n    // Emit event\n    emit TokenBlended(\n      msg.sender,\n      token.color.r,\n      token.color.g,\n      token.color.b\n    );\n\n    return true;\n  }\n\n  /**\n   * @dev Current player claim victory\n   */\n  function claimVictory()\n    public\n    onlyPlayer\n    gameInProgress\n    returns (bool)\n  {\n    // Test player token has a winning color\n    Color memory color = tokens[msg.sender].color;\n    require(isCloseEnough(color.r, color.g, color.b), \"Not winner\");\n\n    // Transfer winning prize\n    msg.sender.transfer(address(this).balance);\n\n    // End game\n    gameOver = true;\n\n    // Emit event\n    emit PlayerWon(\n      msg.sender\n    );\n\n    return true;\n  }\n\n  function isCloseEnough(\n    uint r,\n    uint g,\n    uint b\n  )\n    internal\n    view\n    returns (bool)\n  {\n    bool isCloseR = r + winningConstant >= targetColor.r && r <= targetColor.r + winningConstant;\n    bool isCloseG = g + winningConstant >= targetColor.g && g <= targetColor.g + winningConstant;\n    bool isCloseB = b + winningConstant >= targetColor.b && b <= targetColor.b + winningConstant;\n    return isCloseR && isCloseG && isCloseB;\n  }\n\n  /**\n   * @dev Pushes a component of a color to its closer border\n   * @param component The component of the color\n   */\n  function toPrimary(\n    uint component\n  )\n    internal\n    pure\n    returns (uint)\n  {\n    if (component > 127) {\n        return 255;\n    } else {\n      return 0;\n    }\n  }\n\n  /**\n   * @dev Owner kills the contract\n   */\n  function backdoor() public returns (bool) {\n    require(msg.sender == owner, 'Permission denied.');\n    selfdestruct(owner);\n  }\n}\n",
  "sourcePath": "/Users/v-g/Consensys/rainbow-token/contracts/RainbowToken.sol",
  "compiler": {
    "name": "solc",
    "version": "0.5.0+commit.1d4f565a.Emscripten.clang"
  },
  "schemaVersion": "3.0.2",
  "updatedAt": "2019-03-02T15:30:14.948Z",
  "devdoc": {
    "details": "Rainbow Token contract Rainbow Token is a game in which players own a colored token. Players can change their token color by blending it with another player tokens. Players are required to pay some fee to perform action in the game Players should try to give their token a target color that is set when deploying game contract * Rules: 1. Playing:To start playing a player needs to pay 0.1 ETH fee to the RainbowToken contract 2. Blending: When blending only the color of the player requesting the blend is modified   To blend their token with another player token players must pay a blending price that is set by the player   Half of the amount paid is given to the blending player the other half is given to the Rainbow Token contract 3. Auto Blending: Players can change their token color by blending with their own default color that can be derived from player's address   To auto blend a user should pay 0.01 ETH to Rainbow Token contract 4. Game winner is   - first player to get a token of a target color   If a player successfully claims win, she/he get sall ETH that have been transfered to the Rainbow Token contract during the game",
    "methods": {
      "backdoor()": {
        "details": "Owner kills the contract"
      },
      "blend(address,uint256,uint256,uint256,uint256)": {
        "details": "Blend player token with another player token",
        "params": {
          "_blendingB": "Blending token Blue value",
          "_blendingG": "Blending token Green value",
          "_blendingPlayer": "Player to blend with",
          "_blendingPrice": "Blending token price",
          "_blendingR": "Blending token Red value"
        }
      },
      "claimVictory()": {
        "details": "Current player claim victory"
      },
      "constructor": {
        "details": "Start a new Rainbow Token game",
        "params": {
          "_b": "Target color Blue value",
          "_g": "Target color Green value",
          "_r": "Target color Red value"
        }
      },
      "defaultBlend()": {
        "details": "Blend with default token color"
      },
      "getPlayers()": {
        "details": "Get players"
      },
      "getRgb(uint256)": {
        "details": "Compute RGB values based on a seed",
        "params": {
          "_seed": "New price (must be strictly positive)"
        }
      },
      "getToken(address)": {
        "details": "Get token information",
        "params": {
          "_player": "Player address"
        }
      },
      "isGameOver()": {
        "details": "Check if game is over"
      },
      "isPlayer(address)": {
        "details": "Check if a player exist",
        "params": {
          "_player": "Player address"
        }
      },
      "play()": {
        "details": "Register transaction sender has a new player"
      },
      "setBlendingPrice(uint256)": {
        "details": "Set blending price",
        "params": {
          "_price": "New price (must be strictly positive)"
        }
      }
    },
    "title": "RainbowToken"
  },
  "userdoc": {
    "methods": {}
  }
}