{
  "contractName": "RgbWallet",
  "abi": [
    {
      "constant": true,
      "inputs": [
        {
          "name": "",
          "type": "address"
        }
      ],
      "name": "wallets",
      "outputs": [
        {
          "name": "r",
          "type": "uint256"
        },
        {
          "name": "g",
          "type": "uint256"
        },
        {
          "name": "b",
          "type": "uint256"
        }
      ],
      "payable": false,
      "stateMutability": "view",
      "type": "function"
    },
    {
      "constant": true,
      "inputs": [],
      "name": "owner",
      "outputs": [
        {
          "name": "",
          "type": "address"
        }
      ],
      "payable": false,
      "stateMutability": "view",
      "type": "function"
    },
    {
      "constant": true,
      "inputs": [
        {
          "name": "",
          "type": "uint256"
        }
      ],
      "name": "playerList",
      "outputs": [
        {
          "name": "",
          "type": "address"
        }
      ],
      "payable": false,
      "stateMutability": "view",
      "type": "function"
    },
    {
      "inputs": [],
      "payable": false,
      "stateMutability": "nonpayable",
      "type": "constructor"
    },
    {
      "anonymous": false,
      "inputs": [
        {
          "indexed": true,
          "name": "playerAddress",
          "type": "address"
        }
      ],
      "name": "NewPlayer",
      "type": "event"
    },
    {
      "anonymous": false,
      "inputs": [
        {
          "indexed": true,
          "name": "blender",
          "type": "address"
        },
        {
          "indexed": false,
          "name": "r",
          "type": "uint256"
        },
        {
          "indexed": false,
          "name": "g",
          "type": "uint256"
        },
        {
          "indexed": false,
          "name": "b",
          "type": "uint256"
        }
      ],
      "name": "Blending",
      "type": "event"
    },
    {
      "constant": false,
      "inputs": [],
      "name": "play",
      "outputs": [],
      "payable": false,
      "stateMutability": "nonpayable",
      "type": "function"
    },
    {
      "constant": false,
      "inputs": [
        {
          "name": "otherPlayer",
          "type": "address"
        },
        {
          "name": "targetRgbR",
          "type": "uint256"
        },
        {
          "name": "targetRgbG",
          "type": "uint256"
        },
        {
          "name": "targetRgbB",
          "type": "uint256"
        }
      ],
      "name": "blendWithOthers",
      "outputs": [],
      "payable": true,
      "stateMutability": "payable",
      "type": "function"
    },
    {
      "constant": false,
      "inputs": [],
      "name": "blendWithYourself",
      "outputs": [],
      "payable": true,
      "stateMutability": "payable",
      "type": "function"
    },
    {
      "constant": true,
      "inputs": [
        {
          "name": "player",
          "type": "address"
        }
      ],
      "name": "getDefaultRgb",
      "outputs": [
        {
          "name": "",
          "type": "uint256[3]"
        }
      ],
      "payable": false,
      "stateMutability": "pure",
      "type": "function"
    },
    {
      "constant": true,
      "inputs": [
        {
          "name": "player",
          "type": "address"
        }
      ],
      "name": "getCurrentRgb",
      "outputs": [
        {
          "name": "",
          "type": "uint256[3]"
        }
      ],
      "payable": false,
      "stateMutability": "view",
      "type": "function"
    },
    {
      "constant": true,
      "inputs": [],
      "name": "getPlayers",
      "outputs": [
        {
          "name": "",
          "type": "address[]"
        }
      ],
      "payable": false,
      "stateMutability": "view",
      "type": "function"
    },
    {
      "constant": true,
      "inputs": [
        {
          "name": "_address",
          "type": "address"
        }
      ],
      "name": "isPlayer",
      "outputs": [
        {
          "name": "",
          "type": "bool"
        }
      ],
      "payable": false,
      "stateMutability": "view",
      "type": "function"
    }
  ],
  "bytecode": "0x608060405234801561001057600080fd5b50336000806101000a81548173ffffffffffffffffffffffffffffffffffffffff021916908373ffffffffffffffffffffffffffffffffffffffff160217905550336000806101000a81548173ffffffffffffffffffffffffffffffffffffffff021916908373ffffffffffffffffffffffffffffffffffffffff160217905550426003819055506111ac806100a76000396000f3006080604052600436106100a4576000357c0100000000000000000000000000000000000000000000000000000000900463ffffffff168063074e6254146100a957806309c95e10146100b35780634df658731461010e57806389b08f111461018d5780638b5b9ccc146101f25780638da5cb5b1461025e57806393e84cd9146102b5578063a09ddf4e146102cc578063ae6d90731461034b578063d829f1e0146103b8575b600080fd5b6100b161040c565b005b3480156100bf57600080fd5b506100f4600480360381019080803573ffffffffffffffffffffffffffffffffffffffff169060200190929190505050610746565b604051808215151515815260200191505060405180910390f35b34801561011a57600080fd5b5061014f600480360381019080803573ffffffffffffffffffffffffffffffffffffffff1690602001909291905050506107e5565b6040518082600360200280838360005b8381101561017a57808201518184015260208101905061015f565b5050505090500191505060405180910390f35b34801561019957600080fd5b506101ce600480360381019080803573ffffffffffffffffffffffffffffffffffffffff1690602001909291905050506108ce565b60405180848152602001838152602001828152602001935050505060405180910390f35b3480156101fe57600080fd5b506102076108f8565b6040518080602001828103825283818151815260200191508051906020019060200280838360005b8381101561024a57808201518184015260208101905061022f565b505050509050019250505060405180910390f35b34801561026a57600080fd5b50610273610986565b604051808273ffffffffffffffffffffffffffffffffffffffff1673ffffffffffffffffffffffffffffffffffffffff16815260200191505060405180910390f35b3480156102c157600080fd5b506102ca6109ab565b005b3480156102d857600080fd5b5061030d600480360381019080803573ffffffffffffffffffffffffffffffffffffffff169060200190929190505050610c66565b6040518082600360200280838360005b8381101561033857808201518184015260208101905061031d565b5050505090500191505060405180910390f35b34801561035757600080fd5b5061037660048036038101908080359060200190929190505050610d11565b604051808273ffffffffffffffffffffffffffffffffffffffff1673ffffffffffffffffffffffffffffffffffffffff16815260200191505060405180910390f35b61040a600480360381019080803573ffffffffffffffffffffffffffffffffffffffff169060200190929190803590602001909291908035906020019092919080359060200190929190505050610d4f565b005b600061041661113b565b600062093a80600354014211151515610497576040517f08c379a00000000000000000000000000000000000000000000000000000000081526004018080602001828103825260098152602001807f47616d65206f766572000000000000000000000000000000000000000000000081525060200191505060405180910390fd5b6104a033610746565b1515610514576040517f08c379a000000000000000000000000000000000000000000000000000000000815260040180806020018281038252600c8152602001807f4e6f74206120706c61796572000000000000000000000000000000000000000081525060200191505060405180910390fd5b66470de4df8200003410151515610593576040517f08c379a00000000000000000000000000000000000000000000000000000000081526004018080602001828103825260108152602001807f4e6f7420656e6f7567682045746865720000000000000000000000000000000081525060200191505060405180910390fd5b60033373ffffffffffffffffffffffffffffffffffffffff168115156105b557fe5b06925060008314156105e75760606040519081016040528060ff81526020016000815260200160008152509150610639565b6001831415610616576060604051908101604052806000815260200160ff815260200160008152509150610638565b606060405190810160405280600081526020016000815260200160ff81525091505b5b600160003373ffffffffffffffffffffffffffffffffffffffff1673ffffffffffffffffffffffffffffffffffffffff16815260200190815260200160002090506002826000015182600001540181151561069057fe5b048160000181905550600282602001518260010154018115156106af57fe5b048160010181905550600282604001518260020154018115156106ce57fe5b0481600201819055503373ffffffffffffffffffffffffffffffffffffffff167f54c94c8747d7f160635653967daf90cb5823db77c56b924372f923ad753fcc6a82600001548360010154846002015460405180848152602001838152602001828152602001935050505060405180910390a2505050565b6000805b6002805490508110156107da578273ffffffffffffffffffffffffffffffffffffffff1660028281548110151561077d57fe5b9060005260206000200160009054906101000a900473ffffffffffffffffffffffffffffffffffffffff1673ffffffffffffffffffffffffffffffffffffffff1614156107cd57600191506107df565b808060010191505061074a565b600091505b50919050565b6107ed61115d565b60006107f761113b565b60038473ffffffffffffffffffffffffffffffffffffffff1681151561081957fe5b069150600082141561084b5760606040519081016040528060ff8152602001600081526020016000815250905061089d565b600182141561087a576060604051908101604052806000815260200160ff81526020016000815250905061089c565b606060405190810160405280600081526020016000815260200160ff81525090505b5b6060604051908101604052808260000151815260200182602001518152602001826040015181525092505050919050565b60016020528060005260406000206000915090508060000154908060010154908060020154905083565b6060600280548060200260200160405190810160405280929190818152602001828054801561097c57602002820191906000526020600020905b8160009054906101000a900473ffffffffffffffffffffffffffffffffffffffff1673ffffffffffffffffffffffffffffffffffffffff1681526020019060010190808311610932575b5050505050905090565b6000809054906101000a900473ffffffffffffffffffffffffffffffffffffffff1681565b60006109b561113b565b62093a80600354014211151515610a34576040517f08c379a00000000000000000000000000000000000000000000000000000000081526004018080602001828103825260098152602001807f47616d65206f766572000000000000000000000000000000000000000000000081525060200191505060405180910390fd5b610a3d33610746565b151515610ab2576040517f08c379a00000000000000000000000000000000000000000000000000000000081526004018080602001828103825260108152602001807f416c7265616479206120706c617965720000000000000000000000000000000081525060200191505060405180910390fd5b60023390806001815401808255809150509060018203906000526020600020016000909192909190916101000a81548173ffffffffffffffffffffffffffffffffffffffff021916908373ffffffffffffffffffffffffffffffffffffffff1602179055505060033373ffffffffffffffffffffffffffffffffffffffff16811515610b3a57fe5b0691506000821415610b6c5760606040519081016040528060ff81526020016000815260200160008152509050610bbe565b6001821415610b9b576060604051908101604052806000815260200160ff815260200160008152509050610bbd565b606060405190810160405280600081526020016000815260200160ff81525090505b5b80600160003373ffffffffffffffffffffffffffffffffffffffff1673ffffffffffffffffffffffffffffffffffffffff1681526020019081526020016000206000820151816000015560208201518160010155604082015181600201559050503373ffffffffffffffffffffffffffffffffffffffff167f52e92d4898337244a39bd42674ac561eadfd3959e947deec1c0ab82dd58b5a7560405160405180910390a25050565b610c6e61115d565b610c7661113b565b600160008473ffffffffffffffffffffffffffffffffffffffff1673ffffffffffffffffffffffffffffffffffffffff168152602001908152602001600020606060405190810160405290816000820154815260200160018201548152602001600282015481525050905060606040519081016040528082600001518152602001826020015181526020018260400151815250915050919050565b600281815481101515610d2057fe5b906000526020600020016000915054906101000a900473ffffffffffffffffffffffffffffffffffffffff1681565b610d5761113b565b600062093a80600354014211151515610dd8576040517f08c379a00000000000000000000000000000000000000000000000000000000081526004018080602001828103825260098152602001807f47616d65206f766572000000000000000000000000000000000000000000000081525060200191505060405180910390fd5b610de133610746565b1515610e55576040517f08c379a000000000000000000000000000000000000000000000000000000000815260040180806020018281038252600c8152602001807f4e6f74206120706c61796572000000000000000000000000000000000000000081525060200191505060405180910390fd5b66470de4df8200003410151515610ed4576040517f08c379a00000000000000000000000000000000000000000000000000000000081526004018080602001828103825260108152602001807f4e6f7420656e6f7567682045746865720000000000000000000000000000000081525060200191505060405180910390fd5b600160008773ffffffffffffffffffffffffffffffffffffffff1673ffffffffffffffffffffffffffffffffffffffff1681526020019081526020016000206060604051908101604052908160008201548152602001600182015481526020016002820154815250509150816000015185148015610f555750816020015184145b8015610f645750816040015183145b1515610fd8576040517f08c379a00000000000000000000000000000000000000000000000000000000081526004018080602001828103825260178152602001807f54617267657420636f696e20686173206368616e67656400000000000000000081525060200191505060405180910390fd5b600160003373ffffffffffffffffffffffffffffffffffffffff1673ffffffffffffffffffffffffffffffffffffffff16815260200190815260200160002090506002826000015182600001540181151561102f57fe5b0481600001819055506002826020015182600101540181151561104e57fe5b0481600101819055506002826040015182600201540181151561106d57fe5b0481600201819055508573ffffffffffffffffffffffffffffffffffffffff166108fc60023481151561109c57fe5b049081150290604051600060405180830381858888f193505050501580156110c8573d6000803e3d6000fd5b503373ffffffffffffffffffffffffffffffffffffffff167f54c94c8747d7f160635653967daf90cb5823db77c56b924372f923ad753fcc6a82600001548360010154846002015460405180848152602001838152602001828152602001935050505060405180910390a2505050505050565b6060604051908101604052806000815260200160008152602001600081525090565b6060604051908101604052806003906020820280388339808201915050905050905600a165627a7a72305820b1eddb4213d421960c9f6fc266d4b30f23c5a826918126db26160863cf1a91ea0029",
  "source": "pragma solidity ^0.4.24;\n\nimport './Owned.sol';\n\ncontract RgbWallet is Owned {\n\n  struct rgb {\n    uint r;\n    uint g;\n    uint b;\n  }\n\n  mapping(address => rgb) public wallets;\n\n  address[] public playerList;\n\n  uint startTime;\n\n  modifier onlyPlayer() {\n    require(isPlayer(msg.sender), 'Not a player');\n    _;\n  }\n\n  modifier gameInProgress() {\n    require(now <= startTime + 1 weeks, 'Game over');\n    _;\n  }\n\n  modifier gameOver() {\n    require(now > startTime + 1 weeks, 'Game in progress');\n    _;\n  }\n\n  event NewPlayer(address indexed playerAddress);\n\n  event Blending(\n    address indexed blender,\n    uint r,\n    uint g,\n    uint b\n  );\n\n  constructor() public {\n    owner = msg.sender;\n    startTime = now;\n  }\n\n  function play() gameInProgress public {\n    // The sender must not be already a player\n    require(!isPlayer(msg.sender), 'Already a player');\n    // Register the address in the array of player\n    playerList.push(msg.sender);\n    // Given the address, derive the corresponding rgb\n    uint defaultChoice = uint(msg.sender) % 3;\n    rgb memory defaultColor;\n    if (defaultChoice == 0) {\n      defaultColor = rgb(255, 0, 0);\n    } else if (defaultChoice == 1){\n      defaultColor = rgb(0, 255, 0);\n    } else {\n      defaultColor = rgb(0, 0, 255);\n    }\n    // Assign the address a token of color derived from it\n    wallets[msg.sender] = defaultColor;\n    // Emit the event\n    emit NewPlayer(msg.sender);\n  }\n\n  function blendWithOthers(\n    address otherPlayer,\n    uint targetRgbR,\n    uint targetRgbG,\n    uint targetRgbB\n  ) gameInProgress onlyPlayer public payable {\n    // The sender must at least send 2 ethers\n    require(msg.value >= 20 finney, 'Not enough Ether');\n    // Get the coin of otherPlayer\n    rgb memory otherCoin = wallets[otherPlayer];\n    // The color of the target must be the one in argument\n    require(targetRgbR == otherCoin.r && targetRgbG == otherCoin.g && targetRgbB == otherCoin.b, 'Target coin has changed');\n    // Get the coin of the sender\n    rgb storage myCoin = wallets[msg.sender];\n    // Blend your coin with the other one\n    myCoin.r = (myCoin.r + otherCoin.r) / 2;\n    myCoin.g = (myCoin.g + otherCoin.g) / 2;\n    myCoin.b = (myCoin.b + otherCoin.b) / 2;\n    // Transfer the Ethers\n    otherPlayer.transfer(msg.value / 2);\n    // Emit the event\n    emit Blending(msg.sender, myCoin.r, myCoin.g, myCoin.b);\n  }\n\n  function blendWithYourself() gameInProgress onlyPlayer public payable {\n    // The sender must at least send 2 ethers\n    require(msg.value >= 20 finney, 'Not enough Ether');\n    // Get the default color of the sender\n    uint defaultChoice = uint(msg.sender) % 3;\n    rgb memory otherCoin;\n    if (defaultChoice == 0) {\n      otherCoin = rgb(255, 0, 0);\n    } else if (defaultChoice == 1){\n      otherCoin = rgb(0, 255, 0);\n    } else {\n      otherCoin = rgb(0, 0, 255);\n    }\n    // Get the coin of the sender\n    rgb storage myCoin = wallets[msg.sender];\n    // Blend your coin with the other one\n    myCoin.r = (myCoin.r + otherCoin.r) / 2;\n    myCoin.g = (myCoin.g + otherCoin.g) / 2;\n    myCoin.b = (myCoin.b + otherCoin.b) / 2;\n    // Emit the event\n    emit Blending(msg.sender, myCoin.r, myCoin.g, myCoin.b);\n  }\n\n  function getDefaultRgb(address player) public pure returns (uint[3]) {\n    uint defaultChoice = uint(player) % 3;\n    rgb memory defaultRgb;\n    if (defaultChoice == 0) {\n      defaultRgb = rgb(255, 0, 0);\n    } else if (defaultChoice == 1){\n      defaultRgb = rgb(0, 255, 0);\n    } else {\n      defaultRgb = rgb(0, 0, 255);\n    }\n    /* return (defaultRgb.r, defaultRgb.g, defaultRgb.b); */\n    return [ defaultRgb.r, defaultRgb.g, defaultRgb.b ];\n  }\n\n  function getCurrentRgb(address player) public view returns (uint[3]) {\n    rgb memory currentRgb = wallets[player];\n    return [ currentRgb.r, currentRgb.g, currentRgb.b ];\n  }\n\n  function getPlayers() public view returns (address[]) {\n    return playerList;\n  }\n\n  function isPlayer(address _address) public view returns (bool) {\n    uint i;\n    while (i < playerList.length) {\n      if (playerList[i] == _address) {\n        return true;\n      }\n      i++;\n    }\n    return false;\n  }\n}\n",
  "sourcePath": "/Users/vincent/Documents/Consensys/workshop-x/dapp/contracts/RgbWallet.sol",
  "compiler": {
    "name": "solc",
    "version": "0.4.24+commit.e67f0147.Emscripten.clang"
  },
  "schemaVersion": "2.0.0",
  "updatedAt": "2018-08-31T12:49:28.995Z"
}